:020000040000FA
:06080000B4EF35F0120018
:020806000000F0
:0608080006EF27F01200CC
:02080E00C250D6
:08081000020B01E0010E1200D1
:060818009DEF32F012001A
:02081E000A00CE
:10082000296C00008F0200000A000000276C000005
:10083000B902000002000000226C00009F020000CC
:10084000050000001E6C0000AC0200000400000067
:10085000056C0000E701000019000000036C0000B7
:10086000B702000002000000FF6B0000A8020000B9
:1008700004000000F96B000099020000060000006F
:1008800006080000B502000002000000F66B000040
:08089000B002000003000000AB
:08089800D9CFE6FFE1CFD9FF43
:1008A000060EE1260201B651090A01E14FD3010A01
:1008B00001E114D30F0A01E1EAD2010A01E147D2B2
:1008C000030A01E130D2010A01E17FD0070A62E0A8
:1008D000010A2EE0030A27E0010A01E04FD3010ECE
:1008E000B56F0101E66BE6512B6E2C6A150E2B5C81
:1008F000000E2C5814E2E651EA6A610FE96E020E0E
:10090000EA22010EEFCFDBFFE651EA6AC70FE96E7C
:10091000010EEA22010EDBCFEFFFE62BE4D7020146
:10092000010EB66F2BD339DB0201020EB66F26D350
:100930007AEC1FF0DF6E610EDF5C0EE3DF507208B1
:100940000BE30201030EB66FDFCFE4F1610EDF5C53
:10095000020F0101E36F1DD0750EDF5C06E1D2ECE2
:1009600009F00201060EB66F14D0760EDF5C04E1CA
:100970000201070EB66F0DD0770EDF5C04E10201B5
:10098000080EB66F06D0780EDF5C03E10201B66B8D
:10099000B56BF4D20101E26B7AEC1FF0000901E0C3
:1009A000FBD73A0E2B6E370E2C6E2D6A2BC0E6FF4E
:1009B0002CC0E6FF2DC0E6FFA1EC33F0E552E55276
:1009C000E5520201040EB66FD9D27AEC1FF0DF6E49
:1009D000300EDF5C03E3DF50390806E22B0EDF5CEC
:1009E00003E02D0EDF5C19E10101E2512B6E2C6A50
:1009F000060E2B5C000E2C5810E2DFCFE6FF7EECDB
:100A00001FF0E5520101E251EA6ADC0FE96E010EC6
:100A1000EA22DFCFEFFFE22B85D10D0EDF5C01E094
:100A200081D12D0E0101DC5D22E1040EDB68050E93
:100A3000DB68E207E66BE6512B6E2C6A060E2B5C38
:100A4000000E2C5813E2E629EA6ADC0FE96E010E6B
:100A5000EA22EF50E66EE651EA6ADC0FE96E010E1B
:100A6000EA22E552E750EF6EE62BE5D72FD02B0EAA
:100A7000DC5D25E1010EF36E040EF3CFDBFF050E06
:100A8000DB6AE207E66BE6512B6E2C6A060E2B5CE6
:100A9000000E2C5813E2E629EA6ADC0FE96E010E1B
:100AA000EA22EF50E66EE651EA6ADC0FE96E010ECB
:100AB000EA22E552E750EF6EE62BE5D707D0010EAC
:100AC000F36E040EF3CFDBFF050EDB6AE251030881
:100AD00008E2020EDB6A010EF36E030EF3CFDBFFBA
:100AE000CCD0030EE25D56E1300EDC5D2B6E2C6A3D
:100AF000640E1D6E1E6A2BC022F02CC023F0BBECCE
:100B00002BF0020E1BC0DBFF030E1CC0DBFF300E00
:100B10000101DD5D2D6E2E6A0A0E1D6E1E6A2DC04E
:100B200022F02EC023F0BBEC2BF01BC02BF01CC01E
:100B30002CF0D950020FE96EDACFEAFF2B50EE26E7
:100B40002C50ED22300E0101DE5D2B6E2C6AD95047
:100B5000020FE96EDACFEAFF2B50EE262C50ED2281
:100B6000040EDBCF2BF0050EDBCF2CF0D950020F9B
:100B7000E96EDACFEAFF2BC022F02CC023F0EECFD3
:100B80001DF0EDCF1EF0BBEC2BF01BC0EEFF1CC028
:100B9000EDFF73D0020EE25D35E1300EDC5D0A0D33
:100BA000F350E66ED950020FE96EDACFEAFFE55254
:100BB000E750EE6EED6A300EDD5D2B6E2C6AD9507B
:100BC000020FE96EDACFEAFF2B50EE262C50ED2211
:100BD000040EDBCF2BF0050EDBCF2CF0D950020F2B
:100BE000E96EDACFEAFF2BC022F02CC023F0EECF63
:100BF0001DF0EDCF1EF0BBEC2BF01BC0EEFF1CC0B8
:100C0000EDFF3BD0E20526E1300EDC5DE66ED9500B
:100C1000020FE96EDACFEAFFE552E750EE6EED6AB9
:100C2000040EDBCF2BF0050EDBCF2CF0D950020FDA
:100C3000E96EDACFEAFF2BC022F02CC023F0EECF12
:100C40001DF0EDCF1EF0BBEC2BF01BC0EEFF1CC067
:100C5000EDFF13D0E25111E1E351EA6AC70FE96EEB
:100C6000010EEA22EF50E66ED950020FE96EDACF9C
:100C7000EAFFE552E750EE6EED6A660E0101E45DB3
:100C800003E06E0EE45D26E1D950020FE96EDACF83
:100C9000EAFF010EEE1801E1ED500BE0D950020F12
:100CA000E96EDACFEAFFFF0EEE1802E1FF0EED1853
:100CB0000DE1E351EA6AC70FE96E010EEA22020E66
:100CC000DBCFEFFF0201010EB66F03D00201050E6C
:100CD000B66F28D0020EDBCF2BF0030EDBCF2CF04B
:100CE0000001800E2C141BE1020EDBCF2DF0030E51
:100CF000DBCF2EF02E3404E22D50FF08000E2E54D0
:100D00000EE30101E351EA6AC70FE96E010EEA2220
:100D1000020EDBCFEFFF0201010EB66F03D002011E
:100D2000050EB66F2BD11A0E2B6E370E2C6E2D6A58
:100D30002BC0E6FF2CC0E6FF2DC0E6FFA1EC33F090
:100D4000E552E552E5520201030EB66F17D17AEC77
:100D50001FF0DF6E610EDF5C02E102010407620E2C
:100D6000DF5C04E10A0E0201045F90D0630EDF5CD9
:100D700003E10201042B8AD0640EDF5C04E10A0E59
:100D80000201042783D0650EDF5C03E104C2C9F1D0
:100D90007DD0660EDF5C03E104C2CAF177D0670E36
:100DA000DF5C03E104C2CBF171D0680EDF5C03E1CC
:100DB0000201052B6BD0690EDF5C04E10A0E020113
:100DC000052764D06A0EDF5C03E1020105075ED0EF
:100DD0006B0EDF5C04E10A0E0201055F57D06C0E5A
:100DE000DF5C03E105C2D1F151D06D0EDF5C03E1A0
:100DF00005C2D2F14BD06E0EDF5C03E105C2D3F128
:100E000045D06F0EDF5C3CE1170E2B6E370E2C6E5B
:100E10002D6A2BC0E6FF2CC0E6FF2DC0E6FFA1EC3B
:100E200033F0E552E552E55202010451E66EE66AFE
:100E30000C0E2B6E370E2C6E2D6A2BC0E6FF2CC0CD
:100E4000E6FF2DC0E6FFA1EC33F0F56E050EE15E86
:100E5000F55002010551E66EE66A020E2B6E370E62
:100E60002C6E2D6A2BC0E6FF2CC0E6FF2DC0E6FFDE
:100E7000A1EC33F0F56E050EE15EF55093DA06D085
:100E8000700EDF5C03E10201010EB66F77D0010145
:100E9000C96B7C0ECA6FF80ECB6F030ECC6F060EBB
:100EA000CD6FCE693E0ECF6F4F0ED06F5E0ED16FFD
:100EB000900ED26FC20ED36F080ED46F060ED56F90
:100EC000010ED66F320ED76F770ED86F060ED96F20
:100ED000140EDA6F0201010EB66F50D00101E66BFD
:100EE000E6512B6E2C6A150E2B5C000E2C5814E26A
:100EF000E651EA6AC70FE96E010EEA22010EEFCF52
:100F0000DBFFE651EA6A610FE96E020EEA22010E8A
:100F1000DBCFEFFFE62BE4D7200EE66EE66A73DB4D
:100F2000E552E552EC0E2B6E360E2C6E2D6A2BC060
:100F3000E6FF2CC0E6FF2DC0E6FFA1EC33F0E55242
:100F4000E552E5520201090EB66F18D097EC32F067
:100F5000200813E1E50E2B6E360E2C6E2D6A2BC089
:100F6000E6FF2CC0E6FF2DC0E6FFA1EC33F0E55212
:100F7000E552E5520201010EB66F00D00201B551F3
:100F8000F56E060EE15C03E200D0E16AE552E16E27
:100F9000F550E552E7CFD9FF1200170E2B6E370E32
:100FA0002C6E2D6A2BC0E6FF2CC0E6FF2DC0E6FF9D
:100FB000A1EC33F0E552E552E552170E2B6E370ED9
:100FC0002C6E2D6A2BC0E6FF2CC0E6FF2DC0E6FF7D
:100FD000A1EC33F0E552E552E5520101C951E66E4C
:100FE000E66AC70E2B6E360E2C6E2D6A2BC0E6FFFE
:100FF0002CC0E6FF2DC0E6FFA1EC33F0F56E050E28
:10100000E15EF5500101CA51E66EE66AA60E2B6E4E
:10101000360E2C6E2D6A2BC0E6FF2CC0E6FF2DC0CD
:10102000E6FFA1EC33F0F56E050EE15EF55001012F
:10103000CB51E66EE66A880E2B6E360E2C6E2D6A4C
:101040002BC0E6FF2CC0E6FF2DC0E6FFA1EC33F07D
:10105000F56E050EE15EF5500101CC51E66EE66AD3
:101060006D0E2B6E360E2C6E2D6A2BC0E6FF2CC03B
:10107000E6FF2DC0E6FFA1EC33F0F56E050EE15E54
:10108000F5500101CD51E66EE66A470E2B6E360E25
:101090002C6E2D6A2BC0E6FF2CC0E6FF2DC0E6FFAC
:1010A000A1EC33F0F56E050EE15EF550CEC12BF0EC
:1010B0002C6A2BBE2C682BC0E6FF2CC0E6FF220E4C
:1010C0002D6E360E2E6E2F6A2DC0E6FF2EC0E6FF67
:1010D0002FC0E6FFA1EC33F0F56E050EE15EF55092
:1010E0000101CF51E66EE66AFB0E2B6E350E2C6EBB
:1010F0002D6A2BC0E6FF2CC0E6FF2DC0E6FFA1EC59
:1011000033F0F56E050EE15EF5500101D051E66E4B
:10111000E66AD80E2B6E350E2C6E2D6A2BC0E6FFBC
:101120002CC0E6FF2DC0E6FFA1EC33F0F56E050EF6
:10113000E15EF5500101D151E66EE66AB90E2B6E03
:10114000350E2C6E2D6A2BC0E6FF2CC0E6FF2DC09D
:10115000E6FFA1EC33F0F56E050EE15EF5500101FE
:10116000D251E66EE66A970E2B6E350E2C6E2D6A06
:101170002BC0E6FF2CC0E6FF2DC0E6FFA1EC33F04C
:10118000F56E050EE15EF5500101D351E66EE66A9B
:10119000780E2B6E350E2C6E2D6A2BC0E6FF2CC000
:1011A000E6FF2DC0E6FFA1EC33F0F56E050EE15E23
:1011B000F5500101D451E66EE66A5C0E2B6E350ED9
:1011C0002C6E2D6A2BC0E6FF2CC0E6FF2DC0E6FF7B
:1011D000A1EC33F0F56E050EE15EF5500101D5513D
:1011E000E66EE66A350E2B6E350E2C6E2D6A2BC020
:1011F000E6FF2CC0E6FF2DC0E6FFA1EC33F0F56E54
:10120000050EE15EF550D6C12BF02C6A2BBE2C6882
:101210002BC0E6FF2CC0E6FF0F0E2D6E350E2E6E96
:101220002F6A2DC0E6FF2EC0E6FF2FC0E6FFA1EC1F
:1012300033F0F56E050EE15EF5500101D751E66E13
:10124000E66AE70E2B6E340E2C6E2D6A2BC0E6FF7D
:101250002CC0E6FF2DC0E6FFA1EC33F0F56E050EC5
:10126000E15EF5500101D851E66EE66AC30E2B6EC1
:10127000340E2C6E2D6A2BC0E6FF2CC0E6FF2DC06D
:10128000E6FFA1EC33F0F56E050EE15EF5500101CD
:10129000D951E66EE66AA40E2B6E340E2C6E2D6AC2
:1012A0002BC0E6FF2CC0E6FF2DC0E6FFA1EC33F01B
:1012B000F56E050EE15EF5500101DA51E66EE66A63
:1012C0007D0E2B6E340E2C6E2D6A2BC0E6FF2CC0CB
:1012D000E6FF2DC0E6FFA1EC33F0F56E050EE15EF2
:1012E000F550170E2B6E370E2C6E2D6A2BC0E6FFB5
:1012F0002CC0E6FF2DC0E6FFA1EC33F0E552E5522D
:10130000E552570E2B6E340E2C6E2D6A2BC0E6FF65
:101310002CC0E6FF2DC0E6FFA1EC33F0E552E5520C
:10132000E5523D0E2B6E340E2C6E2D6A2BC0E6FF5F
:101330002CC0E6FF2DC0E6FFA1EC33F0E552E552EC
:10134000E5522A0E2B6E340E2C6E2D6A2BC0E6FF52
:101350002CC0E6FF2DC0E6FFA1EC33F0E552E552CC
:10136000E5521F0E2B6E340E2C6E2D6A2BC0E6FF3D
:101370002CC0E6FF2DC0E6FFA1EC33F0E552E552AC
:10138000E552170E2B6E370E2C6E2D6A2BC0E6FF22
:101390002CC0E6FF2DC0E6FFA1EC33F0E552E5528C
:1013A000E5521200170E2B6E370E2C6E2D6A2BC0D5
:1013B000E6FF2CC0E6FF2DC0E6FFA1EC33F0E552BE
:1013C000E552E552170E2B6E370E2C6E2D6A2BC090
:1013D000E6FF2CC0E6FF2DC0E6FFA1EC33F0E5529E
:1013E000E552E552070E2B6E340E2C6E2D6A2BC083
:1013F000E6FF2CC0E6FF2DC0E6FFA1EC33F0E5527E
:10140000E552E552EE0E2B6E330E2C6E2D6A2BC07C
:10141000E6FF2CC0E6FF2DC0E6FFA1EC33F0E5525D
:10142000E552E552D50E2B6E330E2C6E2D6A2BC075
:10143000E6FF2CC0E6FF2DC0E6FFA1EC33F0E5523D
:10144000E552E552BB0E2B6E330E2C6E2D6A2BC06F
:10145000E6FF2CC0E6FF2DC0E6FFA1EC33F0E5521D
:10146000E552E5529F0E2B6E330E2C6E2D6A2BC06B
:10147000E6FF2CC0E6FF2DC0E6FFA1EC33F0E552FD
:10148000E552E552800E2B6E330E2C6E2D6A2BC06A
:10149000E6FF2CC0E6FF2DC0E6FFA1EC33F0E552DD
:1014A000E552E552640E2B6E330E2C6E2D6A2BC066
:1014B000E6FF2CC0E6FF2DC0E6FFA1EC33F0E552BD
:1014C000E552E5524D0E2B6E330E2C6E2D6A2BC05D
:1014D000E6FF2CC0E6FF2DC0E6FFA1EC33F0E5529D
:1014E000E552E552350E2B6E330E2C6E2D6A2BC055
:1014F000E6FF2CC0E6FF2DC0E6FFA1EC33F0E5527D
:10150000E552E5521C0E2B6E330E2C6E2D6A2BC04D
:10151000E6FF2CC0E6FF2DC0E6FFA1EC33F0E5525C
:10152000E552E552020E2B6E330E2C6E2D6A2BC047
:10153000E6FF2CC0E6FF2DC0E6FFA1EC33F0E5523C
:10154000E552E552E50E2B6E320E2C6E2D6A2BC045
:10155000E6FF2CC0E6FF2DC0E6FFA1EC33F0E5521C
:10156000E552E552C50E2B6E320E2C6E2D6A2BC045
:10157000E6FF2CC0E6FF2DC0E6FFA1EC33F0E552FC
:10158000E552E552A80E2B6E320E2C6E2D6A2BC042
:10159000E6FF2CC0E6FF2DC0E6FFA1EC33F0E552DC
:1015A000E552E552870E2B6E320E2C6E2D6A2BC043
:1015B000E6FF2CC0E6FF2DC0E6FFA1EC33F0E552BC
:1015C000E552E552640E2B6E320E2C6E2D6A2BC046
:1015D000E6FF2CC0E6FF2DC0E6FFA1EC33F0E5529C
:1015E000E552E552170E2B6E370E2C6E2D6A2BC06E
:1015F000E6FF2CC0E6FF2DC0E6FFA1EC33F0E5527C
:10160000E552E5521200D9CFE6FFE1CFD9FF050E32
:10161000E126030EDB6A040EDB6A0201470E616FEE
:101620004B0E626FDE6ADD6ADECF2BF0DDCF2CF071
:10163000140E2B5C000E2C5834E2DECFE9FFDDCF18
:10164000EAFF610EE926020EEA22020EEFCFDBFF6F
:10165000DBCFE6FFFD0EDBCF2DF0FE0EDBCF2EF055
:10166000DE502D242B6EDD502E202C6E2BC0E6FF7D
:101670002CC0E6FFF0EC31F0E552E552E552020EE7
:10168000DB502B6E2C6AD950030FE96EDACFEAFFDC
:101690002B50EE262C50ED22DF2A010E01E3DB2A2F
:1016A000C3D7030EDBCFE6FF150EE76EFD0EDBCFD3
:1016B0002BF0FE0EDBCF2CF0E7502B26000E2C2259
:1016C0002B062C5A2BC0E6FF2CC0E6FFF0EC31F0C5
:1016D000E552E552E552F56E050EE15C02E2E16A83
:0E16E000E552E16EF550E552E7CFD9FF12005A
:0216EE00B5EC59
:1016F00010F0FB0EDBCFF3FFDB06F35000090AE02E
:1017000003EC11F0FA0E6EEC11F0F3E12C1CF1E198
:10171000010E01D0000EE4EF10F0B5EC10F03B0E1E
:10172000E12402E3E168E652E16E010EDB6A020E9B
:10173000DB6AF90EDBCFF6FFFA0EDBCFF7FFFB0E0D
:10174000DBCFF8FF0800F550DF6EDF5002E106EF57
:1017500010F0250EDF5C02E0F9EF0FF0030EDB6AFC
:10176000040EDB6A050EDB6A060EDB6A070EDB6A17
:101770001DEC10F02D0EDF5C0CE02B0EDF5C09E0A1
:10178000200EDF5C06E0230EDF5C03E0300EDF5C42
:101790001AE1DF50300A14E0130A0FE0030A0AE0EE
:1017A0000B0A05E0060AE4E1030EDB80E1D7030E35
:1017B000DB82DED7030EDB84DBD7030EDB86D8D7D4
:1017C000030EDB88D5D72A0EDF5C1BE119EC10F085
:1017D00067EC10F010E0030EDB801D681E68130E2E
:1017E000DBCF22F0140EDBCF23F08EEC2BF0040EB7
:1017F0001BC0DBFF03D0130E50EC10F01DEC10F0FB
:101800000BD0090EDB6ABEEC10F003E032EC11F0F5
:10181000FAD7090E50EC10F0030EDBB0DB982E0E59
:10182000DF5C1BE11DEC10F02A0EDF5C0BE119EC14
:1018300010F067EC10F003E1130EA2EC10F01DECB9
:1018400010F00BD0090EDB6ABEEC10F003E032ECB6
:1018500011F0FAD7090EA2EC10F0680EDF5C07E178
:101860001DEC10F0680EDF5C1DE1030E18D0740E45
:10187000DF5C17E07A0EDF5C14E0480EDF5C06E008
:10188000540EDF5C03E05A0EDF5C02E1020E07D06B
:101890006C0EDF5C03E06A0EDF5C04E1010EF5EC28
:1018A00010F0CBDBDF506E0A01E17FD31E0A01E1AD
:1018B00092D1200A01E18FD13F0A01E149D11A0AF0
:1018C00001E146D10D0A01E143D1200A01E140D1F5
:1018D0003A0A01E13DD1200A01E13AD1260A01E1AB
:1018E00035D10D0A01E132D11A0A01E1D9D0200A1D
:1018F0004AE0300A1FE0460A0EE0250A01E083D3E1
:10190000D950F90FE96EFF0EDA20EA6E010EEE5E95
:10191000000EEE5AEE5A03EC11F0250EE66E97DB40
:1019200003E12C1C01E169D3FFEC10F001E26BD361
:10193000DB2A69D3080EDB6A040EDB50010806E2DD
:10194000040EDB04C7EC10F0DB508DDB080EDB501F
:1019500009E0030EDB50010B05E174DB01E04DD320
:10196000080EDB6A66DBEFCFDFFF77EC11F003E1F7
:101970002C1C01E142D3FFEC10F001E3DB2A62DB17
:1019800001E141D33AD3070EDB5002080FE143ECEB
:1019900011F0030E0AEC11F00E0EEECFDBFF0F0E6E
:1019A000EECFDBFF100EEECFDBFF20D0F70EDBCF4C
:1019B0002EF0F80EDBCF2FF0020E2E5E000E2F5A07
:1019C000F70E2EC0DBFFF80E2FC0DBFF2EC0E9FFA5
:1019D0002FC0EAFFFAEC10F02D6A0E0E2BC0DBFFD1
:1019E0000F0E2CC0DBFF100E2DC0DBFF0E0EDBCF69
:1019F000E6FF0F0EDBCFE6FF100EDBCFE6FFABEC12
:101A000034F0E552E552E552130E1CC0DBFF140E14
:101A10001DC0DBFF060EDB5005E0130E3EEC11F09F
:101A200001E26CDB62EC11F002E2130E39DB25EC13
:101A300011F006E0040E3EEC11F002E2050E30DB80
:101A4000030EDBB005D0FEDA01E0D7D2080EDB6A68
:101A5000090EDB6A0E0EDBCFF6FF0F0EDBCFF7FFB2
:101A6000100EDBCFF8FF0800F550DF6EDF5014E0FA
:101A700068EC11F011E277EC11F003E12C1C01E1AC
:101A8000BCD2BDDB01E3DB2A090EDB2AD9500E0FE5
:101A9000E96E000ECDDBE7D7D5DA01E1B4D2ADD2E5
:101AA000C8DA110EEECFDBFF120EEDCFDBFF110E09
:101AB000DBCFE6FF120EDBCFE6FF9DEC34F0E55204
:101AC000E552130EF3CFDBFF140EF4CFDBFF060E4F
:101AD000DB5004E0130ED2DB01E210DB62EC11F00C
:101AE00002E2130EDDDAB1DB05E0040EC7DB02E231
:101AF000050ED6DA030EDBB005D0A4DA01E07DD204
:101B0000080EDB6A090EDB6A110EDBCFE9FF120E4D
:101B1000DBCFEAFFEFCFDFFFDF5014E0D9DB12E2CB
:101B2000E6DB03E12C1C01E168D269DB01E3DB2A7F
:101B3000090EDB2A110EDB2ADBCFE9FF120EE8E3E8
:101B4000DB2AE6D77FDA01E15ED257D2030EDB8EC5
:101B5000070EDB0410E197DB040E5CDB0A0EEECF10
:101B6000DBFF0B0EEECFDBFF0C0EEECFDBFF0D0E1F
:101B7000EECFDBFF6CD0070EDB5003082CE1030E29
:101B8000DBAE0DD0B4DA020E78DAEFCF2BF02C6A90
:101B90002D6A2E6A2BAE39D02C682D6835D0F70E01
:101BA000DBCF2CF0F80EDBCF2DF0020E2C5E000EFA
:101BB0002D5AF70E2CC0DBFFF80E2DC0DBFF2CC01A
:101BC000E9FF2DC0EAFFEFCF2BF00A0E2BC0DBFFA1
:101BD0000B0EDB6A38D0070EDB50020809E1030E5A
:101BE000DBAE04D05BDB2DAE10D00ED057DB0DD0BA
:101BF000030EDBAE12D07BDA020E3FDAFBDA2D6A7F
:101C00002E6A2CAE02D02D682E68E4DA0C0E2DC0A0
:101C1000DBFF0D0E2EC0DBFF1AD0F70EDBCF2DF051
:101C2000F80EDBCF2EF0020E2D5E000E2E5AF70EB0
:101C30002DC0DBFFF80E2EC0DBFF2DC0E9FF2EC04C
:101C4000EAFFD8DAC7DA0C0EDB6A0D0EDB6A060E85
:101C5000DB5005E1010EF36E050EF3CFDBFF150E31
:101C6000DB6A160EDB6AD950370F2B6E000EDA20B6
:101C70002C6E390E2BC0DBFF3A0E2CC0DBFF380E6A
:101C8000DB6A080EDB6A0A0EB0DADF50780A12E06F
:101C9000200A10E0280A0CE0200A0AE03F0A06E0C9
:101CA0000D0A02E0200A08E1020E05D0080E03D05A
:101CB000080EDF26100E99DA030EDBBE02D0DB928F
:101CC000DB94DB50800B24E08CDAD890030EEB50D1
:101CD000000A08E6000EEE5C000EEE58000EEE580C
:101CE000000EEE5815E215DA206821682268236894
:101CF00031EC34F00A0E17C0DBFF0B0E18C0DBFF0F
:101D00000C0E19C0DBFF0D0E1AC0DBFF2D0E08D024
:101D1000030EDBA202D02B0E03D0DBA408D0200ED2
:101D2000F36E170EF3CFDBFF150EDB2A02D0170E72
:101D3000DB6A050EDB5003E1B9D901E189D0DA0E87
:101D40002B6E6B0E2C6E000E2D6E070EDBCF2EF061
:101D50002F6A306A316A2EC020F02FC021F030C0C7
:101D600022F031C023F0D5D935EC35F02B501724B3
:101D7000F36E2C501820F46E2D501920F86EF4CF0D
:101D8000F7FFF3CFF6FF0800090EF5CFDBFF580E83
:101D9000DF5C0FE1610EF36E090E7DD90AE3200EC0
:101DA0002B6E090EDBCFE7FF2B50E75E090EE7CF66
:101DB000DBFF070EDBCF2BF02C6A2D6A2E6A11DABF
:101DC0002BC020F02CC021F02DC022F02EC023F01B
:101DD000EECF1BF0EECF1CF0EECF1DF0EFCF1EF0DC
:101DE00035EC35F01EC0EDFF1DC0EDFF1CC0EDFF52
:101DF0001BC0EFFF390EDBCFE9FFDB063A0EDBCF6E
:101E0000EAFF01E2DB06090EDBCFEFFF150EDB2A4E
:101E10004DD995E1030EDBA61DD06F0EDF5C06E108
:101E2000C3D918E3150EDB285DDA14D0780EDF5C19
:101E300009E0580EDF5C06E0620EDF5C03E0420E54
:101E4000DF5C08E1020EF36E160EF3CFDBFF02D06B
:101E5000150EDB6A030EDB50100B0EE0040EDBCF19
:101E60002BF0050EDB50D8802B5406E2060EDB501B
:101E700003E1040EDB5036DA97D90AE2050EDBCF18
:101E8000E7FF150EDB50E75E050EE7CFDBFF02D064
:101E9000050EDB6A040EDBCF2BF0160E47D9D88077
:101EA0002B5414E2160EDBCFE6FF150EDBCFE6FF58
:101EB000040EDBCFE6FF050EDB50E552E75CE55292
:101EC000D880E754E552D880E75461D9030EDB503F
:101ED000010B0BE1080EDB5008E0B4D801E08DD017
:101EE000080EDB50C0D8080EDB6A170EDB5007E087
:101EF0008AD9170EF3D903E12C1C01E17ED0160E0E
:101F0000DB5016E080D9300EE66EA1D802E12C1C21
:101F100074E079D9DFCFE6FFEFEC33F0E552E5521C
:101F2000E552F4CF2CF00001F31C02E12C1C65E01B
:101F3000050EDBCF2BF0160EDB50D8802B5409E2B8
:101F4000050EDBCFE7FF160EDB50E75E050EE7CF91
:101F5000DBFF300EE66E050ECDD94FE1390EDB2AE0
:101F6000DBCFE9FF3A0E01E3DB2ADBCFEAFF090E04
:101F7000EFCFDBFFDB500EE046D9090EAFD902E10F
:101F80002C1C3BE0390EDB2ADBCFE9FF3A0EEDE3F8
:101F9000DB2AEBD757D831E1160EDBCFE6FF080E70
:101FA000C5D8E552E7245FD82ED0070EDB50030AD0
:101FB0001CE0010A14E0030A07E07DD9DBCFEEFF45
:101FC000020EDBCFEDFF1FD0F7D8306A2EAE02D065
:101FD0002F6830682ED8BED830C0EEFF14D0ECD8B1
:101FE0002EBE2F6826D8B6D80ED065D9DBCFEFFF2E
:101FF0000AD07DD905E12C1C03E1F368F46810D008
:10200000FED801E3DB2A7BD9A2EF0BF0010EDBCF78
:102010002BF0020EDBCF2CF02BC0F3FF2CC0F4FF13
:10202000F56E3B0EE15C02E2E16AE552E16EF550CD
:10203000CBD029D9020E0AEF11F061D90800F55072
:10204000DF6E1200200EE66E080E7AEF11F0EFEC54
:1020500033F0E552E552E552F3CF2BF0F4CF2CF0FC
:102060000001F31C12002B6E2C6AD950010F4DD9C0
:102070002B50EE262C50ED2212002F5E000E305A0F
:10208000F70E2FC0DBFFF80E30C0DBFF2FC0E9FFDB
:1020900030C0EAFF1200DBCFF4FFF350F45C120013
:1020A000DB50E76E040EE7CFDBFF12000A0EDBCF3A
:1020B0002BF00B0EDBCF2CF00C0EDBCF2DF00D0E2A
:1020C000DBCF2EF02B502C102D102E101200130EE3
:1020D000EECFDBFF140EEDCFDBFF130EDBCF2BF0CB
:1020E000140EDBCF2CF00001800E2C141200F70E22
:1020F000DBCF2FF0F80EDBCF30F01200050EDB50F7
:10210000E66ED950130F01D9E552E750EE6EED6A35
:1021100012000A0EDBCF1BF00B0EDBCF1CF00C0EF7
:10212000DBCF1DF00D0EDBCF1EF01200DBCFE6FF84
:10213000150EDBCFE6FF050EDB50E552E724E55236
:10214000E7241200DB50CED8010EF36E060EF3CF5B
:10215000DBFF1200EE50EFCFEAFFE96E2DC0EEFF7D
:102160002EC0EEFF2FC0EEFF1200D9CFE6FFDACF70
:10217000E6FFE1CFD9FFE2CFDAFF1200DFCFE6FFC3
:10218000E66AA2EC35F0E552E552F3501200E76E34
:10219000080EE7CFDBFF1200EECF2BF0EECF2CF0D6
:1021A000EFCF2DF02E6A1200050EDBCF2BF0150EAF
:1021B000DB50D8802B541200010EDBCF2DF0020E25
:1021C000DBCF2EF02F6A1200E552E5CFDAFFE7CF22
:1021D000D9FF12000A0E2BC0DBFF0B0E2CC0DBFF59
:1021E0001200D9500A0F85EF11F0F36E070EF3CFEE
:1021F000DBFF1200EECF2BF0EFCF2CF01200010E20
:10220000DB2A020E1200FC0EDBCFE6FFFD0EDBCF59
:10221000E6FF12002B5E000E2C5AF70E2BC0DBFFE0
:10222000F80E2CC0DBFF2BC0E9FF2CC0EAFF120028
:10223000DA20EA6EEF2AEECFF6FF000EEF22EECFA5
:10224000F7FFEF22EECFF8FF1200040EDBCFE6FF20
:10225000130EDB50E552E75C9ADFDB5004DF060E1D
:10226000DB501200090EDB500A0DF350DF24D00FB3
:10227000E76E090EE7CFDBFF1DEF10F0DB50F36ECA
:10228000050E4BEF10F0F70EDBCF2BF0F80EDBCF87
:102290002CF01200DFCFE6FF27EF10F028DF030E4F
:1022A000ECDECCEF10F077EC0BF0E552E552E552A6
:1022B000E55200091200BDDEEE50EFCFEAFFE96EF5
:1022C000010E1200130EDB50F36E040E4BEF10F0F4
:1022D000040EDB50F36E090E4BEF10F0DBCFE6FF80
:1022E00027EF10F0E76E050EE7CFDBFF12008BDF64
:1022F0004AEF11F0DBCFE6FF86DF53EF11F0D95044
:10230000F90FE96EFF0E18EF11F0E96E000EDA20FA
:04231000EA6E12005F
:0C231400D9CFE6FFE1CFD9FF040EE1268F
:102320000201BA510A0A01E19AD2030A01E181D2FB
:10233000010A01E166D20F0A01E12BD2010A01E193
:1023400004D2030A01E1EDD1010A01E189D0070AB3
:102350006CE0010A2EE0030A27E0010A01E087D2BF
:10236000010EB96F0201606B60512B6E2C6A160E64
:102370002B5C000E2C5814E26051EA6A880FE96E5B
:10238000010EEA22030EEFCFDBFF6051EA6A410F34
:10239000E96E020EEA22030EDBCFEFFF602BE4D7DB
:1023A0000201010EBA6F63D271DA0201020EBA6F36
:1023B0005ED27AEC1FF0E76E020EE7CFDBFF610E14
:1023C000F36E020EDBCFF4FFF350F45C0EE3020E6B
:1023D000DB5073080AE30201030EBA6F020EDB50F2
:1023E0009F0F020F02015E6F1FD0020EDB507508B7
:1023F00004E10201090EBA6F17D0020EDB50760815
:1024000004E10201060EBA6F0FD0020EDB5077080E
:1024100004E10201070EBA6F07D0020EDB50780804
:1024200003E10201BA6BB96B22D202015D6B7AEC57
:102430001FF0000901E0FBD75C0E2B6E310E2C6EF5
:102440002D6A2BC0E6FF2CC0E6FF2DC0E6FFA1ECF5
:1024500033F0E552E552E5520201040EBA6F07D29D
:102460007AEC1FF0E76E020EE7CFDBFF300EF36E63
:10247000020EDBCFF4FFF350F45C04E3020EDB50FA
:10248000390820E2610EF36E020EDBCFF4FFF35049
:10249000F45C04E3020EDB50660814E2410EF36EB6
:1024A000020EDBCFF4FFF350F45C04E3020EDB50CA
:1024B000460808E2020EDB50780804E0020EDB500A
:1024C000580835E102015D512B6E2C6A060E2B5C1B
:1024D000000E2C582CE2610EF36E020EDBCFF4FFDF
:1024E000F350F45C04E3020EDB50660804E2020ED3
:1024F000DB5078080AE1200E2B6E020EDBCFE7FFDF
:102500002B50E75E020EE7CFDBFF020EDBCFE6FFCC
:102510007EEC1FF0E55202015D51EA6A570FE96E49
:10252000020EEA22020EDBCFEFFF5D2BF9D0020E86
:10253000DB500D0801E0F4D0300E0201575D01E0E0
:1025400079D0580E585D76E15D51040804E2DE6AE8
:10255000010EDD6E6ED0040E5D5D44E1300E595DFE
:102560000AE35951390807E3300E595D100DF35055
:10257000DE6EDD6A14D0410E595D0BE359514608F9
:1025800008E3410E595D0A0F100DF350DE6EDD6A4F
:1025900006D0580E595D03E1DE6A010EDD6E300E85
:1025A0005A5D09E35A51390806E3300E5A5DDE26BA
:1025B000000EDD2216D0410E5A5D0AE35A5146083C
:1025C00007E3410E5A5D0A0FDE26000EDD2209D018
:1025D000580E5A5D06E1D9CFE9FFDACFEAFFEE5295
:1025E000ED2A27D0030E5D5D21E1300E595D08E331
:1025F0005951390805E3300E595DDE6EDD6A15D09C
:10260000410E595D09E35951460806E3410E595DF3
:102610000A0FDE6EDD6A09D0580E595D06E1D9CF8A
:10262000E9FFDACFEAFFEE52ED2A03D0DE6A010EAF
:10263000DD6E5DD05D51030804E2DE6A010EDD6EE1
:1026400056D0030E5D5D32E1300E575D2B6E2C6A65
:10265000640E1D6E1E6A2BC022F02CC023F0BBEC52
:102660002BF01BC0DEFF1CC0DDFF300E0201585DE9
:102670002D6E2E6A0A0E1D6E1E6A2DC022F02EC00F
:1026800023F0BBEC2BF01BC02BF01CC02CF0D9CFDF
:10269000E9FFDACFEAFF2B50EE262C50ED22300E68
:1026A0000201595DDE26000EDD2221D0020E5D5DA5
:1026B0000CE1300E575D0A0DF350DE6EDD6A300E10
:1026C000585DDE26000EDD2212D05D0505E1300EDC
:1026D000575DDE6EDD6A0BD05D5109E15E51EA6A3D
:1026E000410FE96E020EEA22EF50DE6EDD6AD9CFAD
:1026F000E9FFDACFEAFFFF0ED880EE54000EED546A
:102700000CE35E51EA6A410FE96E020EEA22DFCF66
:10271000EFFF0201010EBA6F03D00201050EBA6F7E
:10272000A6D03C0E2B6E310E2C6E2D6A2BC0E6FF10
:102730002CC0E6FF2DC0E6FFA1EC33F0E552E552D8
:10274000E5520201030EBA6F92D00201550E436F9B
:10275000730E446F0F0E456F110E466F640E476F78
:10276000910E486F496B4A6B800E4B6F4C6F4D6FEB
:10277000010E4E6F4F6F200E506F516F800E526FD3
:10278000536F200E546F840E556F0201010EBA6F05
:102790006ED00201606B60512B6E2C6A160E2B5CA2
:1027A000000E2C5814E26051EA6A410FE96E020EE5
:1027B000EA22030EEFCFDBFF6051EA6A880FE96E71
:1027C000010EEA22030EDBCFEFFF602BE4D7000EF1
:1027D000E66EE66AB4DAE552E552260E2B6E310E4D
:1027E0002C6E2D6A2BC0E6FF2CC0E6FF2DC0E6FF45
:1027F000A1EC33F0E552E552E5520201080EBA6F42
:1028000036D097EC32F0200813E11F0E2B6E310EFC
:102810002C6E2D6A2BC0E6FF2CC0E6FF2DC0E6FF14
:10282000A1EC33F0E552E552E5520201010EBA6F18
:102830001ED0060E2B6E310E2C6E2D6A2BC0E6FFBD
:102840002CC0E6FF2DC0E6FFA1EC33F0E552E552C7
:10285000E55204EC1FF002010A0EBA6F08D007EC33
:102860001FF0010803E10201010EBA6F00D002015E
:10287000B951F56E040EE15C03E200D0E16AE55265
:10288000E16EF550E552E7CFD9FF1200030E2B6E33
:10289000310E2C6E2D6A2BC0E6FF2CC0E6FF2DC03A
:1028A000E6FFA1EC33F0E552E552E552E70E2B6E60
:1028B000300E2C6E2D6A2BC0E6FF2CC0E6FF2DC01B
:1028C000E6FFA1EC33F0E552E552E5520201435137
:1028D000E66EE66A4351E66EE66AC60E2B6E300E71
:1028E0002C6E2D6A2BC0E6FF2CC0E6FF2DC0E6FF44
:1028F000A1EC33F0F56E070EE15EF5500201445194
:10290000E66EE66A4451E66EE66AA50E2B6E300E60
:102910002C6E2D6A2BC0E6FF2CC0E6FF2DC0E6FF13
:10292000A1EC33F0F56E070EE15EF5500201455162
:10293000E66EE66A4551E66EE66A840E2B6E300E50
:102940002C6E2D6A2BC0E6FF2CC0E6FF2DC0E6FFE3
:10295000A1EC33F0F56E070EE15EF5500201465131
:10296000E66EE66A4651E66EE66A630E2B6E300E40
:102970002C6E2D6A2BC0E6FF2CC0E6FF2DC0E6FFB3
:10298000A1EC33F0F56E070EE15EF5500201475100
:10299000E66EE66A4751E66EE66A420E2B6E300E30
:1029A0002C6E2D6A2BC0E6FF2CC0E6FF2DC0E6FF83
:1029B000A1EC33F0F56E070EE15EF55002014851CF
:1029C000E66EE66A4851E66EE66A210E2B6E300E20
:1029D0002C6E2D6A2BC0E6FF2CC0E6FF2DC0E6FF53
:1029E000A1EC33F0F56E070EE15EF550020149519E
:1029F000E66EE66A4951E66EE66A030E2B6E300E0D
:102A00002C6E2D6A2BC0E6FF2CC0E6FF2DC0E6FF22
:102A1000A1EC33F0F56E070EE15EF550ED0E2B6E76
:102A20002F0E2C6E2D6A2BC0E6FF2CC0E6FF2DC0AA
:102A3000E6FFA1EC33F0E552E552E55202014A51BE
:102A4000E66EE66A4A51E66EE66ACE0E2B6E2F0EF1
:102A50002C6E2D6A2BC0E6FF2CC0E6FF2DC0E6FFD2
:102A6000A1EC33F0F56E070EE15EF55002014B511B
:102A7000E66EE66A4B51E66EE66AAF0E2B6E2F0EDF
:102A80002C6E2D6A2BC0E6FF2CC0E6FF2DC0E6FFA2
:102A9000A1EC33F0F56E070EE15EF55002014C51EA
:102AA000E66EE66A4C51E66EE66A900E2B6E2F0ECD
:102AB0002C6E2D6A2BC0E6FF2CC0E6FF2DC0E6FF72
:102AC000A1EC33F0F56E070EE15EF55002014D51B9
:102AD000E66EE66A4D51E66EE66A710E2B6E2F0EBB
:102AE0002C6E2D6A2BC0E6FF2CC0E6FF2DC0E6FF42
:102AF000A1EC33F0F56E070EE15EF55002014E5188
:102B0000E66EE66A4E51E66EE66A520E2B6E2F0EA8
:102B10002C6E2D6A2BC0E6FF2CC0E6FF2DC0E6FF11
:102B2000A1EC33F0F56E070EE15EF55002014F5156
:102B3000E66EE66A4F51E66EE66A330E2B6E2F0E96
:102B40002C6E2D6A2BC0E6FF2CC0E6FF2DC0E6FFE1
:102B5000A1EC33F0F56E070EE15EF5500201505125
:102B6000E66EE66A5051E66EE66A130E2B6E2F0E85
:102B70002C6E2D6A2BC0E6FF2CC0E6FF2DC0E6FFB1
:102B8000A1EC33F0F56E070EE15EF55002015151F4
:102B9000E66EE66A5151E66EE66AF30E2B6E2E0E75
:102BA0002C6E2D6A2BC0E6FF2CC0E6FF2DC0E6FF81
:102BB000A1EC33F0F56E070EE15EF55002015251C3
:102BC000E66EE66A5251E66EE66AD30E2B6E2E0E64
:102BD0002C6E2D6A2BC0E6FF2CC0E6FF2DC0E6FF51
:102BE000A1EC33F0F56E070EE15EF5500201535192
:102BF000E66EE66A5351E66EE66AB30E2B6E2E0E53
:102C00002C6E2D6A2BC0E6FF2CC0E6FF2DC0E6FF20
:102C1000A1EC33F0F56E070EE15EF5500201545160
:102C2000E66EE66A5451E66EE66A930E2B6E2E0E41
:102C30002C6E2D6A2BC0E6FF2CC0E6FF2DC0E6FFF0
:102C4000A1EC33F0F56E070EE15EF550020155512F
:102C5000E66EE66A5551E66EE66A730E2B6E2E0E30
:102C60002C6E2D6A2BC0E6FF2CC0E6FF2DC0E6FFC0
:102C7000A1EC33F0F56E070EE15EF550030E2B6EFE
:102C8000310E2C6E2D6A2BC0E6FF2CC0E6FF2DC046
:102C9000E6FFA1EC33F0E552E552E5525E0E2B6EF5
:102CA0002E0E2C6E2D6A2BC0E6FF2CC0E6FF2DC029
:102CB000E6FFA1EC33F0E552E552E552440E2B6EEF
:102CC0002E0E2C6E2D6A2BC0E6FF2CC0E6FF2DC009
:102CD000E6FFA1EC33F0E552E552E552310E2B6EE2
:102CE0002E0E2C6E2D6A2BC0E6FF2CC0E6FF2DC0E9
:102CF000E6FFA1EC33F0E552E552E552260E2B6ECD
:102D00002E0E2C6E2D6A2BC0E6FF2CC0E6FF2DC0C8
:102D1000E6FFA1EC33F0E552E552E552030E2B6ECF
:102D2000310E2C6E2D6A2BC0E6FF2CC0E6FF2DC0A5
:102D3000E6FFA1EC33F0E552E552E5521200D9CF9F
:102D4000E6FFE1CFD9FF050EE126030EDB6A040E94
:102D5000DB6A0101420E886F500E896FDE6ADD6A00
:102D6000DECF2BF0DDCF2CF0150E2B5C000E2C5897
:102D700034E2DECFE9FFDDCFEAFF880EE926010E5F
:102D8000EA22020EEFCFDBFFDBCFE6FFFD0EDBCF4B
:102D90002DF0FE0EDBCF2EF0DE502D242B6EDD50FD
:102DA0002E202C6E2BC0E6FF2CC0E6FFF0EC31F09D
:102DB000E552E552E552020EDB502B6E2C6AD950DB
:102DC000030FE96EDACFEAFF2B50EE262C50ED22EE
:102DD000DF2A010E01E3DB2AC3D7030EDBCFE6FFB8
:102DE000160EE76EFD0EDBCF2BF0FE0EDBCF2CF0C8
:102DF000E7502B26000E2C222B062C5A2BC0E6FF68
:102E00002CC0E6FFF0EC31F0E552E552E552F56EEC
:102E1000050EE15C02E2E16AE552E16EF550E55231
:062E2000E7CFD9FF12000C
:0A2E26005B785D20457869740D0AA1
:102E3000005B775D2053617665206368616E67652E
:102E4000730D0A005B765D204C6F616420646566DB
:102E500061756C742076616C7565730D0A005B7525
:102E60005D20526573746172742063616D65726177
:102E70000D0A005B735D204368616E676520434FF8
:102E80004D4A203D2025752028307825303258299C
:102E90000D0A005B725D204368616E6765204548DE
:102EA000534C203D20257520283078253032582974
:102EB0000D0A005B715D204368616E6765204548BF
:102EC0005348203D20257520283078253032582958
:102ED0000D0A005B705D204368616E676520434F9B
:102EE0004D49203D2025752028307825303258293D
:102EF0000D0A005B6F5D204368616E676520434F7C
:102F00004D42203D20257520283078253032582923
:102F10000D0A005B6E5D204368616E676520434F5C
:102F20004D41203D20257520283078253032582904
:102F30000D0A005B6D5D204368616E676520414549
:102F400043203D2025752028307825303258290D22
:102F50000A005B6C5D204368616E676520425254D5
:102F6000203D2025752028307825303258290D0A3B
:102F7000005B6B5D204368616E67652053415420A0
:102F80003D2025752028307825303258290D0A003B
:102F90005B6A5D204368616E676520524544203D51
:102FA0002025752028307825303258290D0A005BFD
:102FB000695D204368616E676520424C55203D2065
:102FC00025752028307825303258290D0A005B6895
:102FD0005D204368616E676520414743203D2025A1
:102FE000752028307825303258290D0A000D0A4105
:102FF0006476616E636564206F7074696F6E733A96
:103000000D0A005B675D204368616E6765204E4670
:10301000203D2025752028307825303258290D0A8A
:10302000005B665D204368616E676520425F4D61AD
:1030300078203D2025752028307825303258290DFC
:103040000A005B655D204368616E676520425F4DE5
:10305000696E203D2025752028307825303258298A
:103060000D0A005B645D204368616E676520475F01
:103070004D6178203D202575202830782530325844
:10308000290D0A005B635D204368616E6765204718
:103090005F4D696E203D202575202830782530321F
:1030A00058290D0A005B625D204368616E676520E8
:1030B000525F4D6178203D202575202830782530DD
:1030C0003258290D0A005B615D204368616E6765B7
:1030D00020525F4D696E203D2025752028307825CF
:1030E000303258290D0A000D0A43616C6962726121
:1030F00074696F6E20706172616D65746572733A88
:103100000D0A000D0A000D0A52657374617274692C
:103110006E672043616D6572612E2E2E0D0A00448C
:103120006F6E650D0A000D0A536176696E67207433
:103130006F20454550524F4D2E2E2E000D0A4572E0
:10314000726F723A204E756D626572206F757420D1
:103150006F662072616E67652E0D0A000D0A456E5E
:10316000746572206E65772076616C7565202870B5
:103170007265636565642068657861646563696D1F
:10318000616C206E756D626572732077697468205A
:103190003078293A20004E6F2063616D657261209E
:1031A000646174612E2E2E0D0A00436F6E66696491
:1031B000656E63652028506978656C732920203D11
:1031C0002025750D0A0020426C6F622053697A65D4
:1031D0002028506978656C732920203D2025750DC5
:1031E0000A0054696C74204572726F72202850690D
:1031F00078656C732920203D2025640D0A0020503D
:10320000616E204572726F722028506978656C7308
:103210002920203D2025640D0A0054696C7420414A
:103220006E676C6520286465677265657329203D4B
:103230002025640D0A002050616E20416E676C6588
:1032400020286465677265657329203D2025640D1B
:103250000A000D0A00536561726368696E672E2E5D
:103260002E0D0A005B705D2052657475726E2054DD
:103270006F204D61696E20547261636B696E6720C7
:103280004D656E750D0A005B6F5D20446973706C4F
:1032900061792043757272656E742050574D2056C7
:1032A000616C7565730D0A005B6E5D20536574205B
:1032B00054696C74204D61782050574D2056616CD4
:1032C00075650D0A005B6D5D205365742054696C53
:1032D000742043656E7465722050574D2056616CA2
:1032E00075650D0A005B6C5D205365742054696C34
:1032F00074204D696E2050574D2056616C75650DD8
:103300000A005B6B5D2054696C7420446F776E20FB
:1033100054656E2053746570730D0A005B6A5D20FE
:1033200054696C7420446F776E204F6E652053741F
:1033300065700D0A005B695D2054696C74205570DE
:103340002054656E2053746570730D0A005B685DD0
:103350002054696C74205570204F6E65205374653D
:10336000700D0A005B675D205365742050616E200C
:103370004D61782050574D2056616C75650D0A00DF
:103380005B665D205365742050616E2043656E74EA
:1033900065722050574D2056616C75650D0A005BB3
:1033A000655D205365742050616E204D696E20501C
:1033B000574D2056616C75650D0A005B645D2050A9
:1033C000616E2052696768742054656E205374657D
:1033D00070730D0A005B635D2050616E2052696757
:1033E0006874204F6E6520537465700D0A005B622F
:1033F0005D2050616E204C6566742054656E2053CC
:10340000746570730D0A005B615D2050616E204C25
:10341000656674204F6E6520537465700D0A005BFD
:10342000785D20457869740D0A005B775D205361F3
:103430007665206368616E6765730D0A005B765D73
:10344000204C6F61642064656661756C74207661E0
:103450006C7565730D0A005B755D20496E7465724D
:103460006163746976652050574D2041646A7573B5
:10347000746D656E74204D656E750D0A005B725D2E
:10348000204368616E676520436F6E666964656E90
:103490006365205468726573686F6C64203D2025F5
:1034A000750D0A005B715D204368616E676520538E
:1034B00065617263682044656C6179203D202575E3
:1034C0000D0A005B705D204368616E67652054697A
:1034D0006C742054617267657420506978656C2043
:1034E0003D2025750D0A005B6F5D204368616E67A6
:1034F000652054696C74205365617263682053744D
:1035000065702053697A65203D2025750D0A005BA2
:103510006E5D204368616E67652054696C7420524B
:103520006F746174696F6E205369676E203D20254A
:103530002B640D0A005B6D5D204368616E6765203A
:1035400054696C7420416C6C6F7761626C652045C6
:1035500072726F72203D2025750D0A005B6C5D2034
:103560004368616E67652054696C74204761696EB9
:10357000203D2025750D0A005B6B5D204368616E60
:1035800067652054696C74204D61782050574D2038
:103590003D2025750D0A005B6A5D204368616E67FA
:1035A000652054696C742043656E746572205057B1
:1035B0004D203D2025750D0A005B695D2043686143
:1035C0006E67652054696C74204D696E2050574DAC
:1035D000203D2025750D0A005B685D204368616E03
:1035E00067652050616E2054617267657420506970
:1035F00078656C203D2025750D0A005B675D2043D2
:1036000068616E67652050616E2053656172636802
:1036100020537465702053697A65203D2025750D0F
:103620000A005B665D204368616E67652050616ECD
:1036300020526F746174696F6E205369676E203D0C
:1036400020252B640D0A005B655D204368616E6771
:10365000652050616E20416C6C6F7761626C6520F3
:103660004572726F72203D2025750D0A005B645D06
:10367000204368616E67652050616E204761696E06
:10368000203D2025750D0A005B635D204368616E57
:1036900067652050616E204D61782050574D203D68
:1036A0002025750D0A005B625D204368616E6765C9
:1036B0002050616E2043656E7465722050574D2016
:1036C0003D2025750D0A005B615D204368616E67D2
:1036D000652050616E204D696E2050574D203D2071
:1036E00025750D0A00446F6E650D0A000D0A5361C1
:1036F00076696E6720746F20454550524F4D2E2ECF
:103700002E0054696C74203D2025750050616E2098
:103710003D2025750D0A000D0A000D0A4572726FD5
:10372000723A204E756D626572206F7574206F66F7
:103730002072616E67652E0D0A000D0A456E746574
:0E37400072206E65772076616C75653A200008
:02374E00D9CFD1
:10375000E6FFE1CFD9FF040EE12602018F510BE114
:10376000F6D8DF6EDF0404E10201010E8F6F03D093
:10377000DF50010800E2A4DBE76E010EE7CFDBFFBC
:10378000DB50000817E2030EDB6A010EDB50F36E1C
:10379000030EDBCFF4FFF350F45C0CE295DBE76E35
:1037A000020EE7CFDBFFDBCFE6FF10D8E552030EBA
:1037B000DB2AEBD7F56E040EE15C02E2E16AE5522A
:1037C000E16EF550E552E7CFD9FF1200D9CFE6FF01
:1037D000E1CFD9FF02019651060A01E18FD0030A19
:1037E00068E0060A34E0010A25E0030A01E0ABD0F4
:1037F000FE0EDB502B6E2C6AFF0E2B1801E12C50B5
:1038000003E1020E966F15D0FE0EDB50410807E172
:103810000101020EC16F0201050E966F0AD0FE0E65
:10382000DB504E0806E10101020EC16F0201060ED7
:10383000966F89D0FE0EDB50540806E10101C06B83
:103840000201030E966F02D0010E966F7CD001012B
:10385000C0512B6E2C6A080E2B5C000E2C580AE20D
:10386000C051EA6A9E0FE96E010EEA22FE0EDBCF1E
:10387000EFFFC02BC0512B6E2C6A080E2B1801E1F4
:103880002C5016E19EC180F19FC181F1A0C182F14F
:10389000A1C183F1A2C184F1A3C185F1A4C186F1C4
:1038A000A5C187F10201902B000E9123010E966FA6
:1038B0004AD0020E0101C15D06E1FE0EDB50430855
:1038C00002E1C12B1AD0030EC15D06E1FE0EDB50F2
:1038D0004B0802E1C12B11D0040EC15D0BE1FE0EBD
:1038E000DB500D0807E10201922B000E9323010E1D
:1038F000966F03D00201010E966F25D0020E0101D2
:10390000C15D06E1FE0EDB50430802E1C12B1AD077
:10391000030EC15D06E1FE0EDB504B0802E1C12B38
:1039200011D0040EC15D0BE1FE0EDB500D0807E166
:103930000201942B000E9523010E966F03D0020115
:10394000010E966F00D0E552E7CFD9FF1200D9CF14
:10395000E6FFE1CFD9FFE6520201970507E14FDA12
:10396000050EE66E58DAE5520201976B98050DE1F7
:10397000986B0101C36B010EC26FC46BC56BC66B44
:103980000201926B936B946B956B0101C30529E166
:103990000201010E925D000E935905E30101C36B14
:1039A000C46BC56B1DD0010E945D000E955904E3E8
:1039B0000101C205C66F14D001010A0EC45D000EDC
:1039C000C5590BE3800EC2252B6E2C6A000E2C22EB
:1039D0002B062C5A2BC0C6F103D0C42B000EC523D6
:1039E00022D10201926B936B946B956B0101C251D2
:1039F000120A01E115D1030A01E1FBD0010A01E13C
:103A0000EED01F0A01E1DED0010A01E1CED0030AA7
:103A100001E1BED0010A01E1AED0070A01E19ED06A
:103A2000010A01E18FD0030A01E17FD0010A70E0B1
:103A30000F0A61E0010A52E0030A43E0010A34E0A0
:103A4000070A25E0010A1FE0030A01E0ECD0E66A5C
:103A5000000EE66EE66AF5D8E552E552E552DF6EF5
:103A6000DF5001E10AD0DF0401E107D0020EDF5C84
:103A700001E103D0030EDF5C00E1C1D90101020EB8
:103A8000C26FC36BD0D0030EC26FC36BCCD099C1D1
:103A9000E6FF290EE66EF6D9E552E5520101040E65
:103AA000C26F010EC36FBFD098C1E6FF130EE66E62
:103AB000E9D9E552E5520101050EC26F010EC36F4F
:103AC000B2D09CC1E6FF2D0EE66EDCD9E552E55280
:103AD0000101060EC26F010EC36FA5D09AC1E6FFA9
:103AE0002A0EE66ECFD9E552E5520101070EC26FEC
:103AF000010EC36F98D09BC1E6FF2B0EE66EC2D9B4
:103B0000E552E5520101080EC26F010EC36F8BD062
:103B10009CC1E6FF2D0EE66EB5D9E552E5520101D6
:103B2000090EC26F010EC36F7ED097C1E6FF120E61
:103B3000E66EA8D9E552E55201010A0EC26F010EE8
:103B4000C36F71D091C1E6FFE66A9CD9E552E55298
:103B500001010B0EC26F010EC36F65D092C1E6FF6B
:103B6000010EE66E8FD9E552E55201010C0EC26FCF
:103B7000010EC36F58D093C1E6FF020EE66E82D9E4
:103B8000E552E55201010D0EC26F010EC36F4BD01D
:103B900094C1E6FF030EE66E75D9E552E5520101C8
:103BA0000E0EC26F010EC36F3ED095C1E6FF060E2A
:103BB000E66E68D9E552E55201010F0EC26F010EA3
:103BC000C36F31D096C1E6FF100EE66E5BD9E552A9
:103BD000E5520101100EC26F010EC36F24D090C1D7
:103BE000E6FF37D9E5520101110EC26F010EC36F16
:103BF0001AD08FC1E6FF8EC1E6FF8DC1E6FF8CC1F2
:103C0000E6FF8BC1E6FF8AC1E6FFC7D8F56E060E58
:103C1000E15EF5500101120EC26F010EC36F03D0B9
:103C2000010EC66F00D0C651000803E20201010E6A
:103C3000986F0101C65100D0E552E552E7CFD9FF98
:103C40001200D9CFE6FFE1CFD9FF060EE126FC0E28
:103C5000DB5065E1020EDB6A030EDB6ADF6ADF50D0
:103C60002B6E2C6A160E2B5C000E2C5838E2DF509F
:103C7000E76EFD0EDBCF2BF0FE0EDBCF2CF0E75016
:103C80002B26000E2C222BC0E6FF2CC0E6FFD6EC24
:103C900031F0E552E552E76E010EE7CFDBFFDF5072
:103CA000EA6A880FE96E010EEA22010EDBCFEFFF10
:103CB000DF502B6E2C6A150E2B5C000E2C580DE27B
:103CC000010EDB502B6E2C6AD950020FE96EDACF51
:103CD000EAFF2B50EE262C50ED22DF2AC0D7420EF1
:103CE0000101885D14E1500E895D11E1020EDB5087
:103CF0009D5D05E1040EDB6A050EDB6A07D0010E4F
:103D0000F36E040EF3CFDBFF050EDB6A07D0020E65
:103D1000F36E040EF3CFDBFF050EDB6A07D0030E54
:103D2000F36E040EF3CFDBFF050EDB6AD950040FF0
:103D3000E96EDACFEAFFEE50ED1020E00101550EFA
:103D40008A6F730E8B6F0F0E8C6F110E8D6F640E5A
:103D50008E6F910E8F6F906B916B800E926F936F41
:103D6000946F010E956F966F200E976F986F800E6F
:103D7000996F9A6F200E9B6F840E9C6F040EDB5020
:103D8000F56E060EE15C03E200D0E16AE552E16EF9
:103D9000F550E552E7CFD9FF1200D9CFE6FFE1CFCA
:103DA000D9FF540EE66E94D8E552430EE66E90D8D5
:103DB000E552060EE66E8CD8E552FE0EDBCFE6FF2E
:103DC00087D8E552FD0EDBCFE6FF82D8E552FC0E28
:103DD000DBCFE6FF7DD8E552FB0EDBCFE6FF78D8E0
:103DE000E552FA0EDBCFE6FF73D8E552F90EDBCFD2
:103DF000E6FF6ED8E552E552E7CFD9FF12000D0E6F
:103E0000E66E66D8E552120002018F6B12000201C5
:103E10008F5100D01200D9CFE6FFE1CFD9FF520E6B
:103E2000E66E56D8E5524D0EE66E52D8E552200E9B
:103E3000E66E4ED8E552FE0EDB50300FE66E48D8E7
:103E4000E5520D0EE66E44D8E552E552E7CFD9FFB4
:103E50001200D9CFE6FFE1CFD9FF4E0EE66E38D87B
:103E6000E552460EE66E34D8E552010EE66E30D8C5
:103E7000E552FE0EDBCFE6FF2BD8E552E552E7CF49
:103E8000D9FF1200D9CFE6FFE1CFD9FF430EE66E8E
:103E90001FD8E552520EE66E1BD8E552020EE66EB2
:103EA00017D8E552FE0EDBCFE6FF12D8E552FD0E25
:103EB000DBCFE6FF0DD8E552E552E7CFD9FF120080
:103EC00093EC2EF000D01200C9EC2EF000D01200BE
:103ED000D9CFE6FFE1CFD9FFFE0EDBCFE6FF10EC36
:103EE0002FF0E552E552E7CFD9FF120083EC2EF018
:103EF00000D01200A3EC2EF000D01200D9CFE6FFC4
:103F0000E1CFD9FFFE0EDBCFE6FFEFEC2EF0E5525E
:083F1000E552E7CFD9FF1200D2
:083F1800D9CFE6FFE1CFD9FF8C
:103F20000A0EE126020199510FE1010E996FCBDAD9
:103F300064C276F26CC277F276C2E6FFAFDBE5527E
:103F400077C2E6FFB6DBE55202019B5102019019F0
:103F500004E102019C510201911901E1A8D290C231
:103F60009BF291C29CF202019A6B02017451010111
:103F7000875D01E2F3D10201010E9D6F9A6F02018C
:103F80007651DE6EDD6A010180512D6E2E6A0201CE
:103F90006A512F6E306A2F502D5C2B6E30502E5888
:103FA0002C6E060E2BC0DBFF070E2CC0DBFF060EAF
:103FB000DBCF2BF0070EDBCF2CF067512D6E2E6A76
:103FC0002E502C18E8AE02D02C3404D02B502D5C8F
:103FD0002C502E5825E266512B6E2C6A060EDBCF34
:103FE0001DF0070EDBCF1EF02BC022F02CC023F0FB
:103FF00068EC2BF0040E1DC0DBFF050E1EC0DBFFBE
:10400000D950040FE96EDACFEAFFEE50ED1007E168
:10401000010EF36E040EF3CFDBFF050EDB6A4AD010
:10402000060EDBCF2BF0070EDBCF2CF067512F6E87
:10403000306A1D681E682FC022F030C023F08EEC5D
:104040002BF01BC02DF01CC02EF02C502E18E8AE0B
:1040500002D02E3404D02D502B5C2E502C5823E24D
:10406000020166512B6E2C6A060EDBCF1DF0070E87
:10407000DBCF1EF02BC022F02CC023F068EC2BF01D
:10408000040E1DC0DBFF050E1EC0DBFFD950040F60
:10409000E96EDACFEAFFEE50ED1004E1040EDB68C2
:1040A000050EDB6807D0040EDB6A050EDB6A020E24
:1040B00002019A2768C22DF02E6A2DBE2E682DC0EF
:1040C0001DF02EC01EF0040EDBCF22F0050EDBCF5C
:1040D00023F08EEC2BF01BC02BF01CC02CF0D9CFA2
:1040E000E9FFDACFEAFF2B50EE262C50ED22DECF8F
:1040F0002BF0DDCF2CF00201635100012CAE02D079
:10410000D89003D02B5C000E2C5805E202016351BD
:10411000DE6EDD6A16D0DECF2BF0DDCF2CF0020193
:1041200065512D6E2E6A2E502C18E8AE02D02C341C
:1041300004D02B502D5C2C502E5803E26551DE6EBE
:10414000DD6ADFCF76F276C2E6FFA8DAE552020139
:104150007751E66ED950020FE96EDACFEAFFE552E9
:10416000E750EE6EED6A010181512D6E2E6A02015B
:1041700072512F6E306A2F502D5C2B6E30502E589E
:104180002C6E080E2BC0DBFF090E2CC0DBFF080EC7
:10419000DBCF2BF0090EDBCF2CF06F512D6E2E6A8A
:1041A0002E502C18E8AE02D02C3404D02B502D5CAD
:1041B0002C502E5825E26E512B6E2C6A080EDBCF48
:1041C0001DF0090EDBCF1EF02BC022F02CC023F017
:1041D00068EC2BF0040E1DC0DBFF050E1EC0DBFFDC
:1041E000D950040FE96EDACFEAFFEE50ED1007E187
:1041F000010EF36E040EF3CFDBFF050EDB6A4AD02F
:10420000080EDBCF2BF0090EDBCF2CF06F512F6E99
:10421000306A1D681E682FC022F030C023F08EEC7B
:104220002BF01BC02DF01CC02EF02C502E18E8AE29
:1042300002D02E3404D02D502B5C2E502C5823E26B
:1042400002016E512B6E2C6A080EDBCF1DF0090E99
:10425000DBCF1EF02BC022F02CC023F068EC2BF03B
:10426000040E1DC0DBFF050E1EC0DBFFD950040F7E
:10427000E96EDACFEAFFEE50ED1004E1040EDB68E0
:10428000050EDB6807D0040EDB6A050EDB6A040E40
:1042900002019A2770C22DF02E6A2DBE2E682DC005
:1042A0001DF02EC01EF0040EDBCF22F0050EDBCF7A
:1042B00023F08EEC2BF01BC02BF01CC02CF0D9503F
:1042C000020FE96EDACFEAFF2B50EE262C50ED22DA
:1042D000020EDBCF2BF0030EDBCF2CF002016B5173
:1042E00000012CAE02D0D89003D02B5C000E2C58CD
:1042F0000DE202016B51E66ED950020FE96EDACF82
:10430000EAFFE552E750EE6EED6A20D0020EDBCFF9
:104310002BF0030EDBCF2CF002016D512D6E2E6AB7
:104320002E502C18E8AE02D02C3404D02B502D5C2B
:104330002C502E580BE26D51E66ED950020FE96EEB
:10434000DACFEAFFE552E750EE6EED6A020EDBCF00
:1043500077F277C2E6FFADD9E552A9D002019E2BD4
:10436000020173510201D8809E5501E3A0D09E6BDB
:104370009D0511E19D6B02016351DE6EDD6A6C519A
:10438000E66ED950020FE96EDACFEAFFE552E75048
:10439000EE6EED6A7FD002017651DE6EDD6A7751F6
:1043A000E66ED950020FE96EDACFEAFFE552E75028
:1043B000EE6EED6ADECF2BF0DDCF2CF06551000103
:1043C0002CAE02D0D89003D02B5C000E2C584BE3BF
:1043D00002016351DE6EDD6A020EDBCF2BF0030EAD
:1043E000DBCF2CF06D5100012CAE02D0D89003D061
:1043F0002B5C000E2C580DE302016B51E66ED95078
:10440000020FE96EDACFEAFFE552E750EE6EED6A91
:1044100029D0020171512B6E2C6AD950020FE96E1E
:10442000DACFEAFF2B50EE262C50ED22020EDBCF26
:104430002BF0030EDBCF2CF06D5100012CAE02D01F
:10444000D89003D02B5C000E2C580CE302016D5168
:10445000E66ED950020FE96EDACFEAFFE552E75077
:10446000EE6EED6A17D002016951DE26000EDD22E4
:10447000DECF2BF0DDCF2CF0655100012CAE02D049
:10448000D89003D02B5C000E2C5804E30201655138
:10449000DE6EDD6ADFCF76F2020EDBCF77F276C218
:1044A000E6FFFCD8E55277C2E6FF03D9E552F56E88
:1044B0000A0EE15C02E2E16AE552E16EF550E55276
:1044C000E7CFD9FF1200D9CFE6FFE1CFD9FFE652FF
:1044D000E66A200EE66EE66A16D8E552E552E55227
:1044E000DF6EDF5001E10AD0DF0401E107D0020EE8
:1044F000DF5C01E103D0030EDF5C00E1E552E55231
:10450000E7CFD9FF1200D9CFE6FFE1CFD9FF060EE2
:10451000E126FC0EDB5065E1020EDB6A030EDB6A6E
:10452000DF6ADF502B6E2C6A150E2B5C000E2C58A8
:1045300038E2DF50E76EFD0EDBCF2BF0FE0EDBCF57
:104540002CF0E7502B26000E2C222BC0E6FF2CC0AF
:10455000E6FFD6EC31F0E552E552E76E010EE7CF0B
:10456000DBFFDF50EA6A610FE96E020EEA22010EFC
:10457000DBCFEFFFDF502B6E2C6A140E2B5C000E8E
:104580002C580DE2010EDB502B6E2C6AD950020F15
:10459000E96EDACFEAFF2B50EE262C50ED22DF2A0F
:1045A000C0D7470E0201615D14E14B0E625D11E15F
:1045B000020EDB50755D05E1040EDB6A050EDB6A59
:1045C00007D0010EF36E040EF3CFDBFF050EDB6A9E
:1045D00007D0020EF36E040EF3CFDBFF050EDB6A8D
:1045E00007D0030EF36E040EF3CFDBFF050EDB6A7C
:1045F000D950040FE96EDACFEAFFEE50ED1023E058
:104600000201636B7C0E646FF80E656F030E666FBC
:10461000060E676F68693E0E696F4F0E6A6F5E0E19
:104620006B6F900E6C6FC20E6D6F080E6E6F060E84
:104630006F6F010E706F320E716F770E726F060E14
:10464000736F140E746F040EDB50F56E060EE15C92
:1046500003E200D0E16AE552E16EF550E552E7CFA2
:10466000D9FF1200D9CFE6FFE1CFD9FFE652020110
:104670009A5102E1DF6A0BD0070E9A5D03E2010E48
:10468000DF6E05D0070E9A5D02E1020EDF6EDF508D
:1046900000D0E552E552E7CFD9FF1200D9CFE6FFAF
:1046A000E1CFD9FFFE0EDBCF04F2E552E7CFD9FF11
:1046B0001200D9CFE6FFE1CFD9FFFE0EDBCF05F226
:0846C000E552E7CFD9FF12001B
:0846C800D9CFE6FFE1CFD9FFD5
:1046D000FE0EDB5011E1FC0EDBCFE9FFFD0EDBCF60
:1046E000EAFFEF507F0808E2FC0EDBCFE9FFFD0E8A
:1046F000DBCFEAFF7F0EEF6EE552E7CFD9FF120066
:10470000D9CFE6FFE1CFD9FFFE0EDB5013E1FC0E5F
:10471000DBCFE9FFFD0EDBCFEAFFEFCF2BF07F0E03
:104720002B5C08E2FC0EDBCFE9FFFD0EDBCFEAFFDE
:104730007F0EEF6EE552E7CFD9FF1200D9CFE6FF2B
:10474000E1CFD9FFFD0EDBCF2BF0FE0EDBCF2CF03F
:10475000D8902C5004E6D00E2B5C070E2C5806E2A5
:104760000201D00EB36F070EB46F19D0FD0EDBCF70
:104770002BF0FE0EDBCF2CF02C3404E22B50CE08B5
:10478000080E2C5406E20201CE0EB36F080EB46F71
:1047900006D0FD0EDBCFB3F2FE0EDBCFB4F2B3C218
:1047A0002BF0B4C22CF0D00E2B5E070E2C5A2B50DF
:1047B00000D0E552E7CFD9FF1200F00EE66E82EC92
:1047C00031F0E552938A93889386938499829980F5
:1047D000938E938C9A849A82998699849A8A9A88DD
:1047E00094809A869A8E9A9C919C02017F0E0B6F00
:1047F0000BC20AF20BC209F20BC208F20BC207F29B
:104800000BC206F20BC205F20BC204F2136F13C205
:1048100012F213C211F213C210F213C20FF213C23A
:104820000EF213C20DF213C20CF2000EE66EE66A2F
:10483000E66EE66AE66EE66AE66EE66A68EC28F020
:10484000F56E080EE15EF55051EC2EF06AEC2EF09C
:104850000101010EE76F000EE66E020EE66E26EC19
:1048600028F0E552E552ADEF27F0D9CFE6FFE1CFD2
:10487000D9FF020EE126200EE66E020EE66E0DEC6A
:1048800028F0E552E5520201B15104E1B25102E1D2
:10489000BBEC2FF0A7EC1BF00201B25102E18CEC53
:1048A0001FF032EC23F0020803E10201018502D07F
:1048B000020101950201B10505E18AEC11F0020146
:1048C000B16F17D0B20505E14CEC04F00201B26FF4
:1048D00010D07AEC1FF0DF6E630EDF5C04E10201A2
:1048E000010EB16F06D0740EDF5C03E10201010E10
:1048F000B26F26EC32F013C2E6FF12C2E6FF11C21D
:10490000E6FF10C2E6FFD5EC2DF0E552E552E55288
:10491000E552000EE66E020EE66E26EC28F0E55239
:10492000E552F56E020EE15C02E2E16AE552E16EEB
:10493000F550E552E7CFD9FF120026C204F227C294
:1049400005F228C206F229C207F22AC208F22BC2D7
:1049500009F22CC20AF22DC20BF22EC20CF22FC2A7
:104960000DF230C20EF231C20FF2020126512E6A50
:10497000D00F2D6E070E2E222A5100012D242B6EF2
:10498000000E2E202C6E7F0E2B5E000E2C5A2BC09C
:10499000E6FF2CC0E6FFD2DEE552E5520201116FC0
:1049A000106F020126512E6AD00F2D6E070E2E2297
:1049B0002A512F6E306A2F502D5C2B6E30502E589E
:1049C0002C6E7F0E2B26000E2C222BC0E6FF2CC057
:1049D000E6FFB4DEE552E5520201136F126F81501B
:1049E000040B01E0010E2B6E02012251010B2B146E
:1049F000E8B08D80E8A08D908150080B01E0010E99
:104A00002B6E2251020B01E0010E2B14E8B08C80BA
:104A1000E8A08C908150100B01E0010E2B6E235109
:104A2000010B2B14E8B08D82E8A08D928150200BF1
:104A300001E0010E2B6E2351020B01E0010E2B143D
:104A4000E8B08C82E8A08C922251100B02E08D8499
:104A500001D08D942251200B02E08C8401D08C94E3
:104A60002351100B02E08D8601D08D962351200B2F
:104A700002E08C8601D08C962251040B02E08D88D6
:104A800001D08D982251080B02E08C8801D08C98BF
:104A90002251400B02E08D8A01D08D9A2251800B69
:104AA00002E08C8A01D08C9A2351400B02E08D8C5D
:104AB00001D08D9C2351800B02E08C8C01D08C9C0A
:104AC0008850800B02E0919001D091808C9E060E60
:104AD000E66E020EE66E8150400B01E0010EE66EBE
:104AE000F3DDE552E552E552060EE66E020EE66E85
:104AF0008150800B01E0010EE66E02DEE552E552C8
:104B0000E552070EE66E020EE66E8750010BE66E6A
:104B1000DBDDE552E552E552070EE66E020EE66E6B
:104B20008750020B01E0010EE66EEADDE552E55228
:104B3000E5520C0EE66E020EE66E8750040B01E0A5
:104B4000010EE66EC1DDE552E552E5520C0EE66E51
:104B5000020EE66E8750080B01E0010EE66ED0DD16
:104B6000E552E552E5520D0EE66E020EE66E8850F5
:104B7000020B01E0010EE66EA7DDE552E552E552BB
:104B80000D0EE66E020EE66E8850040B01E0010E7B
:104B9000E66EB6DDE552E552E5520E0EE66E020E09
:104BA000E66E8850080B01E0010EE66E8DDDE552E1
:104BB000E552E5520E0EE66E020EE66E8250010BD5
:104BC000E66E9EDDE552E552E5520F0EE66E020EF0
:104BD000E66E8850100B01E0010EE66E75DDE552C1
:104BE000E552E5520F0EE66E020EE66E8850200B7F
:104BF00001E0010EE66E84DDE552E552E552020168
:104C000021BBB1D0000E265D07E32651380804E32E
:104C10000201009100832DD07D0E265D0EE326510A
:104C20002B6E2C6A2C3404E22B508108000E2C547D
:104C300004E30201008100831CD026512B6E2C6AF4
:104C4000D8902C5004E6D80E2B5C000E2C580EE3A6
:104C500026512D6E2E6A2E3404E22D50FF08000ED0
:104C60002E5404E302010081009303D0020100915D
:104C70000093000E0201275D07E32751380804E383
:104C80000201009500872DD07D0E275D0EE3275190
:104C90002B6E2C6A2C3404E22B508108000E2C540D
:104CA00004E30201008500871CD027512B6E2C6A7B
:104CB000D8902C5004E6D80E2B5C000E2C580EE336
:104CC00027512D6E2E6A2E3404E22D50FF08000E5F
:104CD0002E5404E302010085009703D002010095E1
:104CE0000097009B8D50010B01E0008B00998C50C8
:104CF000010B01E00089009F8D50020B01E0008F45
:104D0000009D8C50020B01E0008D8150040B01E0EE
:104D1000010E2B6E2C6A2B502C1002E0000E01D0DD
:104D2000010E0191E8B001818150080B01E0010EF4
:104D30002B6E2C6A2B502C1002E0000E01D0010EBD
:104D40000193E8B001838150100B01E0010E2B6E3E
:104D50002C6A2B502C1002E0000E01D0010E0195A0
:104D6000E8B0018552D037C21EF097EC2AF01CC083
:104D700033F01DC034F01EC035F01FC036F0710E88
:104D8000216E3D0E226E7A0E236E410E246E33C0CC
:104D90001CF034C01DF035C01EF036C01FF0FBEC17
:104DA0002AF01CC02FF01DC030F01EC031F01FC013
:104DB00032F0216A226A800E236E430E246E2FC0C9
:104DC0001CF030C01DF031C01EF032C01FF0A8EC46
:104DD0002AF01CC02BF01DC02CF01EC02DF01FC0EF
:104DE0002EF0216A226A200E236E410E246E2BC003
:104DF0001CF02CC01DF02DC01EF02EC01FF0FBECCF
:0C4E00002AF0D9EC2BF01EC000F21200CA
:044E0C00DACFE4FF16
:104E1000E2CFDAFFE9CFE4FFEACFE4FFE652F2A205
:104E200002D0A0D802D09EB6CCD8E552E5CFEAFF9A
:104E3000E5CFE9FFE5CFDAFF1100E66A010EE66E85
:104E4000050EE66ED0EC34F0E552E552E552120064
:104E5000070EB46E000E886E876E866E856E846E49
:104E6000836E826E816E806E916E906E8F6E8E6E8E
:104E70008D6E8C6E8B6E8A6E896E2F0E926EFD0E0D
:104E8000936E9C0E946E956A966A9768040E986E5F
:104E90000E0E9A6E9968C16AF19EB0989C8EA26AB5
:104EA0009F6AA06A9D6AA36AA56AC7DF9F86D08EA3
:104EB0009E969D86F06AF288F09EF098F192F09AA4
:104EC000F16AF28CF28E1200D9CFE6FFE1CFD9FF62
:104ED000E652BEDF0201409740990201040E836F43
:104EE000020E846FDF6A100EDF5C0AE2DF50EA6AAE
:104EF0008325E96E8451EA227F0EEF6EDF2AF3D715
:104F000002011D6B010E1E6FC20E1F6F0201408554
:104F10000201226B236B0201006B026B036B010E1B
:104F2000D56E320ED76ECF0ED66ED59E000EE66EC3
:104F3000020EE66E8BD8E552E55202014093000E58
:104F4000E66E020EE66E82D8E552E552020140930B
:104F5000E552E552E7CFD9FF120082828088949211
:104F600092981200F2920201200E7F6F9F8602013A
:104F700040A906D00201E00E7C6F000E7D6F05D0C7
:104F80000201C00E7C6F000E7D6F020140A14079CE
:104F900040A706D00201800E7A6F000E7B6F05D00D
:104FA0000201A00E7A6F000E7B6FC9CF80F27AC229
:104FB000E9FF7BC2EAFF7A2B000E7B23EF50C96E1C
:104FC00012009E96C9CF80F202017F51000823E2B1
:104FD0007CC2E9FF7DC2EAFF7C2B000E7D2380C2EC
:104FE000EFFF7AC2E9FF7BC2EAFF7A2B7B23EFCF88
:104FF00080F280C2C9FF7F077F510CE10201020EDF
:105000001E6F020140934081320ED76ECF0ED66ED6
:10501000F294D58E01D0C96A1200D9CFE6FFE1CF54
:10502000D9FF020140A10ED0FD0EDBCFE6FFFE0E40
:10503000DBCFE6FF41EC2DF0E552E5529D960201F3
:1050400040919D86E552E7CFD9FF1200D9CFE6FF08
:10505000E1CFD9FF020140B332D0FD0EDBCFE9FF33
:10506000FE0EDBCFEAFF1E0EE926000EEA22EF500D
:10507000020809E1FD0EDBCFE6FFFE0EDBCFE6FF07
:1050800069D8E552E552FD0EDBCFE9FFFE0EDBCF1E
:10509000EAFF150EE926000EEA22EF9EFD0EDBCF99
:1050A000E6FFFE0EDBCFE6FFAFEC2CF0E552E5525B
:1050B0009D960201407740839D8602011D2BE5529B
:1050C000E7CFD9FF12009D96020140919D86120004
:1050D000D9CFE6FFE1CFD9FF0001166BD950FD0F04
:1050E000E96EFF0EDA20EA6E010EEE1801E1ED50D6
:1050F00002E1168101D0BA6AD950FB0FE96EFF0EAA
:10510000DA20EA6E010EEE1801E1ED5002E116839D
:1051100001D0B76AD950F90FE96EFF0EDA20EA6EB6
:10512000010EEE1801E1ED5002E1168501D0736A1F
:10513000D950F70FE96EFF0EDA20EA6E010EEE1875
:1051400001E1ED5002E1168701D0706AE552E7CF28
:10515000D9FF1200D9CFE6FFE1CFD9FFFD0EDBCF9B
:10516000E9FFFE0EDBCFEAFF1C0EE926000EEA2265
:10517000EF6AFD0EDBCFE9FFFE0EDBCFEAFF170E75
:10518000E926000EEA22EF6AC6AE0ED0C69EFD0EDC
:10519000DBCFE9FFFE0EDBCFEAFF170EE926000E9C
:1051A000EA22010EEF6E22D0F150800B10E0F25097
:1051B000080B0DE0FD0EDBCFE9FFFE0EDBCFEAFFB3
:1051C000170EE926000EEA22020EEF6E0FD0F0A6AF
:1051D0000DD0909EFD0EDBCFE9FFFE0EDBCFEAFF88
:1051E000170EE926000EEA22030EEF6E250EC614F6
:1051F000250819E0FD0EDBCFE9FFFE0EDBCFEAFF4D
:105200001C0EE926000EEA22010EEF6EFD0EDBCF2A
:10521000E9FFFE0EDBCFEAFF170EE926000EEA22B9
:10522000C6CFEFFF80D1C55019E0FD0EDBCFE9FFFF
:10523000FE0EDBCFEAFF1C0EE926000EEA22020E6C
:10524000EF6EFD0EDBCFE9FFFE0EDBCFEAFF170EA0
:10525000E926000EEA22C5CFEFFF65D1D0BE19D0F6
:10526000FD0EDBCFE9FFFE0EDBCFEAFF1C0EE926C9
:10527000000EEA22030EEF6EFD0EDBCFE9FFFE0EFD
:10528000DBCFEAFF170EE926000EEA22D0CFEFFFB0
:105290004AD19DB619D0FD0EDBCFE9FFFE0EDBCF64
:1052A000EAFF1C0EE926000EEA22040EEF6EFD0E48
:1052B000DBCFE9FFFE0EDBCFEAFF170EE926000E7B
:1052C000EA229DCFEFFF2FD19C5019E0FD0EDBCFDE
:1052D000E9FFFE0EDBCFEAFF1C0EE926000EEA22F4
:1052E000050EEF6EFD0EDBCFE9FFFE0EDBCFEAFF12
:1052F000170EE926000EEA229CCFEFFF14D1080E0C
:105300009F5C19E0FD0EDBCFE9FFFE0EDBCFEAFF6D
:105310001C0EE926000EEA22060EEF6EFD0EDBCF14
:10532000E9FFFE0EDBCFEAFF170EE926000EEA22A8
:105330009FCFEFFFF8D0A25019E0FD0EDBCFE9FFC1
:10534000FE0EDBCFEAFF1C0EE926000EEA22070E56
:10535000EF6EFD0EDBCFE9FFFE0EDBCFEAFF170E8F
:10536000E926000EEA22A2CFEFFFDDD0A55019E01A
:10537000FD0EDBCFE9FFFE0EDBCFEAFF1C0EE926B8
:10538000000EEA22080EEF6EFD0EDBCFE9FFFE0EE7
:10539000DBCFEAFF170EE926000EEA22A5CFEFFFCA
:1053A000C2D0100EF214100819E0FD0EDBCFE9FF99
:1053B000FE0EDBCFEAFF1C0EE926000EEA22090EE4
:1053C000EF6EFD0EDBCFE9FFFE0EDBCFEAFF170E1F
:1053D000E926000EEA22F2CFEFFFA5D0470EF11426
:1053E00019E0FD0EDBCFE9FFFE0EDBCFEAFF1C0E5E
:1053F000E926000EEA220A0EEF6EFD0EDBCFE9FF72
:10540000FE0EDBCFEAFF170EE926000EEA22F1CFEF
:10541000EFFF89D0C00EF01419E0FD0EDBCFE9FFDD
:10542000FE0EDBCFEAFF1C0EE926000EEA220B0E71
:10543000EF6EFD0EDBCFE9FFFE0EDBCFEAFF170EAE
:10544000E926000EEA22F0CFEFFF6DD092A819D026
:10545000FD0EDBCFE9FFFE0EDBCFEAFF1C0EE926D7
:10546000000EEA220C0EEF6EFD0EDBCFE9FFFE0E02
:10547000DBCFEAFF170EE926000EEA2292CFEFFFFC
:1054800052D093B019D0FD0EDBCFE9FFFE0EDBCF7B
:10549000EAFF1C0EE926000EEA220D0EEF6EFD0E4D
:1054A000DBCFE9FFFE0EDBCFEAFF170EE926000E89
:1054B000EA2293CFEFFF37D03E0E94141C0819E078
:1054C000FD0EDBCFE9FFFE0EDBCFEAFF1C0EE92667
:1054D000000EEA220E0EEF6EFD0EDBCFE9FFFE0E90
:1054E000DBCFEAFF170EE926000EEA2294CFEFFF8A
:1054F0001AD097BE18D0FD0EDBCFE9FFFE0EDBCF32
:10550000EAFF1C0EE926000EEA220F0EEF6EFD0EDA
:10551000DBCFE9FFFE0EDBCFEAFF170EE926000E18
:0E552000EA2297CFEFFFE552E7CFD9FF120046
:02552E00269EB7
:1055300005D0269E1EAE02D01E6C268E1EC018F010
:10554000176A2A6A296A860E196E1A6A1CEF2CF0ED
:10555000266A58EC2CF070EC2CF026B600EF2CF0FC
:1055600026A205D026BA00EF2CF007EF2CF026BAC1
:1055700013EF2CF026A005D026B800EF2CF013EF87
:105580002CF026B807EF2CF01A6A7F0E1F24196E34
:10559000E86A1A222450195EE86A1A5A1A0E276E0F
:1055A0001F6A296A2A6A176A186A21501C5E2250EB
:1055B0001D5A23501E5A000E1F5A09E721501C265F
:1055C00022501D2223501E22000E1F2201D0298AA4
:1055D000D8901C361D361E361F36D89029362A36EE
:1055E00017361836272EE1D71E501D101C10D8A4D0
:1055F000298A1CEF2CF0266A58EC2CF070EC2CF069
:1056000026B600EF2CF026A205D026B800EF2CF02D
:1056100007EF2CF026AA05D026B000EF2CF007EFFC
:105620002CF026B002D026A802D013EF2CF01A6A74
:1056300024501F24196EE86A1A227E0E195EE86A49
:105640001A5A296A2A6A176A186A23501E02F4CF66
:1056500018F0F3CF17F022501E02F3502A26F45010
:105660001722000E182223501D02F3502A26F45050
:105670001722000E182221501E02F3502926F45042
:105680002A22000E1722182222501D02F35029262A
:10569000F4502A22000E1722182223501C02F35025
:1056A0002926F4502A22000E1722182221501D020A
:1056B000F4502926000E2A221722182222501C02FA
:1056C000F4502926000E2A22172218221CEF2CF053
:1056D000256A23AE71EF2BF0226C231EE86A232289
:1056E000251E1EAE79EF2BF01D6C1E1EE86A1E22D1
:1056F000251E78EC35F01EBE89EF2BF025AE000C90
:105700001D6C1E1EE86A1E22196C1A1EE86A1A22F7
:10571000000C25BE80EF2BF02688FF0C1EC02AF05F
:105720001DC029F01D502202F4CF1CF0F3CF1BF056
:105730001E502302F4CF1EF0F3CF1DF02202F350CF
:105740001C26F4501D22E86A1E2229502302F35021
:105750001C26F4501D22E86A1E2223AEB4EF2BF063
:1057600029501D5E2A501E5A2AAE000C22501D5E82
:1057700023501E5A000C1DC029F01D502202F4CFE8
:105780001CF0F3CF1BF01E502302F4CF1EF0F3CF1A
:105790001DF02202F3501C26F4501D22E86A1E223E
:1057A00029502302F3501C26F4501D22E86A1E22C1
:1057B000000C266A58EC2CF026B6E3EF2BF026A25C
:1057C0000AD026B403D07F0E1E6E19D0800E1E6E36
:1057D00016D01E6A14D026B0FCD7870E1F60F1D7F2
:1057E0007E0E1F64F6D7860E1F5C04E0D8901E3232
:1057F0001F2AF9D726A403D01E6C1EAEEAD71200CA
:105800007F0E1F6EFF0E1E6E1D6E1C6E12007F0E31
:1058100026BEFF0E1F6E02D07F0E1F6E800E1E6E04
:105820001D6A1C6AF3D726AE04D0800E1F6E1E6A56
:10583000F7D71F6A1E6AF4D7185017102A102910BC
:10584000F8E01ABEF0D718BE0CD019501A10EBE0D1
:10585000D89029362A36173618361906D8A01A06CF
:10586000F2D71A50D4E11928D2E029AE11D07F0E18
:10587000291402E12AA00CD02A2AE86A1722182249
:1058800007E3D880183217322A32192A1928BFE0C4
:105890001950C9E02AC01CF017C01DF018341E6E44
:1058A00019301F6E1E321F9E26BE1F8E06EF2CF073
:1058B0001E361F3602E32684267E06E126801F6AF6
:1058C0001E6A1D6A1C6A12001F2803E0D8801E325F
:1058D0001200D8901E3202E12682120026861200A3
:1058E0002336243602E3268C267E06E12688246AA7
:1058F000236A226A216A1200242803E0D880233216
:0C5900001200D8902332EAE1268A12003F
:04590C00000EE96E32
:10591000EA6E040093EC2CF0EA2A080EEA5CD8A4A4
:1059200089EF2CF01200EF6AE93E93EF2CF01200A1
:10593000FF0EE3CF09F009380F0B060FD8B2070F9F
:105940002A0FAD6EE1EC30F009500F0B060FD8B204
:10595000070F2A0FAD6EE1EC30F0000C1200EACF19
:1059600004F0E9CF05F0FF0EE3CFEAFFFE0EE3CF30
:10597000E9FF40A741D0EECFA0F0EECFA1F0EECFEF
:10598000A2F0EECFA3F0EECFA4F0EECFA5F0EECFD5
:10599000A6F0EECFA7F0EECFA8F0EECFA9F0EECFB5
:1059A000AAF0EECFABF0EECFACF0EECFADF0EECF95
:1059B000AEF0EECFAFF0EECFB0F0EECFB1F0EECF75
:1059C000B2F0EECFB3F0EECFB4F0EECFB5F0EECF55
:1059D000B6F0EECFB7F0EECFB8F0EECFB9F0EECF35
:1059E000BAF0EECFBBF0EECFBCF0EECFBDF0EECF15
:1059F000BEF0EECFBFF040D0EECF80F0EECF81F022
:105A0000EECF82F0EECF83F0EECF84F0EECF85F0D4
:105A1000EECF86F0EECF87F0EECF88F0EECF89F0B4
:105A2000EECF8AF0EECF8BF0EECF8CF0EECF8DF094
:105A3000EECF8EF0EECF8FF0EECF90F0EECF91F074
:105A4000EECF92F0EECF93F0EECF94F0EECF95F054
:105A5000EECF96F0EECF97F0EECF98F0EECF99F034
:105A6000EECF9AF0EECF9BF0EECF9CF0EECF9DF014
:105A7000EECF9EF0EECF9FF004C0EAFF05C0E9FF35
:105A8000120040A11200EACF04F0E9CF05F0FF0EAA
:105A9000E3CFEAFFFE0EE3CFE9FF40A941D0C0C04B
:105AA000EEFFC1C0EEFFC2C0EEFFC3C0EEFFC4C038
:105AB000EEFFC5C0EEFFC6C0EEFFC7C0EEFFC8C018
:105AC000EEFFC9C0EEFFCAC0EEFFCBC0EEFFCCC0F8
:105AD000EEFFCDC0EEFFCEC0EEFFCFC0EEFFD0C0D8
:105AE000EEFFD1C0EEFFD2C0EEFFD3C0EEFFD4C0B8
:105AF000EEFFD5C0EEFFD6C0EEFFD7C0EEFFD8C098
:105B0000EEFFD9C0EEFFDAC0EEFFDBC0EEFFDCC077
:105B1000EEFFDDC0EEFFDEC0EEFFDFC0EEFF40D0E7
:105B2000E0C0EEFFE1C0EEFFE2C0EEFFE3C0EEFF3B
:105B3000E4C0EEFFE5C0EEFFE6C0EEFFE7C0EEFF1B
:105B4000E8C0EEFFE9C0EEFFEAC0EEFFEBC0EEFFFB
:105B5000ECC0EEFFEDC0EEFFEEC0EEFFEFC0EEFFDB
:105B6000F0C0EEFFF1C0EEFFF2C0EEFFF3C0EEFFBB
:105B7000F4C0EEFFF5C0EEFFF6C0EEFFF7C0EEFF9B
:105B8000F8C0EEFFF9C0EEFFFAC0EEFFFBC0EEFF7B
:105B9000FCC0EEFFFDC0EEFFFEC0EEFFFFC0EEFF5B
:105BA00004C0EAFF05C0E9FF1200F2B4120016506B
:105BB0000F0AD8B41200FF0EE3CF0AF0FE0EE3CFB7
:105BC0000BF0FD0EE3CF0CF0FC0EE3CF0DF00A2A34
:105BD00016A08D8E0B2A16A28F800C2A16A48F86F3
:105BE0000D2A16A68F880E6A0F6A106A116A28ECB1
:105BF0002EF00A2EFEEF2DF016A08D9E0B2E03EF39
:105C00002EF016A28F900C2E08EF2EF016A48F9671
:105C100000000D2E0EEF2EF016A68F9800000E2E0F
:105C200013EF2EF0129000000F2E18EF2EF01292AC
:105C30000000102E1DEF2EF012940000112E22EF06
:105C40002EF012964AEC2EF0133EF9EF2DF01200D2
:105C5000D70E136E000000000000000040EC2EF094
:105C6000132E2AEF2EF0D70E136E00000000000056
:105C7000000040EC2EF0132E35EF2EF00000120045
:105C8000000043EF2EF000000000000000000000C4
:105C900000001200030E146E0000142E4CEF2EF0C4
:025CA0001200F0
:0E5CA200150EAF6EAC849D9A9D98AC98AC9E8A
:105CB000948EAB9CAB96AB8AAB889F9A9D8A02016F
:105CC000B769B869949CAC9CAC969F989D88AC8A47
:105CD000AB8E1200150E6F6E6C84A39AA3986C980D
:105CE0006C9E98846B9C6B966B8A6B88A59AA38A32
:105CF0000201B769B86998926C9C6C96A598A388C4
:105D00006C8A6B8E1200D9CFE6FFE1CFD9FFE65245
:105D10009D9AECC1DFFF9D8ADF5000D0E552E5522D
:105D2000E7CFD9FF1200D9CFE6FFE1CFD9FFE65286
:105D3000A39AF8C1DFFFA38ADF5000D0E552E552F5
:105D4000E7CFD9FF1200D9CFE6FFE1CFD9FFE65266
:105D50000101E95103E0000E17D016D0EA51EA6ABA
:105D6000000FE96E010EEA22EFCFDFFFEC07EA2B0E
:105D70001F0EEA179D9AEB51EA5D02E1010EE96FF1
:105D80009D8AE86BDF5000D0E552E552E7CFD9FF9E
:105D90001200D9CFE6FFE1CFD9FFE6520101F5515C
:105DA00003E0000E17D016D0F651EA6A400FE96EF4
:105DB000010EEA22EFCFDFFFF807F62B1F0EF617D2
:105DC000A39AF751F65D02E1010EF56FA38AF46B19
:105DD000DF5000D0E552E552E7CFD9FF1200D9CF0E
:105DE000E6FFE1CFD9FF0101EF5101E0FCD7F2510D
:105DF000EA6A200FE96E010EEA22FE0EDBCFEFFF0A
:105E0000F32BF22B1F0EF2179D98F251F15D02E178
:105E1000010EEF6F9D88F06BE552E7CFD9FF1200BE
:105E2000D9CFE6FFE1CFD9FF0101FB5101E0FCD75B
:105E3000FE51EA6A600FE96E010EEA22FE0EDBCF28
:105E4000EFFFFF2BFE2B1F0EFE17A398FE51FD5DEB
:105E500002E1010EFB6FA388FC6BE552E7CFD9FF8F
:105E600012000101E85102E09D9A19D0EB51EA6A53
:105E7000000FE96E010EEA22AECFEFFFABA203D016
:105E8000AB98AB88ED2BABB4EE2BEC2BEB2B1F0EB2
:105E9000EB17EB51EA5D02E1010EE86FE96B1200CE
:105EA0000101F45102E0A39A19D0F751EA6A400FB8
:105EB000E96E010EEA226ECFEFFF6BA203D06B9862
:105EC0006B88F92B6BB4FA2BF82BF72B1F0EF717F7
:105ED000F751F65D02E1010EF46FF56B120001015E
:105EE000F05102E09D9812D0F151EA6A200FE96E5C
:105EF000010EEA22EF50AD6EF307F12B1F0EF117E2
:105F0000F251F15D02E1010EF06FEF6B1200010141
:105F1000FC5102E0A39812D0FD51EA6A600FE96ECD
:105F2000010EEA22EF506D6EFF07FD2B1F0EFD17CD
:105F3000FE51FD5D02E1010EFC6FFB6B1200D9CF3B
:105F4000E6FFE1CFD9FF0101E75101E110D0E705FC
:105F500006E1FE0EDBCFE6FF42DFE55208D0020E7F
:105F6000E75D05E1FE0EDBCFE6FF5ADFE552E552C5
:065F7000E7CFD9FF12008B
:0A5F76000201AA510201901904E192
:105F80000201AB510201911901E104D10201A82BD8
:105F9000A96B140EA85D01E2FCD0A86B32EC23F0D3
:105FA000000911E1550E2B6E320E2C6E2D6A2BC09E
:105FB000E6FF2CC0E6FF2DC0E6FFA1EC33F0E55272
:105FC000E552E552E6D0520E2B6E320E2C6E2D6A43
:105FD0002BC0E6FF2CC0E6FF2DC0E6FFA1EC33F09E
:105FE000E552E552E552020104512B6E2C6A7C0EFB
:105FF0002B5E000E2C5A410E2C02F3CF2CF02B02FC
:10600000F3CF2BF0F4502C267C0E226E236A2BC08B
:106010001DF02CC01EF068EC2BF01DC02BF01EC034
:106020002CF02BC0E6FF2CC0E6FF360E2D6E320E94
:106030002E6E2F6A2DC0E6FF2EC0E6FF2FC0E6FFB2
:10604000A1EC33F0F56E050EE15EF550020105514D
:106050002B6E2C6A900E2B5E000E2C5A190E2C0201
:10606000F3CF2CF02B02F3CF2BF0F4502C26320E72
:10607000226E236A2BC01DF02CC01EF068EC2BF0A2
:106080001DC02BF01EC02CF02BC0E6FF2CC0E6FF7D
:106090001A0E2D6E320E2E6E2F6A2DC0E6FF2EC008
:1060A000E6FF2FC0E6FFA1EC33F0F56E050EE15ED2
:1060B000F550010180512D6E2E6A02016A512F6E3A
:1060C000306A2F502D5C2B6E30502E582C6E2BC00A
:1060D000E6FF2CC0E6FFFE0E316E310E326E336AE3
:1060E00031C0E6FF32C0E6FF33C0E6FFA1EC33F07B
:1060F000F56E050EE15EF550010181512D6E2E6A9F
:10610000020172512F6E306A2F502D5C2B6E305071
:106110002E582C6E2BC0E6FF2CC0E6FFE20E316E2F
:10612000310E326E336A31C0E6FF32C0E6FF33C053
:10613000E6FFA1EC33F0F56E050EE15EF5500101CE
:106140008651E66EE66AC60E2B6E310E2C6E2D6AF7
:106150002BC0E6FF2CC0E6FF2DC0E6FFA1EC33F01C
:10616000F56E050EE15EF55001018751E66EE66AB7
:10617000AA0E2B6E310E2C6E2D6A2BC0E6FF2CC0A2
:10618000E6FF2DC0E6FFA1EC33F0F56E050EE15EF3
:10619000F55016D00201A92B1A0EA95D11E3A96BC7
:1061A000960E2B6E310E2C6E2D6A2BC0E6FF2CC086
:1061B000E6FF2DC0E6FFA1EC33F0E552E552E552D3
:0261C0001200CB
:0E61C2009EB802D0FDD7FCD71200D9CFE6FF61
:1061D000E1CFD9FFFE0EDBCFE6FF98EC2CF0E552C5
:1061E0000D0EAD6EEEDFE552E7CFD9FF1200D9CF2D
:1061F000E6FFE1CFD9FF0201D950FD0FA46FFF0EDA
:10620000DA20A56F010EEA6AA425E96EA551EA22FB
:10621000EF50E66E98EC2CF0E552A4C2E9FFA5C25F
:10622000EAFFEF50E66E98EC2CF0E5520D0EAD6EE5
:10623000C8DFE552E7CFD9FF1200D9CFE6FFE1CFA3
:10624000D9FF0201A66B1A0EA65D11E2FD0EDBCF8F
:10625000E9FFDB2AFE0EDBCFEAFF01E3DB2AEF508A
:10626000E66E98EC2CF0E5520201A62BECD70D0E51
:10627000AD6EA7DFE552E7CFD9FF12000201200E75
:10628000A46F020EA56F020120510201AC6FAD6B2D
