:020000040000FA
:0608000079EF1CF012006C
:02080600FEFFF3
:0608080027EF11F01200C1
:02080E00C250D6
:08081000020B01E0010E1200D1
:0608180033EF16F01200A0
:02081E000400D4
:10082000CB390000F900000004000000B2390000DC
:10083000E00000001900000006080000EA010000C6
:1008400002000000AA390000E001000008000000DA
:1008500064EC09F0FB0EDBCFF3FFDB06F35000097D
:100860000AE0B2EC09F0FA0E1DEC0AF0F3E1151CF7
:10087000F1E1010E01D0000E93EF09F064EC09F0F4
:100880003B0EE12402E3E168E652E16E010EDB6A11
:10089000020EDB6AF90EDBCFF6FFFA0EDBCFF7FFB5
:1008A000FB0EDBCFF8FF0800F550DF6EDF5002E1F2
:1008B000B7EF08F0250EDF5C02E0AAEF08F0030EA8
:1008C000DB6A040EDB6A050EDB6A060EDB6A070EC6
:1008D000DB6ACCEC08F02D0EDF5C0CE02B0EDF5C4D
:1008E00009E0200EDF5C06E0230EDF5C03E0300E43
:1008F000DF5C1AE1DF50300A14E0130A0FE0030A4C
:100900000AE00B0A05E0060AE4E1030EDB80E1D70A
:10091000030EDB82DED7030EDB84DBD7030EDB8620
:10092000D8D7030EDB88D5D72A0EDF5C1BE1C8ECD5
:1009300008F016EC09F010E0030EDB800868096887
:10094000130EDBCF0DF0140EDBCF0EF079EC13F0AD
:10095000040E06C0DBFF03D0130EFFEC08F0CCEC56
:1009600008F00BD0090EDB6A6DEC09F003E0E1EC56
:1009700009F0FAD7090EFFEC08F0030EDBB0DB98A4
:100980002E0EDF5C1BE1CCEC08F02A0EDF5C0BE1E5
:10099000C8EC08F016EC09F003E1130E51EC09F075
:1009A000CCEC08F00BD0090EDB6A6DEC09F003E02B
:1009B000E1EC09F0FAD7090E51EC09F0680EDF5CA2
:1009C00007E1CCEC08F0680EDF5C1DE1030E18D0E7
:1009D000740EDF5C17E07A0EDF5C14E0480EDF5C1B
:1009E00006E0540EDF5C03E05A0EDF5C02E1020E0B
:1009F00007D06C0EDF5C03E06A0EDF5C04E1010EE1
:100A0000A4EC09F0C9DBDF506E0A01E17FD31E0AB6
:100A100001E192D1200A01E18FD13F0A01E149D1E0
:100A20001A0A01E146D10D0A01E143D1200A01E190
:100A300040D13A0A01E13DD1200A01E13AD1260A2A
:100A400001E135D10D0A01E132D11A0A01E1D9D013
:100A5000200A4AE0300A1FE0460A0EE0250A01E0BB
:100A600083D3D950F90FE96EFF0EDA20EA6E010E3A
:100A7000EE5E000EEE5AEE5AB2EC09F0250EE66E6E
:100A800095DB03E1151C01E169D3AEEC09F001E24D
:100A90006BD3DB2A69D3080EDB6A040EDB50010836
:100AA00006E2040EDB0476EC09F0DB508BDB080E6B
:100AB000DB5009E0030EDB50010B05E172DB01E0C6
:100AC0004DD3080EDB6A64DBEFCFDFFF26EC0AF0C4
:100AD00003E1151C01E142D3AEEC09F001E3DB2A8E
:100AE00060DB01E141D33AD3070EDB5002080FE18E
:100AF000F2EC09F0030EB9EC09F00E0EEECFDBFFBD
:100B00000F0EEECFDBFF100EEECFDBFF20D0F70E87
:100B1000DBCF17F0F80EDBCF18F0020E175E000ED9
:100B2000185AF70E17C0DBFFF80E18C0DBFF17C00E
:100B3000E9FF18C0EAFFA9EC09F0166A0E0E14C00E
:100B4000DBFF0F0E15C0DBFF100E16C0DBFF0E0E15
:100B5000DBCFE6FF0F0EDBCFE6FF100EDBCFE6FFAD
:100B6000B1EC1BF0E552E552E552130E07C0DBFF76
:100B7000140E08C0DBFF060EDB5005E0130EEDEC93
:100B800009F001E26ADB11EC0AF002E2130E37DB36
:100B9000D4EC09F006E0040EEDEC09F002E2050EDB
:100BA0002EDB030EDBB005D0FCDA01E0D7D2080E55
:100BB000DB6A090EDB6A0E0EDBCFF6FF0F0EDBCF12
:100BC000F7FF100EDBCFF8FF0800F550DF6EDF50A7
:100BD00014E017EC0AF011E226EC0AF003E1151C10
:100BE00001E1BCD2BBDB01E3DB2A090EDB2AD950D1
:100BF0000E0FE96E000ECBDBE7D7D3DA01E1B4D2FA
:100C0000ADD2C6DA110EEECFDBFF120EEDCFDBFF59
:100C1000110EDBCFE6FF120EDBCFE6FFA3EC1BF0DD
:100C2000E552E552130EF3CFDBFF140EF4CFDBFFDA
:100C3000060EDB5004E0130ED0DB01E20EDB11ECFC
:100C40000AF002E2130EDBDAAFDB05E0040EC5DBCF
:100C500002E2050ED4DA030EDBB005D0A2DA01E021
:100C60007DD2080EDB6A090EDB6A110EDBCFE9FFCD
:100C7000120EDBCFEAFFEFCFDFFFDF5014E0D7DB50
:100C800012E2E4DB03E1151C01E168D267DB01E35A
:100C9000DB2A090EDB2A110EDB2ADBCFE9FF120E5D
:100CA000E8E3DB2AE6D77DDA01E15ED257D2030E14
:100CB000DB8E070EDB0410E195DB040E5ADB0A0E17
:100CC000EECFDBFF0B0EEECFDBFF0C0EEECFDBFF2C
:100CD0000D0EEECFDBFF6CD0070EDB5003082CE1CE
:100CE000030EDBAE0DD0B2DA020E76DAEFCF14F0DF
:100CF000156A166A176A14AE39D01568166835D0A9
:100D0000F70EDBCF15F0F80EDBCF16F0020E155EF6
:100D1000000E165AF70E15C0DBFFF80E16C0DBFFEB
:100D200015C0E9FF16C0EAFFEFCF14F00A0E14C099
:100D3000DBFF0B0EDB6A38D0070EDB50020809E13F
:100D4000030EDBAE04D059DB16AE10D00ED055DB4F
:100D50000DD0030EDBAE12D079DA020E3DDAF9DAED
:100D6000166A176A15AE02D016681768E2DA0C0E1A
:100D700016C0DBFF0D0E17C0DBFF1AD0F70EDBCF5E
:100D800016F0F80EDBCF17F0020E165E000E175AA3
:100D9000F70E16C0DBFFF80E17C0DBFF16C0E9FF29
:100DA00017C0EAFFD6DAC5DA0C0EDB6A0D0EDB6A75
:100DB000060EDB5005E1010EF36E050EF3CFDBFFEF
:100DC000150EDB6A160EDB6AD950370F146E000E53
:100DD000DA20156E390E14C0DBFF3A0E15C0DBFFAA
:100DE000380EDB6A080EDB6A0A0EAEDADF50780ACC
:100DF00012E0200A10E0280A0CE0200A0AE03F0A6C
:100E000006E00D0A02E0200A08E1020E05D0080EF5
:100E100003D0080EDF26100E97DA030EDBBE02D0D9
:100E2000DB92DB94DB50800B24E08ADAD890030E4F
:100E3000EB50000A08E6000EEE5C000EEE58000EC5
:100E4000EE58000EEE5815E213DA0B680C680D68C8
:100E50000E6837EC1BF00A0E02C0DBFF0B0E03C05E
:100E6000DBFF0C0E04C0DBFF0D0E05C0DBFF2D0EFB
:100E700008D0030EDBA202D02B0E03D0DBA408D0D7
:100E8000200EF36E170EF3CFDBFF150EDB2A02D018
:100E9000170EDB6A050EDB5003E1B7D901E189D0FB
:100EA000880E146E390E156E000E166E070EDBCF0F
:100EB00017F0186A196A1A6A17C00BF018C00CF0FC
:100EC00019C00DF01AC00EF0D3D903EC1CF0145069
:100ED0000224F36E15500320F46E16500420F86EB1
:100EE000F4CFF7FFF3CFF6FF0800090EF5CFDBFFD5
:100EF000580EDF5C0FE1610EF36E090E7BD90AE339
:100F0000200E146E090EDBCFE7FF1450E75E090ECA
:100F1000E7CFDBFF070EDBCF14F0156A166A176AFE
:100F20000FDA14C00BF015C00CF016C00DF017C08E
:100F30000EF0EECF06F0EECF07F0EECF08F0EFCFD9
:100F400009F003EC1CF009C0EDFF08C0EDFF07C07D
:100F5000EDFF06C0EFFF390EDBCFE9FFDB063A0EEF
:100F6000DBCFEAFF01E2DB06090EDBCFEFFF150E58
:100F7000DB2A4BD995E1030EDBA61DD06F0EDF5C9B
:100F800006E1C1D918E3150EDB285BDA14D0780E20
:100F9000DF5C09E0580EDF5C06E0620EDF5C03E018
:100FA000420EDF5C08E1020EF36E160EF3CFDBFF9C
:100FB00002D0150EDB6A030EDB50100B0EE0040EA0
:100FC000DBCF14F0050EDB50D880145406E2060E79
:100FD000DB5003E1040EDB5034DA95D90AE2050E4A
:100FE000DBCFE7FF150EDB50E75E050EE7CFDBFF3B
:100FF00002D0050EDB6A040EDBCF14F0160E45D9C5
:10100000D880145414E2160EDBCFE6FF150EDBCFAA
:10101000E6FF040EDBCFE6FF050EDB50E552E75C92
:10102000E552D880E754E552D880E7545FD9030EE3
:10103000DB50010B0BE1080EDB5008E0B2D801E0F9
:101040008DD0080EDB50BED8080EDB6A170EDB50C1
:1010500007E088D9170EF1D903E1151C01E17ED014
:10106000160EDB5016E07ED9300EE66E9FD802E1F8
:10107000151C74E077D9DFCFE6FFF5EC1AF0E552E6
:10108000E552E552F4CF15F00001F31C02E1151C06
:1010900065E0050EDBCF14F0160EDB50D88014543B
:1010A00009E2050EDBCFE7FF160EDB50E75E050E0B
:1010B000E7CFDBFF300EE66E050ECBD94FE1390EE0
:1010C000DB2ADBCFE9FF3A0E01E3DB2ADBCFEAFFC5
:1010D000090EEFCFDBFFDB500EE044D9090EADD98E
:1010E00002E1151C3BE0390EDB2ADBCFE9FF3A0EAB
:1010F000EDE3DB2AEBD755D831E1160EDBCFE6FF67
:10110000080EC3D8E552E7245DD82ED0070EDB5079
:10111000030A1CE0010A14E0030A07E07BD9DBCFD5
:10112000EEFF020EDBCFEDFF1FD0F5D8196A17AE28
:1011300002D0186819682CD8BCD819C0EEFF14D09A
:10114000EAD817BE186824D8B4D80ED063D9DBCF3C
:10115000EFFF0AD07BD905E1151C03E1F368F468C1
:1011600010D0FCD801E3DB2A79D953EF04F0010E4B
:10117000DBCF14F0020EDBCF15F014C0F3FF15C067
:10118000F4FF3B0EE15C02E2E16AE552E16ECBD096
:1011900029D9020EB9EF09F061D90800F550DF6EC8
:1011A0001200200EE66E080E29EF0AF0F5EC1AF098
:1011B000E552E552E552F3CF14F0F4CF15F00001FB
:1011C000F31C1200146E156AD950010F4DD914503A
:1011D000EE261550ED221200185E000E195AF70E79
:1011E00018C0DBFFF80E19C0DBFF18C0E9FF19C0FB
:1011F000EAFF1200DBCFF4FFF350F45C1200DB5087
:10120000E76E040EE7CFDBFF12000A0EDBCF14F00F
:101210000B0EDBCF15F00C0EDBCF16F00D0EDBCF77
:1012200017F014501510161017101200130EEECFF1
:10123000DBFF140EEDCFDBFF130EDBCF14F0140E2B
:10124000DBCF15F00001800E15141200F70EDBCF76
:1012500018F0F80EDBCF19F01200050EDB50E66E29
:10126000D950130F01D9E552E750EE6EED6A120026
:101270000A0EDBCF06F00B0EDBCF07F00C0EDBCF38
:1012800008F00D0EDBCF09F01200DBCFE6FF150EE4
:10129000DBCFE6FF050EDB50E552E724E552E724FD
:1012A0001200DB50CED8010EF36E060EF3CFDBFF3B
:1012B0001200EE50EFCFEAFFE96E16C0EEFF17C046
:1012C000EEFF18C0EEFF1200D9CFE6FFDACFE6FF3F
:1012D000E1CFD9FFE2CFDAFF1200DFCFE6FFE66A07
:1012E0008BEC1CF0E552E552F3501200E76E080E4D
:1012F000E7CFDBFF1200EECF14F0EECF15F0EFCF0B
:1013000016F0176A1200050EDBCF14F0150EDB5035
:10131000D88014541200010EDBCF16F0020EDBCF82
:1013200017F0186A1200E552E5CFDAFFE7CFD9FFD0
:1013300012000A0E14C0DBFF0B0E15C0DBFF1200FB
:10134000D9500A0F34EF0AF0F36E070EF3CFDBFF2C
:101350001200EECF14F0EFCF15F01200010EDB2AD1
:10136000020E1200FC0EDBCFE6FFFD0EDBCFE6FF28
:101370001200145E000E155AF70E14C0DBFFF80EB3
:1013800015C0DBFF14C0E9FF15C0EAFF1200DA2028
:10139000EA6EEF2AEECFF6FF000EEF22EECFF7FF58
:1013A000EF22EECFF8FF1200040EDBCFE6FF130EA4
:1013B000DB50E552E75C9ADFDB5004DF060EDB50C2
:1013C0001200090EDB500A0DF350DF24D00FE76E38
:1013D000090EE7CFDBFFCCEF08F0DB50F36E050E14
:1013E000FAEF08F0F70EDBCF14F0F80EDBCF15F0B4
:1013F0001200DFCFE6FFD6EF08F028DF030EECDEA9
:101400007BEF09F028EC04F0E552E552E552E55295
:1014100000091200BDDEEE50EFCFEAFFE96E010ECB
:101420001200130EDB50F36E040EFAEF08F0040EF8
:10143000DB50F36E090EFAEF08F0DBCFE6FFD6EFD4
:1014400008F0E76E050EE7CFDBFF12008BDFF9EF48
:1014500009F0DBCFE6FF86DF02EF0AF0D950F90F83
:10146000E96EFF0EC7EF09F0E96E000EDA20EA6EB2
:02147000120068
:0E14720093869384938E938C938A93889980AB
:101480009A8E9A8C9A8A9A8894809A869A849A825A
:10149000998699849982919E919C919A91988B902A
:1014A00091969194919290969094909290908A9E19
:1014B0008A9C8A9A8A988A96ABEC1CF0A9D83F0E2F
:1014C000E66E330EE66E000EE66EA9EC1AF0E552FB
:1014D000E552E5521200A00EE66EE66A400EE66E98
:1014E000010EE66EC20EE66E010EE66EDDD8146EDB
:1014F000060EE15E1450A5EF0BF0F098F0880101A4
:10150000AEA13DD0300E166E2D0E176E000E186E69
:10151000B2C119F01A6A1B6A16501924F36E1750DB
:101520001A20F46E18501B20F86EF4CFF7FFF3CF9B
:10153000F6FF0800F550146E156AFF0ED880145699
:10154000000E155614C090F1300E146E2D0E156E4F
:10155000000E166EB3C117F0186A196A14501724DA
:10156000F36E15501820F46E16501920F86EF4CF53
:10157000F7FFF3CFF6FF0800F5CF91F125D0300E3D
:10158000146E2D0E156E000E166EB2C117F0186A8D
:10159000196A14501724F36E15501820F46E165063
:1015A0001920F86EF4CFF7FFF3CFF6FF0800F5CF60
:1015B00091F101019151146E156AFF0ED8801456F5
:1015C000000E155614C090F10101AEA108D0D3C190
:1015D000E6FFD4C1E6FF9FD9E552E55216D0B751D8
:1015E000E96EEA6AFF0ED880E956000EEA56D890F6
:1015F000E936EA36000EE9260C0EEA22EECFE6FFC7
:10160000EFCFE6FF88D9E552E552B5EF0DF01200B5
:10161000090EE66ECD0EE66E010EE66E000EE66E6B
:10162000E66AB2EC19F0146E050EE15E1450500E2D
:101630000101CD1902E1130ECE191CE00A0EE66E6F
:10164000330EE66E000EE66EA9EC1AF0E552E55296
:10165000E5520101500ECD6F130ECE6FBC0ECF6F51
:10166000020ED06FD36BD46F2C0ED16F010ED26FE0
:1016700035D819D0D1C1E6FFD2C1E6FFD3C1E6FF0C
:10168000D4C1E6FFCFC1E6FFD0C1E6FFCE0EE66EC5
:10169000320EE66E000EE66EA9EC1AF0146E090E1C
:1016A000E15E145052D81200D9CFE6FFE1CFD9FF46
:1016B000FD0EDBCFCFF1FE0EDBCFD0F1FB0EDBCF8B
:1016C000D3F1FC0EDBCFD4F1F90EDBCFD1F1FA0E62
:1016D000DBCFD2F1E552E7CFD9FF12000101500E66
:1016E000CD6F130ECE6FCF51D325146ED051D421B0
:1016F000156E1450D125D56FD1C1E6FFD2C1E6FFDA
:10170000D3C1E6FFD4C1E6FFCFC1E6FFD0C1E6FFFB
:10171000950EE66E320EE66E000EE66EA9EC1AF03D
:10172000146E090EE15E1450090EE66ECD0EE66EE3
:10173000010EE66E000EE66EE66AEAEC19F0146E33
:10174000050EE15E1450A5EF0BF0D9CFE6FFE1CF17
:10175000D9FF070EE1260101CF51D15D186ED2519C
:10176000D055196E18C008F019C009F0A4EC11F09A
:1017700007C014F008C015F009C016F00AC017F031
:101780000C6A0D6A7F0E0E6E430E0F6E14C007F0CA
:1017900015C008F016C009F017C00AF0B7EC11F038
:1017A00007C0DEFF08C0DEFF09C0DEFF0AC0DDFFA4
:1017B000DD52DD52500E0101CD1902E1130ECE199A
:1017C0000CE05B0EE66E320EE66E000EE66EA9ECE5
:1017D0001AF0E552E552E55294D0040EDB6A050E8C
:1017E000DB6A040EDBCF14F0050EDBCF15F0D890CA
:1017F000155004E6000E145C010E155801E381D06B
:10180000060EDB6ADBCF14F0040EE76E1418E8AEA8
:1018100002D0E73402D0E750145C69E2060EDBCF59
:1018200017F0186A17BE1868040EDB501724156EDF
:10183000050EDB501820166ED890165004E6000EE8
:10184000155C010E165853E2D9CFE9FFDACFEAFF53
:10185000EECF18F0EECF19F0EECF1AF0EFCF1BF06D
:10186000040EDBCF08F0050EDBCF09F0A4EC11F07D
:1018700007C01CF008C01DF009C01EF00AC01FF010
:101880001CC00CF01DC00DF01EC00EF01FC00FF0EC
:1018900018C007F019C008F01AC009F01BC00AF000
:1018A0000AEC12F0C4EC12F008500101CF25166EBC
:1018B0000950D021176E060EDBCF14F0156A14BE46
:1018C0001568040EDB501424E96E050EDB5015205C
:1018D000EA6ED890E936EA36000EE9260C0EEA22C6
:1018E00016C0EEFF17C0EDFF060EDB2A8BD7D950CE
:1018F000040FE96EDACFEAFF040EEE26000EED22A9
:1019000070D7070EE15C02E2E16AE552E16EE55252
:10191000E7CFD9FF1200D9CFE6FFE1CFD9FF060EFE
:10192000E126870EE66E98EC17F0E552F3CFDEFF66
:10193000F4CFDDFFFD0EDBCF16F0FE0EDBCF17F090
:10194000DE50165C146EDD501758156E020E14C072
:10195000DBFF030E15C0DBFF020EDBCF14F0030E1E
:10196000DBCF15F0D880155004E7F90E145CFF0E9C
:1019700015580EE3020EDBCF16F0030EDBCF17F087
:10198000173404E216500708000E175401E3DBD0A9
:101990000101AD51800B1BE10101E13504E3E05190
:1019A0003808FF0EE15513E2C80EE1AF02D0D8901F
:1019B00003D0E05D000EE1590AE2020EDBCF08F031
:1019C000030EDBCF09F00850E0270950E1230101A5
:1019D000E06BE16BE26BE36B020EDBCF18F0030E02
:1019E000DBCF19F01902F3CF19F01802F3CF18F07A
:1019F000F45019260A0E0D6E0E6A18C008F019C0B0
:101A000009F077EC12F008C018F009C019F0E0C135
:101A10001AF0E1C11BF00A0E0D6E0E6A1AC008F032
:101A20001BC009F077EC12F008C01AF009C01BF0D7
:101A300018501A24166E19501B20176EE2C11CF0A4
:101A4000E3C11DF00A0E0D6E0E6A1CC008F01DC029
:101A500009F077EC12F008C01CF009C01DF0165018
:101A60001C24146E17501D20156E040E14C0DBFFCD
:101A7000050E15C0DBFF040EDBCFE6FF050EDBCF46
:101A8000E6FFE2C1E6FFE3C1E6FFE0C1E6FFE1C138
:101A9000E6FF020EDBCFE6FF030EDBCFE6FFDECF75
:101AA000E6FFDDCFE6FFFD0EDBCFE6FFFE0EDBCF70
:101AB000E6FF140EE66E320EE66E000EE66EA9EC40
:101AC0001AF0146E0F0EE15E1450040EDBCF14F00A
:101AD000050EDBCF15F0153404E214507F08000E1C
:101AE000155407E27F0EF36E040EF3CFDBFF050EF5
:101AF000DB6A040EDBCF14F0050EDBCF15F0D880C7
:101B0000155004E7810E145CFF0E155807E2810E94
:101B1000F36E040EF3CFDBFF050EDB68040EDBCFA4
:101B200014F0050EDBCF15F07F0E14240101936F26
:101B3000020EDBCFE4F1030EDBCFE5F10101E62B72
:101B4000000EE72308D001017F0E936F0101E06BC7
:101B5000E16BE66BE76B060EE15C02E2E16AE552DF
:101B6000E16EE552E7CFD9FF12000101ADBB1CD0F9
:101B7000AE510101010B02E08C9101D08C81010179
:101B8000AE5101018C93010B01E08C838C978C95F5
:101B90008C998C9B8C9D8C9F8D918750010B01E0C3
:101BA0008D818D958D9352D0C3C109F091EC11F0C8
:101BB00007C01CF008C01DF009C01EF00AC01FF0CD
:101BC000710E0C6E3D0E0D6E7A0E0E6E410E0F6E86
:101BD0001CC007F01DC008F01EC009F01FC00AF0AD
:101BE0000AEC12F007C018F008C019F009C01AF08A
:101BF0000AC01BF00C6A0D6A800E0E6E430E0F6E4B
:101C000018C007F019C008F01AC009F01BC00AF08C
:101C1000B7EC11F007C014F008C015F009C016F0B9
:101C20000AC017F00C6A0D6A200E0E6E410E0F6E80
:101C300014C007F015C008F016C009F017C00AF06C
:0E1C40000AEC12F09DEC12F009C08CF11200BB
:021C4E00D9CFEC
:101C5000E6FFE1CFD9FFE65237D80101CC97CC9906
:101C6000900E846F010E856FDF6A100EDF5C0AE252
:101C7000DF50EA6A8425E96E8551EA227F0EEF6E15
:101C8000DF2AF3D7A96B010EAA6FC20EAB6FCC850A
:101C9000AE6BAF6B8C6B8E6B8F6B8C0EE66E010E2A
:101CA000E66E86D8E552E5520101CC938C0EE66EC5
:101CB000010EE66E7DD8E552E5520101CC93E55266
:101CC000E552E7CFD9FF1200806A816A826A836A8F
:101CD000846A856A866A876A886A896A8A6A8B6A78
:101CE0008C6A8D6A8E6A8F6A906A916A2F0E926EE4
:101CF00093689C0E946E956A966A9768040E986E27
:101D000099680E0E9A6EB0989C8EF26AF16AF06A2B
:101D10009E6AA16AA46A080E9D6EA06AA36A9F6E5D
:101D2000A26AA56A050EC66EC68AD08EF288F28CAB
:101D3000F28E120082828088949292981200D9CFFB
:101D4000E6FFE1CFD9FFE6520101CCA12CD0CCA90E
:101D500005D0400E806F010E816F04D0600E806F41
:101D6000010E816FFD0EDBCF82F1FE0EDBCF83F122
:101D7000DF6A200EDF5C14E2DF50EA6A8025E96E3C
:101D80008151EA22EF50E66E82C1E9FF83C1EAFF8A
:101D9000822B000E8323E552E750EF6EDF2AE9D74E
:101DA0009D96CC919D86E552E552E7CFD9FF120072
:101DB000D9CFE6FFE1CFD9FFE6520101CCB350D035
:101DC000FD0EDBCFE9FFFE0EDBCFEAFF1E0EE9269C
:101DD000000EEA22EF50020809E1FD0EDBCFE6FF1C
:101DE000FE0EDBCFE6FF46D8E552E552FD0EDBCF17
:101DF000E9FFFE0EDBCFEAFF150EE926000EEA2210
:101E0000EF9E0101CCA705D0200E806F010E816FDF
:101E100004D0000E806F010E816FFD0EDBCF84F1C8
:101E2000FE0EDBCF85F1DF6A200EDF5C14E284C199
:101E3000E9FF85C1EAFF842B000E8523EF50E66E93
:101E4000DF50EA6A8025E96E8151EA22E552E750C7
:101E5000EF6EDF2AE9D79D96CC77CC839D86A92BA0
:101E6000E552E552E7CFD9FF12009D960101CC91D2
:101E70009D861200D9CFE6FFE1CFD9FFFD0EDBCF63
:101E8000E9FFFE0EDBCFEAFF1C0EE926000EEA2278
:101E9000EF6AFD0EDBCFE9FFFE0EDBCFEAFF170E88
:101EA000E926000EEA22EF6AC6AE0ED0C69EFD0EEF
:101EB000DBCFE9FFFE0EDBCFEAFF170EE926000EAF
:101EC000EA22010EEF6E22D0F150800B10E0F250AA
:101ED000080B0DE0FD0EDBCFE9FFFE0EDBCFEAFFC6
:101EE000170EE926000EEA22020EEF6E0FD0F0A6C2
:101EF0000DD0909EFD0EDBCFE9FFFE0EDBCFEAFF9B
:101F0000170EE926000EEA22030EEF6E250EC61408
:101F1000250819E0FD0EDBCFE9FFFE0EDBCFEAFF5F
:101F20001C0EE926000EEA22010EEF6EFD0EDBCF3D
:101F3000E9FFFE0EDBCFEAFF170EE926000EEA22CC
:101F4000C6CFEFFF80D1C55019E0FD0EDBCFE9FF12
:101F5000FE0EDBCFEAFF1C0EE926000EEA22020E7F
:101F6000EF6EFD0EDBCFE9FFFE0EDBCFEAFF170EB3
:101F7000E926000EEA22C5CFEFFF65D1D0BE19D009
:101F8000FD0EDBCFE9FFFE0EDBCFEAFF1C0EE926DC
:101F9000000EEA22030EEF6EFD0EDBCFE9FFFE0E10
:101FA000DBCFEAFF170EE926000EEA22D0CFEFFFC3
:101FB0004AD19DB619D0FD0EDBCFE9FFFE0EDBCF77
:101FC000EAFF1C0EE926000EEA22040EEF6EFD0E5B
:101FD000DBCFE9FFFE0EDBCFEAFF170EE926000E8E
:101FE000EA229DCFEFFF2FD19C5019E0FD0EDBCFF1
:101FF000E9FFFE0EDBCFEAFF1C0EE926000EEA2207
:10200000050EEF6EFD0EDBCFE9FFFE0EDBCFEAFF24
:10201000170EE926000EEA229CCFEFFF14D1080E1E
:102020009F5C19E0FD0EDBCFE9FFFE0EDBCFEAFF80
:102030001C0EE926000EEA22060EEF6EFD0EDBCF27
:10204000E9FFFE0EDBCFEAFF170EE926000EEA22BB
:102050009FCFEFFFF8D0A25019E0FD0EDBCFE9FFD4
:10206000FE0EDBCFEAFF1C0EE926000EEA22070E69
:10207000EF6EFD0EDBCFE9FFFE0EDBCFEAFF170EA2
:10208000E926000EEA22A2CFEFFFDDD0A55019E02D
:10209000FD0EDBCFE9FFFE0EDBCFEAFF1C0EE926CB
:1020A000000EEA22080EEF6EFD0EDBCFE9FFFE0EFA
:1020B000DBCFEAFF170EE926000EEA22A5CFEFFFDD
:1020C000C2D0100EF214100819E0FD0EDBCFE9FFAC
:1020D000FE0EDBCFEAFF1C0EE926000EEA22090EF7
:1020E000EF6EFD0EDBCFE9FFFE0EDBCFEAFF170E32
:1020F000E926000EEA22F2CFEFFFA5D0470EF11439
:1021000019E0FD0EDBCFE9FFFE0EDBCFEAFF1C0E70
:10211000E926000EEA220A0EEF6EFD0EDBCFE9FF84
:10212000FE0EDBCFEAFF170EE926000EEA22F1CF02
:10213000EFFF89D0C00EF01419E0FD0EDBCFE9FFF0
:10214000FE0EDBCFEAFF1C0EE926000EEA220B0E84
:10215000EF6EFD0EDBCFE9FFFE0EDBCFEAFF170EC1
:10216000E926000EEA22F0CFEFFF6DD092A819D039
:10217000FD0EDBCFE9FFFE0EDBCFEAFF1C0EE926EA
:10218000000EEA220C0EEF6EFD0EDBCFE9FFFE0E15
:10219000DBCFEAFF170EE926000EEA2292CFEFFF0F
:1021A00052D093B019D0FD0EDBCFE9FFFE0EDBCF8E
:1021B000EAFF1C0EE926000EEA220D0EEF6EFD0E60
:1021C000DBCFE9FFFE0EDBCFEAFF170EE926000E9C
:1021D000EA2293CFEFFF37D03E0E94141C0819E08B
:1021E000FD0EDBCFE9FFFE0EDBCFEAFF1C0EE9267A
:1021F000000EEA220E0EEF6EFD0EDBCFE9FFFE0EA3
:10220000DBCFEAFF170EE926000EEA2294CFEFFF9C
:102210001AD097BE18D0FD0EDBCFE9FFFE0EDBCF44
:10222000EAFF1C0EE926000EEA220F0EEF6EFD0EED
:10223000DBCFE9FFFE0EDBCFEAFF170EE926000E2B
:10224000EA2297CFEFFFE552E7CFD9FF1200D8CFB0
:10225000E4FFE0CFE4FFE46EDACFE4FFE2CFDAFFA1
:10226000E9CFE4FFEACFE4FFE6529EA624D09E9693
:10227000C9CF8BF101018A5100081BE288C1E9FF37
:1022800089C1EAFF882B000E89238BC1EFFF86C12D
:10229000E9FF87C1EAFF862B8723EFCF8BF18BC144
:1022A000C9FF8A078A5104E1020EAA6FCC93CC8140
:1022B00001D0C96A29D0F2A227D0F2920101200EE2
:1022C0008A6FCCA905D0600E886F010E896F04D08B
:1022D000400E886F010E896FCCA1CC79CCA705D0B8
:1022E000000E866F010E876F04D0200E866F010EE0
:1022F000876FC9CF8BF186C1E9FF87C1EAFF862BC3
:10230000000E8723EF50C96EE552E5CFEAFFE5CF17
:10231000E9FFE5CFDAFFE550E5CFE0FFE5CFD8FFF5
:022320001000AB
:0E232200019E05D0019E09AE02D0096C018E0D
:1023300009C003F0026A136A126A860E046E056A07
:102340000FEF13F0019E08D0019E09AE05D0086C76
:10235000091EE86A0922018E09C003F008C002F0D4
:10236000136A126A8E0E046E056A0FEF13F0016A8B
:102370004BEC13F063EC13F001B6F3EF12F001A293
:1023800005D001BAF3EF12F0FAEF12F001BA06EF3E
:1023900013F001A005D001B8F3EF12F006EF13F02F
:1023A00001B8FAEF12F0056A7F0E0A24046EE86A9B
:1023B00005220F50045EE86A055A1A0E106E0A6A6A
:1023C000126A136A026A036A0C50075E0D50085ABB
:1023D0000E50095A000E0A5A09E70C5007260D50F4
:1023E00008220E500922000E0A2201D0128AD8902B
:1023F0000736083609360A36D890123613360236B2
:102400000336102EE1D7095008100710D8A4128AFD
:102410000FEF13F0016A4BEC13F063EC13F001B60D
:10242000F3EF12F001A205D001B8F3EF12F0FAEFCA
:1024300012F001AA05D001B0F3EF12F0FAEF12F09A
:1024400001B002D001A802D006EF13F0056A0F50C8
:102450000A24046EE86A05227E0E045EE86A055AC4
:10246000126A136A026A036A0E500902F4CF03F07B
:10247000F3CF02F00D500902F3501326F45002225C
:10248000000E03220E500802F3501326F4500222CD
:10249000000E03220C500902F3501226F4501322AE
:1024A000000E022203220D500802F3501226F450AF
:1024B0001322000E022203220E500702F3501226AE
:1024C000F4501322000E022203220C500802F45092
:1024D0001226000E1322022203220D500702F4508E
:1024E0001226000E1322022203220FEF13F0006ABD
:1024F0000EAE80EF12F00D6C0E1EE86A0E22001E6A
:1025000009AE88EF12F0086C091EE86A0922001E65
:1025100063EC1CF009BE98EF12F000AE000C086CE2
:10252000091EE86A0922046C051EE86A0522000CEF
:1025300000BE8FEF12F00188FF0C016A4BEC13F024
:1025400001B6A7EF12F001A20AD001B403D07F0EAA
:10255000096E19D0800E096E16D0096A14D001B028
:10256000FCD7870E0A60F1D77E0E0A64F6D7860E76
:102570000A5C04E0D89009320A2AF9D701A403D0F2
:10258000096C09AEEAD71200016A4BEC13F001B6F0
:10259000CEEF12F001A20ED001B405D07F0E096E6D
:1025A000FF0E086E1FD0800E096E086A1BD0096AE4
:1025B000086A18D001B0FBD78F0E0A60EDD77E0EE7
:1025C0000A64F5D78E0E0A5C05E0D890093208320D
:1025D0000A2AF8D701A406D0086C091EE86A092265
:1025E00009AEE5D712007F0E0A6EFF0E096E086E67
:1025F000076E12007F0E01BEFF0E0A6E02D07F0E24
:102600000A6E800E096E086A076AF3D701AE04D01D
:10261000800E0A6E096AF7D70A6A096AF4D703506E
:10262000021013101210F8E005BEF0D703BE0CD054
:1026300004500510EBE0D8901236133602360336FC
:102640000406D8A00506F2D70550D4E10428D2E04C
:1026500012AE11D07F0E121402E113A00CD0132A77
:10266000E86A0222032207E3D880033202321332DF
:10267000042A0428BFE00450C9E013C007F002C0D8
:1026800008F00334096E04300A6E09320A9E01BE56
:102690000A8EF9EF12F009360A3602E30184017E50
:1026A00006E101800A6A096A086A076A12000A28B4
:1026B00003E0D88009321200D890093202E1018289
:1026C0001200018612000E360F3602E3018C017EE5
:1026D00006E101880F6A0E6A0D6A0C6A12000F2863
:1026E00003E0D8800E321200D8900E32EAE1018A5F
:1026F000120009C013F008C012F008500D02F4CF08
:1027000007F0F3CF06F009500E02F4CF09F0F3CF33
:1027100008F00D02F3500726F4500822E86A092257
:1027200012500E02F3500726F4500822E86A0922DC
:102730000EAE9FEF13F01250085E1350095A13AEFD
:0C274000000C0D50085E0E50095A000CF1
:04274C00D9CFE6FFFC
:10275000E1CFD9FFFE0EDB50080A2EE00F0A28E079
:10276000010A22E0030A1CE0010A16E0070A10E051
:10277000010A0AE0030A04E0150EAF6EAC8420D013
:10278000810EAF6EAC941CD0400EAF6EAC9418D0DE
:102790002A0EAF6EAC9414D0810EAF6EAC8410D004
:1027A000400EAF6EAC840CD02A0EAF6EAC8408D055
:1027B000150EAF6EAC8404D00A0EAF6EAC8400D0A0
:1027C0009D9A9D98AC98AC9E948EAB9CAB96AB8A30
:1027D000AB889F9A9D8A0101EA69EB69949CAC9C45
:1027E000AC969F989D88AC8AAB8EE552E7CFD9FF17
:1027F0001200D9CFE6FFE1CFD9FFFE0EDB50080A69
:102800002EE00F0A28E0010A22E0030A1CE0010A78
:1028100016E0070A10E0010A0AE0030A04E0400E8D
:102820006F6E6C9420D0810E6F6E6C941CD0400E35
:102830006F6E6C9418D02A0E6F6E6C9414D0810E4B
:102840006F6E6C8410D0400E6F6E6C840CD02A0EAC
:102850006F6E6C8408D0150E6F6E6C8404D00A0EF7
:102860006F6E6C8400D0A39AA3986C986C9E988429
:102870006B9C6B966B8A6B88A59AA38A0101EA69A7
:10288000EB6998926C9C6C96A598A3886C8A6B8E69
:10289000E552E7CFD9FF1200D9CFE6FFE1CFD9FF4C
:1028A000E6529D9AE5C0DFFF9D8ADF5000D0E552D9
:1028B000E552E7CFD9FF1200D9CFE6FFE1CFD9FF2C
:1028C000E652A39AF1C0DFFFA38ADF5000D0E552A1
:1028D000E552E7CFD9FF1200D9CFE6FFE1CFD9FF0C
:1028E000E6520001E25103E0000E17D016D0E3518A
:1028F000EA6A600FE96E000EEA22EFCFDFFFE5071C
:10290000E32B1F0EE3179D9AE451E35D02E1010EF4
:10291000E26F9D8AE16BDF5000D0E552E552E7CFD0
:10292000D9FF1200D9CFE6FFE1CFD9FFE65200016F
:10293000EE5103E0000E17D016D0EF51EA6AA00F57
:10294000E96E000EEA22EFCFDFFFF107EF2B1F0E3B
:10295000EF17A39AF051EF5D02E1010EEE6FA38A2B
:10296000ED6BDF5000D0E552E552E7CFD9FF120002
:10297000D9CFE6FFE1CFD9FF0001E85101E0FCD754
:10298000EB51EA6A800FE96E000EEA22FE0EDBCF01
:10299000EFFFEC2BEB2B1F0EEB179D98EB51EA5D35
:1029A00002E1010EE86F9D88E96BE552E7CFD9FFA0
:1029B0001200D9CFE6FFE1CFD9FF0001F45101E0C9
:1029C000FCD7F751EA6AC00FE96E000EEA22FE0E4C
:1029D000DBCFEFFFF82BF72B1F0EF717A398F7515C
:1029E000F65D02E1010EF46FA388F56BE552E7CFC7
:1029F000D9FF12000001E15102E09D9A19D0E45183
:102A0000EA6A600FE96E000EEA22AECFEFFFABA2DA
:102A100003D0AB98AB88E62BABB4E72BE52BE42BCC
:102A20001F0EE417E451E35D02E1010EE16FE26B7A
:102A300012000001ED5102E0A39A19D0F051EA6AA8
:102A4000A00FE96E000EEA226ECFEFFF6BA203D05B
:102A50006B986B88F22B6BB4F32BF12BF02B1F0EC2
:102A6000F017F051EF5D02E1010EED6FEE6B120019
:102A70000001E95102E09D9812D0EA51EA6A800F04
:102A8000E96E000EEA22EF50AD6EEC07EA2B1F0E46
:102A9000EA17EB51EA5D02E1010EE96FE86B120003
:102AA0000001F55102E0A39812D0F651EA6AC00F76
:102AB000E96E000EEA22EF506D6EF807F62B1F0E3E
:102AC000F617F751F65D02E1010EF56FF46B120097
:102AD000D9CFE6FFE1CFD9FF0001E05101E110D0ED
:102AE000E00506E1FE0EDBCFE6FF42DFE55208D04F
:102AF000020EE05D05E1FE0EDBCFE6FF5ADFE55298
:082B0000E552E7CFD9FF1200F6
:082B080081CFF9F027EC0EF07B
:102B10000001010EE06F070EE66EA6EC13F0E55221
:102B2000020EE66EF9EC13F0E55258EC18F039ECB1
:102B30000AF08C0EE66E010EE66ED8EC0EF0E55251
:102B4000E5529AEC0EF00101CC910101ADAF24D019
:102B50000001010EFC6FFB6F0101CCA11AD0000136
:102B6000FA5104E0CDEC1CF00001FA6BAC0EE66EFD
:102B7000010EE66E9FEC0EF0E552E552CEEC1CF035
:102B80008C0EE66E010EE66ED8EC0EF0E552E552C4
:102B900002D0CFEC1CF065D0ADAD32D00101CCA19C
:102BA0002CD00001FB5108E086EC1AF0D6EC1BF0AB
:102BB0000001FB6B010EFC6FAC0EE66E010EE66EC3
:102BC0009FEC0EF0E552E552DFEC1BF09FC1E6FFF3
:102BD0009EC1E6FF9DC1E6FF9CC1E6FF64EC18F0D4
:102BE000E552E552E552E5528C0EE66E010EE66EB8
:102BF000D8EC0EF0E552E55202D002EC1CF031D0D8
:102C00000101CCA12CD00001FC5108E086EC1AF0A7
:102C10006BEC0AF00001FC6B010EFB6FAC0EE66E74
:102C2000010EE66E9FEC0EF0E552E5527DEC0AF0E7
:102C30009FC1E6FF9EC1E6FF9DC1E6FF9CC1E6FF86
:102C400064EC18F0E552E552E552E5528C0EE66E62
:102C5000010EE66ED8EC0EF0E552E55202D007EC1C
:102C60000BF073D71200D8CFE4FFE0CFE4FFE46E9F
:102C7000DACFE4FFE2CFDAFFE9CFE4FFEACFE4FF07
:102C8000F3CFE4FFF4CFE4FF00EE00F0140EE8040D
:102C900003E3EECFE4FFFBD7E652D9CFE6FFE1CF67
:102CA000D9FF020EE1269E50200B06E09D50200B1E
:102CB00003E0FAEC14F01AD0A450200B06E0A35065
:102CC000200B03E019EC15F011D09E50100B06E01C
:102CD0009D50100B03E038EC15F008D0A450100BF9
:102CE00005E0A350100B02E050EC15F0020EE15C81
:102CF00002E2E16AE552E16EE552E7CFD9FFE55223
:102D000000EE13F0140EE80403E3E5CFEDFFFBD76C
:102D1000E5CFF4FFE5CFF3FFE5CFEAFFE5CFE9FF2D
:102D2000E5CFDAFFE550E5CFE0FFE5CFD8FF1000B3
:102D300001030507090B0D0E1012141618191B1D9F
:102D40001F2022242627292A2C2E2F3132343537D2
:102D5000383A3B3D3E40414244454748494A4C4D44
:102D60004E4F51525354555658595A5B5C5D5E5FF5
:102D700060616263646566666768696A6B6B6C6DE7
:102D80006E6E6F707171727273747475757676771A
:102D900077787879797A7A7A7B7B7B7B7B7B7C7C92
:102DA0007C7C7B7B7C7C7D7D7D7D7E7E7E7E7E7E55
:102DB0007F7F7F7F7F7F7F80808080808181818215
:102DC00082828283838383848484858586868787C1
:102DD000888889898A8A8B8C8C8D8D8E8F90909132
:102DE000929393949596979898999A9B9C9D9E9F61
:102DF000A0A1A2A3A4A5A6A8A9AAABACADAFB0B14F
:102E0000B2B4B5B6B7B9BABCBDBEC0C1C3C4C6C7FB
:102E1000C9CACCCDCFD0D2D4D5D7D8DADCDEDFE169
:102E2000E3E5E6E8EAECEEF0F1F3F5F7F9FBFD0097
:102E30002223242627282A2B2C2E2F3031333435D9
:102E40003637393A3B3C3D3F404142434445464793
:102E500048494A4B4C4D4E4F50515253545556577A
:102E600058595A5B5B5C5D5E5F5F6061626363647F
:102E7000656666676868696A6A6B6C6C6D6D6E6FB3
:102E80006F70707171727273737474757576767712
:102E9000777778787979797A7A7A7B7B7B7C7C7C96
:102EA0007C7D7D7D7D7D7E7E7E7E7E7E7F7F7F7F45
:102EB0007F7F7F7F8080808080808181818181820F
:102EC00082828283838384848485858586868787BE
:102ED00087888889898A8A8B8B8C8C8D8D8E8E8F42
:102EE0008F909191929293949495969697989899A1
:102EF0009A9B9B9C9D9E9F9FA0A1A2A3A3A4A5A6D5
:102F0000A7A8A9AAABACADAEAFB0B1B2B3B4B5B6D9
:102F1000B7B8B9BABBBCBDBEBFC1C2C3C4C5C7C8C0
:102F2000C9CACBCDCECFD0D2D3D4D6D7D8DADBDC7A
:102F3000D9CFE6FFE1CFD9FF020EE1260F0EE66EF4
:102F4000FE0EDB507F0BFE0BFD0BE66EF10EE66E08
:102F50006FEC1BF0E552E552E5520A0EE66EB9EC55
:102F60001CF0E552D3EC1CF007EC04F0000901E082
:102F7000FBD727EC1CF0D0EC1CF0C450166E16C02A
:102F800017F0166AC35000011610146E17C015F022
:102F900014C0DEFF15C0DDFFDECF14F0DDCF15F06D
:102FA00014C0F3FF15C0F4FF020EE15C03E200D091
:102FB000E16AE552E16EE552E7CFD9FF1200D9CFC1
:102FC000E6FFE1CFD9FFFE0EDB5011E1FC0EDBCFB7
:102FD000E9FFFD0EDBCFEAFFEF507F0808E2FC0EB1
:102FE000DBCFE9FFFD0EDBCFEAFF7F0EEF6EE55290
:102FF000E7CFD9FF1200D9CFE6FFE1CFD9FFFE0E10
:10300000DB5013E1FC0EDBCFE9FFFD0EDBCFEAFF67
:10301000EFCF14F07F0E145C08E2FC0EDBCFE9FF6B
:10302000FD0EDBCFEAFF7F0EEF6EE552E7CFD9FF53
:103030001200D9CFE6FFE1CFD9FFFD0EDBCF14F0B0
:10304000FE0EDBCF15F0D890155004E6D00E145CC0
:10305000070E155806E20101D00EE86F070EE96F62
:1030600019D0FD0EDBCF14F0FE0EDBCF15F01534BA
:1030700004E21450CE08080E155406E20101CE0EEB
:10308000E86F080EE96F06D0FD0EDBCFE8F1FE0E0B
:10309000DBCFE9F1E8C114F0E9C115F0D00E145E00
:1030A000070E155A145000D0E552E7CFD9FF120091
:1030B000B18EB186B19CB19AB198B192A092A09014
:1030C000A390A392A3941200D9CFE6FFE1CFD9FF3A
:1030D000080EE126B190B36AB26ABA6AB76A736A37
:1030E000706AFE0EDB50320DF3CF14F0F4CF15F002
:1030F000980E14263A0E1522CE0E145E180E155A8E
:1031000014C0DEFF15C0DDFFFD0EDB50320DF3CF26
:1031100014F0F4CF15F0980E14263A0E1522CE0EA8
:10312000145E180E155A020E14C0DBFF030E15C0F4
:10313000DBFFFC0EDB50320DF3CF14F0F4CF15F0B3
:10314000980E14263A0E1522CE0E145E180E155A3D
:10315000040E14C0DBFF050E15C0DBFFFB0EDB50B9
:10316000320DF3CF14F0F4CF15F0980E14263A0E6A
:103170001522CE0E145E180E155A060E14C0DBFF73
:10318000070E15C0DBFFDF50BB6EDECF14F0DDCFC6
:1031900015F015C014F0156A1450BC6E020EDB5009
:1031A000B86E020EDBCF14F0030EDBCF15F015C0A6
:1031B00014F0156A1450B96E040EDB50746E040ED0
:1031C000DBCF14F0050EDBCF15F015C014F0156A37
:1031D0001450756E060EDB50716E060EDBCF14F0C8
:1031E000070EDBCF15F015C014F0156A1450726E7F
:1031F000F29E090EBA6EB76E736E706EB180F28E6B
:10320000080EE15C02E2E16AE552E16EE552E7CFC9
:04321000D9FF1200D0
:0C3214007461726765743A202575202DE6
:103220002D20706F743A202575202D2D20503A20C6
:103230002564202D2D20493A202564202D2D204461
:103240003A202564202D2D206D6F746F72206164EB
:103250006A7573743A2025640D0A0042554721208F
:103260005374656572696E6720636F6E74726F6CFC
:103270002076616C7565732068617665206E6F7469
:10328000206265656E20696E697469616C697A6532
:1032900064210D0A00454550524F4D2070726573F0
:1032A000657420736176653A204C656674203D2014
:1032B00025642C2043656E746572203D2025642CA6
:1032C000205269676874203D2025640D0A00454539
:1032D00050524F4D20707265736574206C6F61643D
:1032E000204F4B3A204C656674203D2025642C20ED
:1032F00043656E746572203D2025642C20526967F9
:103300006874203D2025640D0A00454550524F4DFC
:1033100020707265736574206C6F616420666169EA
:103320006C65642E2053657474696E6720646566ED
:1033300061756C742076616C7565732E0D0A004999
:10334000464920557365722050726F636573736FC1
:103350007220496E697469616C697A6564202E2EE9
:043360002E0D0A0024
:0C336400D9CFE6FFE1CFD9FFFF0EE76EE6
:10337000FD0EDBCF14F0FE0EDBCF15F0E750141678
:10338000156A1450A96EFD0EDBCF14F0FE0EDBCFD4
:1033900015F015C014F0156A030E1414AA6EA69E3B
:1033A000A69CFA0EDBCFF3FFDB06F35000080EE21B
:1033B000A680FB0EDBCFE9FFDB2AFC0EDBCFEAFFAA
:1033C00001E3DB2AA8CFEFFFA92AEBD7E552E7CF2D
:1033D000D9FF1200D9CFE6FFE1CFD9FFFF0EE76E8C
:1033E000FD0EDBCF14F0FE0EDBCF15F0E750141608
:1033F000156A1450A96EFD0EDBCF14F0FE0EDBCF64
:1034000015F015C014F0156A030E1414AA6EA198D5
:10341000A69CA69EA698A684F29EF29CFA0EDBCFEE
:10342000F3FFDB06F350000819E2FB0EDBCFE9FFE8
:10343000DB2AFC0EDBCFEAFF01E3DB2AEF50A86EAC
:10344000550EA76EAA0EA76EA682A1A8FED7A198B8
:10345000A6B604D0A92A01E1AA2AE0D7A694F28E42
:0E346000F28CA6B6A696E552E7CFD9FF120071
:02346E001E0E30
:10347000F66E080EF76E000EF86E01010900F550A9
:10348000DB6F0900F550DC6F03E1DB6701D03DD055
:103490000900F550D66F0900F550D76F0900F550B7
:1034A000D86F09000900F550E96E0900F550EA6E81
:1034B000090009000900F550D96F0900F550DA6FCD
:1034C00009000900F6CFDDF1F7CFDEF1F8CFDFF12B
:1034D000D6C1F6FFD7C1F7FFD8C1F8FF0101D95314
:1034E00002E1DA5307E00900F550EE6ED907F8E281
:1034F000DA07F9D7DDC1F6FFDEC1F7FFDFC1F8FF5C
:103500000101DB07000EDC5BBFD7120001017F0E5B
:10351000906F916F926F936F946F956F966F976F97
:10352000986F996F9A6F9B6F9C6F9D6F9E6F9F6F47
:103530008D908C908D928C928D948C948D968C968F
:103540008D988C988D9A8C9A8D9C8C9C91908C9E49
:02355000120067
:0E355200D9CFE6FFDACFE6FFE1CFD9FFE2CF17
:10356000DAFFE652E652E652E652D950FB0F146EED
:10357000FF0EDA20156E14C0DEFFDD6EDECFE6FF33
:10358000DDCFE6FFFB0EDBCFE6FFFC0EDBCFE6FF79
:10359000FD0EDBCFE6FFEAC1E6FFEBC1E6FF3EEC46
:1035A00004F0146E070EE15C02E2E16AE552E16E9E
:1035B0001450020EF3CFDBFF030EF4CFDBFF020E3D
:1035C000DBCF14F0030EDBCF15F014C0F3FF15C0F2
:1035D000F4FF040EE15C02E2E16AE552E16EE552BD
:0A35E000E5CFDAFFE7CFD9FF1200B4
:0635EA00D9CFE6FFDACFA5
:1035F000E6FFE1CFD9FFE2CFDAFFFB0EDBCF14F01D
:10360000FC0EDBCF15F00001800E15141AE1FB0E45
:10361000DBCFE9FFFC0EDBCFEAFFEECFF3FFEDCF10
:10362000F4FFEE2A000EEF22F3CFE9FFF4CFEAFF1A
:10363000FD0EDBCFEFFFEF50156AF36E15C0F4FF00
:1036400010D0FB0EDB50FE0806E1FD0EDBCFE6FFDF
:103650009DEC1CF005D0FD0EDBCFE6FF68EC15F00D
:0E366000E552E552E5CFDAFFE7CFD9FF1200C1
:02366E00065004
:103670000B02F3CF02F0F4CF03F00C02F350032659
:10368000000EF420046E06500D02F3500426000EC6
:10369000F420056E06500E02F350052607500B026B
:1036A000F3500326F4500422000E052207500C02AA
:1036B000F3500426F450052207500D02F35005265E
:1036C00008500B02F3500426F450052208500C0257
:0E36D000F350052609500B02F3500526120098
:0236DE00D9CF42
:1036E000E6FFDACFE6FFE1CFD9FFE2CFDAFFC26A29
:1036F000C16AC06AFC0EDB407F0B3C0BC26EFB0E46
:10370000DB50C16EFC0EDB38F00B300BC112FD0E2E
:10371000DB50800BC06EFD0EDB380F0B070BC012A9
:10372000FD0EDB50040DF350380BC012FC0EDBAE67
:1037300003D09E9C9D8CF28CC280E552E5CFDAFFCF
:06374000E7CFD9FF1200E3
:0A374600FE0EE3CFE9FFFF0EE3CF14
:10375000EAFFF36AF46AEE5203E0F34AF42AFBD775
:103760001200FF0EE3CFF8FFE552FF0EE3CFF7FFA5
:10377000E552FF0EE3CFF6FFE552E66AE66AE66A37
:103780000900F55209E0FD0EE32A05E1FE0EE32AE9
:1037900002E1FF0EE32AF4D7FD0EE3CF07F0FE0EA1
:0C37A000E3CF08F0FF0EE3CF09F01200A9
:0437AC00D3C1E6FFA0
:1037B000D4C1E6FF8BEC0CF0E552E552120081A873
:1037C00009D0CFC1E6FFD0C1E6FF8BEC0CF0E5528B
:1037D000E55217D081AA09D0D1C1E6FFD2C1E6FFD8
:1037E0008BEC0CF0E552E5520CD0D3C1E6FFD4C10E
:1037F000E6FF8BEC0CF0E552E55281BC02D081AEC5
:0638000000D012001200CE
:0A380600056A046A036A026A200ED4
:10381000E76ED89006360736083609360236033684
:10382000043605360B50025C0C5003580D500458FA
:103830000E50055809E30B50025E0C50035A0D5010
:0E384000045A0E50055A062AE72EE4D712004D
:02384E00D9CFD0
:10385000E6FFDACFE6FFE1CFD9FFE2CFDAFFE652AB
:10386000E652C350DF6E010EC4CFDBFFDECF14F093
:10387000DDCF15F014C0F3FF15C0F4FFE552E5529B
:0C388000E552E5CFDAFFE7CFD9FF1200D8
:04388C00436F70799D
:10389000726967687420A93230303720522E204B6D
:1038A0006576696E20576174736F6E2E20416C6C63
:1038B0002072696768747320617265207265736530
:0638C000727665642E0023
:0A38C600056A046A100EE76ED89040
:1038D00008360936043605360D50045C0E5005587E
:1038E00005E30D50045E0E50055A082AE72EF0D766
:0238F0001200C4
:0E38F2001EEE00F02EEE00F0F86A019C00EED3
:1039000000F00F0EEE6AEA62FDD737EC1AF084EC95
:0639100015F0FDD71200C6
:0A391600F36AF46AFF0EE124E96E83
:10392000FF0EE220EA6EED6607D02F0EEF6404D0A2
:0A3930003A0EEF6001D0F32A1200F6
:06393A00FF0EE350ACBAE1
:1039400004D0AF6AAB8EAC8A949CACA2FED7AD6EAD
:06395000F36EF46A1200A0
:0A3956009384F09EF198F092F0883F
:103960000001FD6BFE6B12000001FD2B000EFE231B
:02397000120043
:0E397200FF0EE350E84E1200000000D000D01F
:0839800000D0E82EFAD7120076
:0839880030313233343536379B
:0939900038396162636465660068
:06399A00120012001200F1
:0639A000C2909D9C120084
:0439A600C2821200C7
:0639AA0000000000000017
:0239B000000015
:0E39B200000001000000000000010000000005
:0B39C0000100000000000001000000FA
:0439CB00FF010101F6
:020000040030CA
:0100010006F8
:010002001EDF
:010003001EDE
:01000400F308
:010005008377
:010006008178
:01000800FFF8
:010009008076
:01000A00FFF6
:01000B008074
:01000C00FFF4
:01000D0000F2
:00000001FF
