:020000040000FA
:0608000095EF1AF0120052
:020806000000F0
:06080800D4EF0DF0120018
:02080E00C250D6
:08081000020B01E0010E1200D1
:0608180031EF17F01200A1
:02081E000400D4
:10082000D33500000401000004000000BA350000C8
:10083000C107000019000000B83500000A010000DF
:10084000020000000608000008010000020000008D
:1008500064EC09F0FB0EDBCFF3FFDB06F35000097D
:100860000AE0B2EC09F0FA0E1DEC0AF0F3E12C1CE0
:10087000F1E1010E01D0000E93EF09F064EC09F0F4
:100880003B0EE12402E3E168E652E16E010EDB6A11
:10089000020EDB6AF90EDBCFF6FFFA0EDBCFF7FFB5
:1008A000FB0EDBCFF8FF0800F550DF6EDF5002E1F2
:1008B000B9EF08F0250EDF5C02E0ACEF08F0030EA4
:1008C000DB6A040EDB6A050EDB6A060EDB6A070EC6
:1008D000DB6ACCEC08F02D0EDF5C0CE02B0EDF5C4D
:1008E00009E0200EDF5C06E0230EDF5C03E0300E43
:1008F000DF5C1AE1DF50300A14E0130A0FE0030A4C
:100900000AE00B0A05E0060AE4E1030EDB80E1D70A
:10091000030EDB82DED7030EDB84DBD7030EDB8620
:10092000D8D7030EDB88D5D72A0EDF5C1BE1C8ECD5
:1009300008F016EC09F010E0030EDB801D681E685D
:10094000130EDBCF22F0140EDBCF23F0AEEC14F04D
:10095000040E1BC0DBFF03D0130EFFEC08F0CCEC41
:1009600008F00BD0090EDB6A6DEC09F003E0E1EC56
:1009700009F0FAD7090EFFEC08F0030EDBB0DB98A4
:100980002E0EDF5C1BE1CCEC08F02A0EDF5C0BE1E5
:10099000C8EC08F016EC09F003E1130E51EC09F075
:1009A000CCEC08F00BD0090EDB6A6DEC09F003E02B
:1009B000E1EC09F0FAD7090E51EC09F0680EDF5CA2
:1009C00007E1CCEC08F0680EDF5C1DE1030E18D0E7
:1009D000740EDF5C17E07A0EDF5C14E0480EDF5C1B
:1009E00006E0540EDF5C03E05A0EDF5C02E1020E0B
:1009F00007D06C0EDF5C03E06A0EDF5C04E1010EE1
:100A0000A4EC09F0C9DBDF506E0A01E181D31E0AB4
:100A100001E192D1200A01E18FD13F0A01E149D1E0
:100A20001A0A01E146D10D0A01E143D1200A01E190
:100A300040D13A0A01E13DD1200A01E13AD1260A2A
:100A400001E135D10D0A01E132D11A0A01E1D9D013
:100A5000200A4AE0300A1FE0460A0EE0250A01E0BB
:100A600085D3D950F90FE96EFF0EDA20EA6E010E38
:100A7000EE5E000EEE5AEE5AB2EC09F0250EE66E6E
:100A800095DB03E12C1C01E16BD3AEEC09F001E234
:100A90006DD3DB2A6BD3080EDB6A040EDB50010832
:100AA00006E2040EDB0476EC09F0DB508BDB080E6B
:100AB000DB5009E0030EDB50010B05E172DB01E0C6
:100AC0004FD3080EDB6A64DBEFCFDFFF26EC0AF0C2
:100AD00003E12C1C01E144D3AEEC09F001E3DB2A75
:100AE00060DB01E143D33CD3070EDB5002080FE18A
:100AF000F2EC09F0030EB9EC09F00E0EEECFDBFFBD
:100B00000F0EEECFDBFF100EEECFDBFF20D0F70E87
:100B1000DBCF2EF0F80EDBCF2FF0020E2E5E000E94
:100B20002F5AF70E2EC0DBFFF80E2FC0DBFF2EC0B2
:100B3000E9FF2FC0EAFFA9EC09F02D6A0E0E2BC0C9
:100B4000DBFF0F0E2CC0DBFF100E2DC0DBFF0E0EE7
:100B5000DBCFE6FF0F0EDBCFE6FF100EDBCFE6FFAD
:100B60003FEC19F0E552E552E552130E1CC0DBFFD5
:100B7000140E1DC0DBFF060EDB5005E0130EEDEC7E
:100B800009F001E26ADB11EC0AF002E2130E37DB36
:100B9000D4EC09F006E0040EEDEC09F002E2050EDB
:100BA0002EDB030EDBB005D0FCDA01E0D9D2080E53
:100BB000DB6A090EDB6A0E0EDBCFF6FF0F0EDBCF12
:100BC000F7FF100EDBCFF8FF0800F550DF6EDF50A7
:100BD00014E017EC0AF011E226EC0AF003E12C1CF9
:100BE00001E1BED2BBDB01E3DB2A090EDB2AD950CF
:100BF0000E0FE96E000ECBDBE7D7D3DA01E1B6D2F8
:100C0000AFD2C6DA110EEECFDBFF120EEDCFDBFF57
:100C1000110EDBCFE6FF120EDBCFE6FF31EC19F051
:100C2000E552E552130EF3CFDBFF140EF4CFDBFFDA
:100C3000060EDB5004E0130ED0DB01E20EDB11ECFC
:100C40000AF002E2130EDBDAAFDB05E0040EC5DBCF
:100C500002E2050ED4DA030EDBB005D0A2DA01E021
:100C60007FD2080EDB6A090EDB6A110EDBCFE9FFCB
:100C7000120EDBCFEAFFEFCFDFFFDF5014E0D7DB50
:100C800012E2E4DB03E12C1C01E16AD267DB01E341
:100C9000DB2A090EDB2A110EDB2ADBCFE9FF120E5D
:100CA000E8E3DB2AE6D77DDA01E160D259D2030E10
:100CB000DB8E070EDB0410E195DB040E5ADB0A0E17
:100CC000EECFDBFF0B0EEECFDBFF0C0EEECFDBFF2C
:100CD0000D0EEECFDBFF6CD0070EDB5003082CE1CE
:100CE000030EDBAE0DD0B2DA020E76DAEFCF2BF0C8
:100CF0002C6A2D6A2E6A2BAE39D02C682D6835D01F
:100D0000F70EDBCF2CF0F80EDBCF2DF0020E2C5EB1
:100D1000000E2D5AF70E2CC0DBFFF80E2DC0DBFFA6
:100D20002CC0E9FF2DC0EAFFEFCF2BF00A0E2BC03D
:100D3000DBFF0B0EDB6A38D0070EDB50020809E13F
:100D4000030EDBAE04D059DB2DAE10D00ED055DB38
:100D50000DD0030EDBAE12D079DA020E3DDAF9DAED
:100D60002D6A2E6A2CAE02D02D682E68E2DA0C0EA7
:100D70002DC0DBFF0D0E2EC0DBFF1AD0F70EDBCF30
:100D80002DF0F80EDBCF2EF0020E2D5E000E2E5A47
:100D9000F70E2DC0DBFFF80E2EC0DBFF2DC0E9FFE4
:100DA0002EC0EAFFD6DAC5DA0C0EDB6A0D0EDB6A5E
:100DB000060EDB5005E1010EF36E050EF3CFDBFFEF
:100DC000150EDB6A160EDB6AD950370F2B6E000E3C
:100DD000DA202C6E390E2BC0DBFF3A0E2CC0DBFF65
:100DE000380EDB6A080EDB6A0A0EAEDADF50780ACC
:100DF00012E0200A10E0280A0CE0200A0AE03F0A6C
:100E000006E00D0A02E0200A08E1020E05D0080EF5
:100E100003D0080EDF26100E97DA030EDBBE02D0D9
:100E2000DB92DB94DB50800B26E08ADA030EEB507A
:100E3000000AE8AE02D0D89008D0000EEE5C000E9A
:100E4000EE58000EEE58000EEE5815E211DA20684A
:100E5000216822682368F9EC18F00A0E17C0DBFF3E
:100E60000B0E18C0DBFF0C0E19C0DBFF0D0E1AC0F5
:100E7000DBFF2D0E08D0030EDBA202D02B0E03D019
:100E8000DBA408D0200EF36E170EF3CFDBFF150E98
:100E9000DB2A02D0170EDB6A050EDB5003E1B5D961
:100EA00001E189D09C0E2B6E350E2C6E000E2D6E3E
:100EB000070EDBCF2EF02F6A306A316A2EC020F089
:100EC0002FC021F030C022F031C023F0D1D92CEC5A
:100ED0001AF02B501724F36E2C501820F46E2D505E
:100EE0001920F86EF4CFF7FFF3CFF6FF0800090ED4
:100EF000F5CFDBFF580EDF5C0FE1610EF36E090EDC
:100F000079D90AE3200E2B6E090EDBCFE7FF2B50B9
:100F1000E75E090EE7CFDBFF070EDBCF2BF02C6A75
:100F20002D6A2E6A0DDA2BC020F02CC021F02DC0C6
:100F300022F02EC023F0EECF1BF0EECF1CF0EECF50
:100F40001DF0EFCF1EF02CEC1AF01EC0EDFF1DC0FF
:100F5000EDFF1CC0EDFF1BC0EFFF390EDBCFE9FF3B
:100F6000DB063A0EDBCFEAFF01E2DB06090EDBCF40
:100F7000EFFF150EDB2A49D995E1030EDBA61DD044
:100F80006F0EDF5C06E1BFD918E3150EDB2859DAD6
:100F900014D0780EDF5C09E0580EDF5C06E0620ECC
:100FA000DF5C03E0420EDF5C08E1020EF36E160E1A
:100FB000F3CFDBFF02D0150EDB6A030EDB50100B04
:100FC0000EE0040EDBCF2BF0050EDB50D8802B5447
:100FD00006E2060EDB5003E1040EDB5032DA93D951
:100FE0000AE2050EDBCFE7FF150EDB50E75E050ECC
:100FF000E7CFDBFF02D0050EDB6A040EDBCF2BF060
:10100000160E43D9D8802B5414E2160EDBCFE6FF20
:10101000150EDBCFE6FF040EDBCFE6FF050EDB503F
:10102000E552E75CE552D880E754E552D880E754B2
:101030005DD9030EDB50010B0BE1080EDB5008E01D
:10104000B0D801E08DD0080EDB50BCD8080EDB6AAA
:10105000170EDB5007E086D9170EEFD903E12C1CE1
:1010600001E17ED0160EDB5016E07CD9300EE66E24
:101070009DD802E12C1C74E075D9DFCFE6FF77EC38
:1010800018F0E552E552E552F4CF2CF00001F31CC4
:1010900002E12C1C65E0050EDBCF2BF0160EDB50B9
:1010A000D8802B5409E2050EDBCFE7FF160EDB508C
:1010B000E75E050EE7CFDBFF300EE66E050EC9D901
:1010C0004FE1390EDB2ADBCFE9FF3A0E01E3DB2AE1
:1010D000DBCFEAFF090EEFCFDBFFDB500EE042D99A
:1010E000090EABD902E12C1C3BE0390EDB2ADBCF29
:1010F000E9FF3A0EEDE3DB2AEBD753D831E1160EC8
:10110000DBCFE6FF080EC1D8E552E7245BD82ED02E
:10111000070EDB50030A1CE0010A14E0030A07E093
:1011200079D9DBCFEEFF020EDBCFEDFF1FD0F3D876
:10113000306A2EAE02D02F6830682AD8BAD830C0B4
:10114000EEFF14D0E8D82EBE2F6822D8B2D80ED029
:1011500061D9DBCFEFFF0AD079D905E12C1C03E17F
:10116000F368F46810D0FAD801E3DB2A77D953EF9B
:1011700004F0010EDBCF2BF0020EDBCF2CF02BC0E6
:10118000F3FF2CC0F4FFD9CFE1FFDACFE2FFCBD0E1
:1011900029D9020EB9EF09F061D90800F550DF6EC8
:1011A0001200200EE66E080E29EF0AF077EC18F018
:1011B000E552E552E552F3CF2BF0F4CF2CF00001CD
:1011C000F31C12002B6E2C6AD950010F4DD92B50F5
:1011D000EE262C50ED2212002F5E000E305AF70E34
:1011E0002FC0DBFFF80E30C0DBFF2FC0E9FF30C09F
:1011F000EAFF1200DBCFF4FFF350F45C1200DB5087
:10120000E76E040EE7CFDBFF12000A0EDBCF2BF0F8
:101210000B0EDBCF2CF00C0EDBCF2DF00D0EDBCF49
:101220002EF02B502C102D102E101200130EEECF7E
:10123000DBFF140EEDCFDBFF130EDBCF2BF0140E14
:10124000DBCF2CF00001800E2C141200F70EDBCF48
:101250002FF0F80EDBCF30F01200050EDB50E66EFB
:10126000D950130F01D9E552E750EE6EED6A120026
:101270000A0EDBCF1BF00B0EDBCF1CF00C0EDBCF0E
:101280001DF00D0EDBCF1EF01200DBCFE6FF150EBA
:10129000DBCFE6FF050EDB50E552E724E552E724FD
:1012A0001200DB50CED8010EF36E060EF3CFDBFF3B
:1012B0001200EE50EFCFEAFFE96E2DC0EEFF2EC018
:1012C000EEFF2FC0EEFF1200D9CFE6FFDACFE6FF28
:1012D000E1CFD9FFE2CFDAFF1200DFCFE6FFE66A07
:1012E00083EC1AF0E552E552F3501200E76E080E57
:1012F000E7CFDBFF1200EECF2BF0EECF2CF0EFCFDD
:101300002DF02E6A1200050EDBCF2BF0150EDB50F0
:10131000D8802B541200010EDBCF2DF0020EDBCF54
:101320002EF02F6A1200E552E5CFDAFFE7CFD9FFA2
:1013300012000A0E2BC0DBFF0B0E2CC0DBFF1200CD
:10134000D9500A0F34EF0AF0F36E070EF3CFDBFF2C
:101350001200EECF2BF0EFCF2CF01200010EDB2AA3
:10136000020E1200FC0EDBCFE6FFFD0EDBCFE6FF28
:1013700012002B5E000E2C5AF70E2BC0DBFFF80E6E
:101380002CC0DBFF2BC0E9FF2CC0EAFF1200DA20E3
:10139000EA6EEF2AEECFF6FF000EEF22EECFF7FF58
:1013A000EF22EECFF8FF1200040EDBCFE6FF130EA4
:1013B000DB50E552E75C9ADFDB5004DF060EDB50C2
:1013C0001200090EDB500A0DF350DF24D00FE76E38
:1013D000090EE7CFDBFFCCEF08F0DB50F36E050E14
:1013E000FAEF08F0F70EDBCF2BF0F80EDBCF2CF086
:1013F0001200DFCFE6FFD6EF08F028DF030EECDEA9
:101400007BEF09F028EC04F0E552E552E552E55295
:1014100000091200BDDEEE50EFCFEAFFE96E010ECB
:101420001200130EDB50F36E040EFAEF08F0040EF8
:10143000DB50F36E090EFAEF08F0DBCFE6FFD6EFD4
:1014400008F0E76E050EE7CFDBFF12008BDFF9EF48
:1014500009F0DBCFE6FF86DF02EF0AF0D950F90F83
:10146000E96EFF0EC7EF09F0E96E000EDA20EA6EB2
:02147000120068
:0E147200D9CFE6FFE1CFD9FFFE0EDB5011E12E
:10148000FC0EDBCFE9FFFD0EDBCFEAFFEF507F085C
:1014900008E2FC0EDBCFE9FFFD0EDBCFEAFF7F0E9B
:1014A000EF6EE552E7CFD9FF1200D9CFE6FFE1CFCB
:1014B000D9FFFE0EDB5013E1FC0EDBCFE9FFFD0E82
:1014C000DBCFEAFFEFCF2BF07F0E2B5C08E2FC0EA8
:1014D000DBCFE9FFFD0EDBCFEAFF7F0EEF6EE552BB
:1014E000E7CFD9FF1200D9CFE6FFE1CFD9FFFD0E3C
:1014F000DBCF2BF0FE0EDBCF2CF0D8902C5004E687
:10150000D00E2B5C070E2C5806E20701D00EF16FAF
:10151000070EF26F19D0FD0EDBCF2BF0FE0EDBCFE6
:101520002CF02C3404E22B50CE08080E2C5406E28A
:101530000701CE0EF16F080EF26F06D0FD0EDBCF65
:10154000F1F7FE0EDBCFF2F7F1C72BF0F2C72CF06C
:10155000D00E2B5E070E2C5A2B5000D0E552E7CF51
:10156000D9FF1200F00EE66EE6EC16F0E552938A13
:1015700093889386938499829980938E938C9A848E
:101580009A82998699849A8A9A8894809A869A8E61
:101590009A9C919C07017F0E8B6F8BC78AF78BC734
:1015A00089F78BC788F78BC787F78BC786F78BC7F9
:1015B00085F78BC784F7936F93C792F793C791F71B
:1015C00093C790F793C78FF793C78EF793C78DF79D
:1015D00093C78CF7000EE66EE66AE66EE66AE66E84
:1015E000E66AE66EE66A36EC0FF0F56E080EE15E2E
:1015F000F550DBEC14F0F4EC14F00701010EC16FB0
:10160000800EE66E070EE66EF4EC0EF0E552E55243
:10161000CC0E2B6E330E2C6E2D6A2BC0E6FF2CC029
:10162000E6FF2DC0E6FF2DEC18F0E552E552E5523D
:101630007BEF0EF0D9CFE6FFE1CFD9FF030EE12615
:10164000A00EE66E070EE66EDBEC0EF0E552E552FC
:1016500074D80DEC15F0DF6EDF50000860E2020E6A
:10166000DB6ADF50F36E020EDBCFF4FFF350F45C65
:1016700056E22DEC15F0E76E010EE7CFDBFFDBCF76
:10168000E6FF79EC15F0E5520701010EC16FDB5062
:10169000660814E1B70E2B6E330E2C6E2D6A2BC02C
:1016A000E6FF2CC0E6FF2DC0E6FF2DEC18F0E5525A
:1016B000E552E5520701FE0E846F2ED0010EDB507D
:1016C000730814E1A90E2B6E330E2C6E2D6A2BC0FD
:1016D000E6FF2CC0E6FF2DC0E6FF2DEC18F0E5522A
:1016E000E552E55207017F0E846F16D0010EDB50E4
:1016F000620812E1920E2B6E330E2C6E2D6A2BC0F7
:10170000E6FF2CC0E6FF2DC0E6FF2DEC18F0E552F9
:10171000E552E5520701846B020EDB2AA2D7800E48
:10172000E66E070EE66EF4EC0EF0E552E552D9CF08
:10173000E1FFE552E7CFD9FF12000701A7517F086B
:1017400013E27F0EA75DF76A720FF66E310EF72275
:101750000800F5CF2BF02C6A2BBE2C68800E2B24B2
:101760000701876F856F0FD07F0E2B6ED880A7552E
:10177000F76A720FF66E310EF7220800F5502B5CF7
:101780000701876F856F0701A6517F0813E27F0E5F
:10179000A65DF76A720FF66E310EF7220800F5CFDC
:1017A0002BF02C6A2BBE2C68800E2B240701866F31
:1017B000846F0FD07F0E2B6ED880A655F76A720FFC
:1017C000F66E310EF7220800F5502B5C0701866F8C
:1017D000846FA8C78BF70701A251020B05E0010136
:1017E000085102E18D808C900701A251020B01E0AB
:1017F000010E0101085D07E00701A251020B01E0A3
:10180000010E0101086F0701A351020B05E0010160
:10181000095102E18D908C800701A351020B01E078
:10182000010E0101095D07E00701A351020B01E070
:10183000010E0101096F0701A251100B02E08D8218
:1018400001D08D928850800B02E0919001D0918060
:101850008C9E860EE66E070EE66E8150400B01E010
:10186000010EE66E06DEE552E552E552860EE66EA4
:10187000070EE66E8150800B01E0010EE66E15DE6C
:10188000E552E552E552870EE66E070EE66E87508A
:10189000010BE66EEEDDE552E552E552870EE66E8F
:1018A000070EE66E8750020B01E0010EE66EFDDDCD
:1018B000E552E552E5528C0EE66E070EE66E875055
:1018C000040B01E0010EE66ED4DDE552E552E5526F
:1018D0008C0EE66E070EE66E8750080B01E0010ED7
:1018E000E66EE3DDE552E552E5528D0EE66E070E3B
:1018F000E66E8850020B01E0010EE66EBADDE5529D
:10190000E552E5528D0EE66E070EE66E8850040B2A
:1019100001E0010EE66EC9DDE552E552E5528E0E9C
:10192000E66E070EE66E8850080B01E0010EE66ECB
:10193000A0DDE552E552E5528E0EE66E070EE66E2C
:101940008250010BE66EB1DDE552E552E5528F0E95
:10195000E66E070EE66E8850100B01E0010EE66E93
:1019600088DDE552E552E5528F0EE66E070EE66E13
:101970008850200B01E0010EE66E97DDE552E5523E
:10198000E5520701A1BBBDD0000EA65D07E3A6513D
:10199000380804E30701809180832DD07D0EA65D79
:1019A0000EE3A6512B6E2C6A2C3404E22B508108D6
:1019B000000E2C5404E30701808180831CD0A651C3
:1019C0002B6E2C6AD8902C5004E6D80E2B5C000E9F
:1019D0002C580EE3A6512D6E2E6A2E3404E22D50A3
:1019E000FF08000E2E5404E307018081809303D08A
:1019F000070180918093000E0701A75D07E3A751BF
:101A0000380804E30701809580872DD07D0EA75DFF
:101A10000EE3A7512B6E2C6A2C3404E22B50810864
:101A2000000E2C5404E30701808580871CD0A75149
:101A30002B6E2C6AD8902C5004E6D80E2B5C000E2E
:101A40002C580EE3A7512D6E2E6A2E3404E22D5031
:101A5000FF08000E2E5404E307018085809703D011
:101A6000070180958097809B8D50010B01E0808B52
:101A700080998C50010B01E08089809F8D50020B72
:101A800001E0808F809D8C50020B01E0808D8150A1
:101A9000040B01E0010E2B6E2C6A2B502C1002E07F
:101AA000000E01D0010E010BF36EFE0E8115F31036
:101AB000816F8150080B01E0010E2B6E2C6A2B50B8
:101AC0002C1002E0000E01D0010E010BF36EF34664
:101AD000FD0E8115F310816F8150100B01E0010E96
:101AE0002B6E2C6A2B502C1002E0000E01D0010E40
:101AF000010BF36EF346F346FB0E8115F310816F75
:101B000052D0B7C71EF030EC13F01CC033F01DC02C
:101B100034F01EC035F01FC036F0710E216E3D0E40
:101B2000226E7A0E236E410E246E33C01CF034C038
:101B30001DF035C01EF036C01FF094EC13F01CC031
:101B40002FF01DC030F01EC031F01FC032F0216AEE
:101B5000226A800E236E430E246E2FC01CF030C00C
:101B60001DF031C01EF032C01FF041EC13F01CC05C
:101B70002BF01DC02CF01EC02DF01FC02EF0216ACE
:101B8000226A200E236E410E246E2BC01CF02CC046
:101B90001DF02DC01EF02EC01FF094EC13F001ECD0
:081BA00014F01EC080F71200D2
:081BA800DACFE4FFE2CFDAFF1F
:101BB000E9CFE4FFEACFE4FFE652F2A202D0A0D8D8
:101BC00002D09EB6CCD8E552E5CFEAFFE5CFE9FFDB
:101BD000E5CFDAFF1100E66A010EE66E050EE66E4D
:101BE00064EC19F0E552E552E5521200070EB46EAE
:101BF000000E886E876E866E856E846E836E826E32
:101C0000816E806E916E906E8F6E8E6E8D6E8C6E0C
:101C10008B6E8A6E896E2F0E926E93689C0E946EF8
:101C2000956A966A9768040E986E0E0E9A6E996879
:101C3000C16AF19EB0989C8EA26A9F6AA06A9D6A52
:101C4000A36AA56AC8DF9F86D08E9E969D869382E2
:101C5000F06AF288F09EF098F192F09AF16AF28CB4
:101C6000F28E1200D9CFE6FFE1CFD9FFE652BEDFF8
:101C70000701C097C0990701840EE56F070EE66F54
:101C8000DF6A100EDF5C0AE2DF50EA6AE525E96EE2
:101C9000E651EA227F0EEF6EDF2AF3D707019D6B34
:101CA000010E9E6FC20E9F6F0701C0850701A26BD8
:101CB000A36B0701806B826B836B010ED56E320EB6
:101CC000D76ECF0ED66ED59E800EE66E070EE66EF0
:101CD0008BD8E552E5520701C093800EE66E070EE1
:101CE000E66E82D8E552E5520701C093E552E5520F
:101CF000E7CFD9FF120082828088949292981200D6
:101D0000F2920701200EE16F9F860701C0A906D05D
:101D10000701E00EDE6F000EDF6F05D00701C00E79
:101D2000DE6F000EDF6F0701C0A1C079C0A706D02B
:101D30000701800EDC6F000EDD6F05D00701A00EDD
:101D4000DC6F000EDD6FC9CFE2F7DCC7E9FFDDC74E
:101D5000EAFFDC2B000EDD23EF50C96E12009E96C9
:101D6000C9CFE2F70701E151000823E2DEC7E9FF2E
:101D7000DFC7EAFFDE2B000EDF23E2C7EFFFDCC781
:101D8000E9FFDDC7EAFFDC2BDD23EFCFE2F7E2C797
:101D9000C9FFE107E1510CE10701020E9E6F070147
:101DA000C093C081320ED76ECF0ED66EF294D58E10
:101DB00001D0C96A1200D9CFE6FFE1CFD9FF0701F0
:101DC000C0A10ED0FD0EDBCFE6FFFE0EDBCFE6FF9F
:101DD00020EC12F0E552E5529D960701C0919D86D8
:101DE000E552E7CFD9FF1200D9CFE6FFE1CFD9FF07
:101DF0000701C0B332D0FD0EDBCFE9FFFE0EDBCF13
:101E0000EAFF1E0EE926000EEA22EF50020809E161
:101E1000FD0EDBCFE6FFFE0EDBCFE6FF69D8E55215
:101E2000E552FD0EDBCFE9FFFE0EDBCFEAFF150E1C
:101E3000E926000EEA22EF9EFD0EDBCFE6FFFE0E46
:101E4000DBCFE6FF8EEC11F0E552E5529D960701DF
:101E5000C077C0839D8607019D2BE552E7CFD9FF50
:101E600012009D960701C0919D861200D9CFE6FF12
:101E7000E1CFD9FF0001166BD950FD0FE96EFF0EBF
:101E8000DA20EA6E010EEE1801E1ED5002E1168152
:101E900001D0BA6AD950FB0FE96EFF0EDA20EA6E64
:101EA000010EEE1801E1ED5002E1168301D0B76A90
:101EB000D950F90FE96EFF0EDA20EA6E010EEE1826
:101EC00001E1ED5002E1168501D0736AD950F70F98
:101ED000E96EFF0EDA20EA6E010EEE1801E1ED5018
:101EE00002E1168701D0706AE552E7CFD9FF1200F0
:101EF000D9CFE6FFE1CFD9FFFD0EDBCFE9FFFE0E24
:101F0000DBCFEAFF1C0EE926000EEA22EF6AFD0E87
:101F1000DBCFE9FFFE0EDBCFEAFF170EE926000E4E
:101F2000EA22EF6AC6AE0ED0C69EFD0EDBCFE9FFF9
:101F3000FE0EDBCFEAFF170EE926000EEA22010EA5
:101F4000EF6E22D0F150800B10E0F250080B0DE044
:101F5000FD0EDBCFE9FFFE0EDBCFEAFF170EE92611
:101F6000000EEA22020EEF6E0FD0F0A60DD0909E6A
:101F7000FD0EDBCFE9FFFE0EDBCFEAFF170EE926F1
:101F8000000EEA22030EEF6E250EC614250819E096
:101F9000FD0EDBCFE9FFFE0EDBCFEAFF1C0EE926CC
:101FA000000EEA22010EEF6EFD0EDBCFE9FFFE0E02
:101FB000DBCFEAFF170EE926000EEA22C6CFEFFFBD
:101FC00080D1C55019E0FD0EDBCFE9FFFE0EDBCF5F
:101FD000EAFF1C0EE926000EEA22020EEF6EFD0E4D
:101FE000DBCFE9FFFE0EDBCFEAFF170EE926000E7E
:101FF000EA22C5CFEFFF65D1D0BE19D0FD0EDBCFF1
:10200000E9FFFE0EDBCFEAFF1C0EE926000EEA22F6
:10201000030EEF6EFD0EDBCFE9FFFE0EDBCFEAFF16
:10202000170EE926000EEA22D0CFEFFF4AD19DB667
:1020300019D0FD0EDBCFE9FFFE0EDBCFEAFF1C0E51
:10204000E926000EEA22040EEF6EFD0EDBCFE9FF5B
:10205000FE0EDBCFEAFF170EE926000EEA229DCF27
:10206000EFFF2FD19C5019E0FD0EDBCFE9FFFE0EF4
:10207000DBCFEAFF1C0EE926000EEA22050EEF6E0A
:10208000FD0EDBCFE9FFFE0EDBCFEAFF170EE926E0
:10209000000EEA229CCFEFFF14D1080E9F5C19E0DE
:1020A000FD0EDBCFE9FFFE0EDBCFEAFF1C0EE926BB
:1020B000000EEA22060EEF6EFD0EDBCFE9FFFE0EEC
:1020C000DBCFEAFF170EE926000EEA229FCFEFFFD3
:1020D000F8D0A25019E0FD0EDBCFE9FFFE0EDBCFFA
:1020E000EAFF1C0EE926000EEA22070EEF6EFD0E37
:1020F000DBCFE9FFFE0EDBCFEAFF170EE926000E6D
:10210000EA22A2CFEFFFDDD0A55019E0FD0EDBCF14
:10211000E9FFFE0EDBCFEAFF1C0EE926000EEA22E5
:10212000080EEF6EFD0EDBCFE9FFFE0EDBCFEAFF00
:10213000170EE926000EEA22A5CFEFFFC2D0100E3F
:10214000F214100819E0FD0EDBCFE9FFFE0EDBCF25
:10215000EAFF1C0EE926000EEA22090EEF6EFD0EC4
:10216000DBCFE9FFFE0EDBCFEAFF170EE926000EFC
:10217000EA22F2CFEFFFA5D0470EF11419E0FD0ED1
:10218000DBCFE9FFFE0EDBCFEAFF1C0EE926000ED7
:10219000EA220A0EEF6EFD0EDBCFE9FFFE0EDBCF6B
:1021A000EAFF170EE926000EEA22F1CFEFFF89D0F1
:1021B000C00EF01419E0FD0EDBCFE9FFFE0EDBCF01
:1021C000EAFF1C0EE926000EEA220B0EEF6EFD0E52
:1021D000DBCFE9FFFE0EDBCFEAFF170EE926000E8C
:1021E000EA22F0CFEFFF6DD092A819D0FD0EDBCF21
:1021F000E9FFFE0EDBCFEAFF1C0EE926000EEA2205
:102200000C0EEF6EFD0EDBCFE9FFFE0EDBCFEAFF1B
:10221000170EE926000EEA2292CFEFFF52D093B0BC
:1022200019D0FD0EDBCFE9FFFE0EDBCFEAFF1C0E5F
:10223000E926000EEA220D0EEF6EFD0EDBCFE9FF60
:10224000FE0EDBCFEAFF170EE926000EEA2293CF3F
:10225000EFFF37D03E0E94141C0819E0FD0EDBCFC3
:10226000E9FFFE0EDBCFEAFF1C0EE926000EEA2294
:102270000E0EEF6EFD0EDBCFE9FFFE0EDBCFEAFFA9
:10228000170EE926000EEA2294CFEFFF1AD097BE70
:1022900018D0FD0EDBCFE9FFFE0EDBCFEAFF1C0EF0
:1022A000E926000EEA220F0EEF6EFD0EDBCFE9FFEE
:1022B000FE0EDBCFEAFF170EE926000EEA2297CFCB
:0A22C000EFFFE552E7CFD9FF12004F
:0622CA00000EE96EEA6E51
:1022D000040072EC11F0EA2A080EEA5CD8A468EF58
:1022E00011F01200EF6AE93E72EF11F01200FF0EDA
:1022F000E3CF09F009380F0B060FD8B2070F2A0FEA
:10230000AD6E45EC16F009500F0B060FD8B2070F53
:102310002A0FAD6E45EC16F0000C1200EACF04F067
:10232000E9CF05F0FF0EE3CFEAFFFE0EE3CFE9FFB2
:10233000C0A741D0EECFA0F0EECFA1F0EECFA2F03B
:10234000EECFA3F0EECFA4F0EECFA5F0EECFA6F047
:10235000EECFA7F0EECFA8F0EECFA9F0EECFAAF027
:10236000EECFABF0EECFACF0EECFADF0EECFAEF007
:10237000EECFAFF0EECFB0F0EECFB1F0EECFB2F0E7
:10238000EECFB3F0EECFB4F0EECFB5F0EECFB6F0C7
:10239000EECFB7F0EECFB8F0EECFB9F0EECFBAF0A7
:1023A000EECFBBF0EECFBCF0EECFBDF0EECFBEF087
:1023B000EECFBFF040D0EECF80F0EECF81F0EECF89
:1023C00082F0EECF83F0EECF84F0EECF85F0EECF4B
:1023D00086F0EECF87F0EECF88F0EECF89F0EECF2B
:1023E0008AF0EECF8BF0EECF8CF0EECF8DF0EECF0B
:1023F0008EF0EECF8FF0EECF90F0EECF91F0EECFEB
:1024000092F0EECF93F0EECF94F0EECF95F0EECFCA
:1024100096F0EECF97F0EECF98F0EECF99F0EECFAA
:102420009AF0EECF9BF0EECF9CF0EECF9DF0EECF8A
:102430009EF0EECF9FF004C0EAFF05C0E9FF120056
:10244000C0A11200EACF04F0E9CF05F0FF0EE3CF00
:10245000EAFFFE0EE3CFE9FFC0A941D0C0C0EEFF06
:10246000C1C0EEFFC2C0EEFFC3C0EEFFC4C0EEFFAE
:10247000C5C0EEFFC6C0EEFFC7C0EEFFC8C0EEFF8E
:10248000C9C0EEFFCAC0EEFFCBC0EEFFCCC0EEFF6E
:10249000CDC0EEFFCEC0EEFFCFC0EEFFD0C0EEFF4E
:1024A000D1C0EEFFD2C0EEFFD3C0EEFFD4C0EEFF2E
:1024B000D5C0EEFFD6C0EEFFD7C0EEFFD8C0EEFF0E
:1024C000D9C0EEFFDAC0EEFFDBC0EEFFDCC0EEFFEE
:1024D000DDC0EEFFDEC0EEFFDFC0EEFF40D0E0C0AB
:1024E000EEFFE1C0EEFFE2C0EEFFE3C0EEFFE4C0AE
:1024F000EEFFE5C0EEFFE6C0EEFFE7C0EEFFE8C08E
:10250000EEFFE9C0EEFFEAC0EEFFEBC0EEFFECC06D
:10251000EEFFEDC0EEFFEEC0EEFFEFC0EEFFF0C04D
:10252000EEFFF1C0EEFFF2C0EEFFF3C0EEFFF4C02D
:10253000EEFFF5C0EEFFF6C0EEFFF7C0EEFFF8C00D
:10254000EEFFF9C0EEFFFAC0EEFFFBC0EEFFFCC0ED
:10255000EEFFFDC0EEFFFEC0EEFFFFC0EEFF04C0C9
:10256000EAFF05C0E9FF1200F2B4120016500F0A8C
:10257000D8B41200FF0EE3CF0AF0FE0EE3CF0BF04B
:10258000FD0EE3CF0CF0FC0EE3CF0DF00A2A16A0EF
:102590008D8E0B2A16A28F800C2A16A48F860D2AE8
:1025A00016A68F880E6A0F6A106A116A07EC13F07C
:1025B0000A2EDDEF12F016A08D9E0B2EE2EF12F028
:1025C00016A28F900C2EE7EF12F016A48F96000043
:1025D0000D2EEDEF12F016A68F9800000E2EF2EFE2
:1025E00012F0129000000F2EF7EF12F0129200007E
:1025F000102EFCEF12F012940000112E01EF13F0D8
:10260000129629EC13F0133ED8EF12F01200D70EF9
:10261000136E00000000000000001FEC13F0132EEA
:1026200009EF13F0D70E136E000000000000000049
:102630001FEC13F0132E14EF13F000001200000033
:1026400022EF13F000000000000000000000000076
:102650001200030E146E0000142E2BEF13F0120064
:10266000269E05D0269E1EAE02D01E6C268E1EC053
:1026700018F0176A2A6A296A860E196E1A6A44EFD8
:1026800014F0266A80EC14F098EC14F026B628EFCB
:1026900014F026A205D026BA28EF14F02FEF14F07C
:1026A00026BA3BEF14F026A005D026B828EF14F088
:1026B0003BEF14F026B82FEF14F01A6A7F0E1F2498
:1026C000196EE86A1A222450195EE86A1A5A1A0E1C
:1026D000276E1F6A296A2A6A176A186A21501C5EC7
:1026E00022501D5A23501E5A000E1F5A09E721502E
:1026F0001C2622501D2223501E22000E1F2201D014
:10270000298AD8901C361D361E361F36D890293699
:102710002A3617361836272EE1D71E501D101C10EA
:10272000D8A4298A44EF14F0266A80EC14F098ECBF
:1027300014F026B628EF14F026A205D026B828EF0C
:1027400014F02FEF14F026AA05D026B028EF14F0CD
:102750002FEF14F026B002D026A802D03BEF14F0E1
:102760001A6A24501F24196EE86A1A227E0E195E16
:10277000E86A1A5A296A2A6A176A186A23501E02D6
:10278000F4CF18F0F3CF17F022501E02F3502A2690
:10279000F4501722000E182223501D02F3502A264F
:1027A000F4501722000E182221501E02F350292641
:1027B000F4502A22000E1722182222501D02F35034
:1027C0002926F4502A22000E1722182223501C0218
:1027D000F3502926F4502A22000E172218222150E5
:1027E0001D02F4502926000E2A22172218222250F8
:1027F0001C02F4502926000E2A221722182244EF28
:1028000014F0266A80EC14F026B60BEF14F026A222
:102810000AD026B403D07F0E1E6E19D0800E1E6E15
:1028200016D01E6A14D026B0FCD7870E1F60F1D7D1
:102830007E0E1F64F6D7860E1F5C04E0D8901E3211
:102840001F2AF9D726A403D01E6C1EAEEAD71200A9
:102850007F0E1F6EFF0E1E6E1D6E1C6E12007F0E11
:1028600026BEFF0E1F6E02D07F0E1F6E800E1E6EE4
:102870001D6A1C6AF3D726AE04D0800E1F6E1E6A36
:10288000F7D71F6A1E6AF4D7185017102A1029109C
:10289000F8E01ABEF0D718BE0CD019501A10EBE0B1
:1028A000D89029362A36173618361906D8A01A06AF
:1028B000F2D71A50D4E11928D2E029AE11D07F0EF8
:1028C000291402E12AA00CD02A2AE86A1722182229
:1028D00007E3D880183217322A32192A1928BFE0A4
:1028E0001950C9E02AC01CF017C01DF018341E6E24
:1028F00019301F6E1E321F9E26BE1F8E2EEF14F043
:102900001E361F3602E32684267E06E126801F6AD5
:102910001E6A1D6A1C6A12001F2803E0D8801E323E
:102920001200D8901E3202E1268212002686120082
:102930002336243602E3268C267E06E12688246A86
:10294000236A226A216A1200242803E0D8802332F5
:102950001200D8902332EAE1268A12001EC02AF023
:102960001DC029F01D502202F4CF1CF0F3CF1BF044
:102970001E502302F4CF1EF0F3CF1DF02202F350BD
:102980001C26F4501D22E86A1E2229502302F3500F
:102990001C26F4501D22E86A1E2223AED4EF14F048
:1029A00029501D5E2A501E5A2AAE000C22501D5E70
:0629B00023501E5A000C2A
:0A29B600150EAF6EAC849D9A9D983B
:1029C000AC98AC9E948EAB9CAB96AB8AAB889F9A2E
:1029D0009D8A01010A690B69949CAC9CAC969F98F6
:1029E0009D88AC8AAB8E1200400E6F6E6C94A39AD9
:1029F000A3986C986C9E98846B9C6B966B8A6B8882
:102A0000A59AA38A01010A690B6998926C9C6C963D
:102A1000A598A3886C8A6B8E1200D9CFE6FFE1CF10
:102A2000D9FFE6529D9AC6C7DFFF9D8ADF5000D0CE
:102A3000E552E552E7CFD9FF1200D9CFE6FFE1CF4B
:102A4000D9FFE652A39AD2C7DFFFA38ADF5000D096
:102A5000E552E552E7CFD9FF1200D9CFE6FFE1CF2B
:102A6000D9FFE6520701C35103E0000E17D016D07C
:102A7000C451EA6A000FE96E070EEA22EFCFDFFFCA
:102A8000C607C42B1F0EC4179D9AC551C45D02E131
:102A9000010EC36F9D8AC26BDF5000D0E552E55234
:102AA000E7CFD9FF1200D9CFE6FFE1CFD9FFE65239
:102AB0000701CF5103E0000E17D016D0D051EA6ABB
:102AC000400FE96E070EEA22EFCFDFFFD207D02BCF
:102AD0001F0ED017A39AD151D05D02E1010ECF6F26
:102AE000A38ACE6BDF5000D0E552E552E7CFD9FF85
:102AF0001200D9CFE6FFE1CFD9FF0701C95101E0AC
:102B0000FCD7CC51EA6A200FE96E070EEA22FE0ECE
:102B1000DBCFEFFFCD2BCC2B1F0ECC179D98CC51CC
:102B2000CB5D02E1010EC96F9D88CA6BE552E7CF0C
:102B3000D9FF1200D9CFE6FFE1CFD9FF0701D55168
:102B400001E0FCD7D851EA6A600FE96E070EEA226D
:102B5000FE0EDBCFEFFFD92BD82B1F0ED817A39873
:102B6000D851D75D02E1010ED56FA388D66BE5522F
:102B7000E7CFD9FF12000701C25102E09D9A19D098
:102B8000C551EA6A000FE96E070EEA22AECFEFFFE9
:102B9000ABA203D0AB98AB88C72BABB4C82BC62B6A
:102BA000C52B1F0EC517C551C45D02E1010EC26FD2
:102BB000C36B12000701CE5102E0A39A19D0D15184
:102BC000EA6A400FE96E070EEA226ECFEFFF6BA2B2
:102BD00003D06B986B88D32B6BB4D42BD22BD12B17
:102BE0001F0ED117D151D05D02E1010ECE6FCF6B18
:102BF00012000701CA5102E09D9812D0CB51EA6A37
:102C0000200FE96E070EEA22EF50AD6ECD07CB2BF9
:102C10001F0ECB17CC51CB5D02E1010ECA6FC96B01
:102C200012000701D65102E0A39812D0D751EA6AE8
:102C3000600FE96E070EEA22EF506D6ED907D72BB1
:102C40001F0ED717D851D75D02E1010ED66FD56B95
:102C50001200D9CFE6FFE1CFD9FF0701C15101E151
:102C600010D0C10506E1FE0EDBCFE6FF42DFE552E4
:102C700008D0020EC15D05E1FE0EDBCFE6FF5ADF94
:0A2C8000E552E552E7CFD9FF12003C
:062C8A009EB802D0FDD748
:102C9000FCD71200D9CFE6FFE1CFD9FFFE0EDBCF84
:102CA000E6FF77EC11F0E5520D0EAD6EEEDFE5526A
:102CB000E7CFD9FF1200D9CFE6FFE1CFD9FF01015D
:102CC000D950FD0F006FFF0EDA20016F010EEA6A86
:102CD0000025E96E0151EA22EF50E66E77EC11F023
:102CE000E55200C1E9FF01C1EAFFEF50E66E77EC63
:102CF00011F0E5520D0EAD6EC8DFE552E7CFD9FFFA
:102D00001200D9CFE6FFE1CFD9FF0101026B1A0E05
:102D1000025D11E2FD0EDBCFE9FFDB2AFE0EDBCF09
:102D2000EAFF01E3DB2AEF50E66E77EC11F0E552A3
:102D30000101022BECD70D0EAD6EA7DFE552E7CFF8
:102D4000D9FF12000101A00E006F070E016F0701ED
:102D5000A0510101046F056B0651041902E10751EE
:102D6000051918E00701C0A502D0C0950FD006C113
:102D7000E6FF77EC11F0E55204C1E6FF77EC11F0C5
:102D8000E5520D0EAD6E81DF0701C09504C106F15D
:102D900005C107F10101062B000E0723073504E2E8
:102DA0000651FF08000E075502E2066B076B120082
:102DB000150EE66E3C0EE66E97EC19F0E552E55204
:102DC000320EE66EA5EC1AF0E5521200D9CFE6FFFE
:102DD000E1CFD9FFFE0EDBCF03F1E552E7CFD9FFFC
:102DE0001200D9CFE6FFE1CFD9FF020EE126FE0E99
:102DF000DB507F0BFE0BFD0BE66E03C1E6FFFBEC29
:102E000019F0E552E5520A0EE66EC3EC1AF0E552EF
:102E1000DAEC1AF007EC04F0000901E0FBD750EC03
:102E20001AF0D7EC1AF0C4502D6E2DC02EF02D6A7A
:102E3000C35000012D102B6E2EC02CF02BC0DEFFD6
:102E40002CC0DDFFDECF2BF0DDCF2CF02BC0F3FF4D
:102E50002CC0F4FF00D0D9CFE1FFE552E7CFD9FF76
:022E600012005E
:0E2E6200D8CFE4FFE0CFE4FFE46EDACFE4FF68
:102E7000E2CFDAFFE9CFE4FFEACFE4FFF3CFE4FFEC
:102E8000F4CFE4FF00EE2BF00C0EE80403E3EECFEA
:102E9000E4FFFBD7E6529E50200B06E09D50200B2E
:102EA00003E0BBEC15F01AD0A450200B06E0A350B1
:102EB000200B03E0DAEC15F011D09E50100B06E069
:102EC0009D50100B03E0F9EC15F008D0A450100B46
:102ED00005E0A350100B02E011EC16F0E55200EEF5
:102EE00036F00C0EE80403E3E5CFEDFFFBD7E5CFAA
:102EF000F4FFE5CFF3FFE5CFEAFFE5CFE9FFE5CF4C
:102F0000DAFFE550E5CFE0FFE5CFD8FF100007017D
:102F10007F0E8B6F8BC78AF78BC789F78BC788F7B4
:102F20008BC787F78BC786F78BC785F78BC784F767
:102F3000936F93C792F793C791F793C790F793C78F
:102F40008FF793C78EF793C78DF793C78CF78C9243
:102F50008D928C908D908C968D968C948D948C9A6D
:102F60008D9A8C988D988C9E91908C9C8D9C07014D
:102F7000A1AD22D00701C0A11ED0A00EE66E070EA3
:102F8000E66EDBEC0EF0E552E55293C7E6FF92C722
:102F9000E6FF91C7E6FF90C7E6FFB4EC12F0E552FA
:102FA000E552E552E552800EE66E070EE66EF4EC51
:0C2FB0000EF0E552E552DBD712001200D3
:042FBC001E0EF66E81
:102FC000080EF76E000EF86E07010900F550EC6F61
:102FD0000900F550ED6F03E1EC6701D03DD0090029
:102FE000F550E76F0900F550E86F0900F550E96FFB
:102FF00009000900F550E96E0900F550EA6E090074
:1030000009000900F550EA6F0900F550EB6F09005F
:103010000900F6CFEEF7F7CFEFF7F8CFF0F7E7C7F5
:10302000F6FFE8C7F7FFE9C7F8FF0701EA5302E137
:10303000EB5307E00900F550EE6EEA07F8E2EB0704
:10304000F9D7EEC7F6FFEFC7F7FFF0C7F8FF0701A4
:0A305000EC07000EED5BBFD7120085
:06305A00D9CFE6FFDACF3A
:10306000E6FFE1CFD9FFE2CFDAFFE652E652E652C1
:10307000E652D950FB0F2B6EFF0EDA202C6E2BC0C0
:10308000DEFFDD6EDECFE6FFDDCFE6FFFB0EDBCF42
:10309000E6FFFC0EDBCFE6FFFD0EDBCFE6FF0AC14D
:1030A000E6FF0BC1E6FF3EEC04F0F56E070EE15CB7
:1030B00002E2E16AE552E16EF550020EF3CFDBFF6A
:1030C000030EF4CFDBFF020EDBCF2BF0030EDBCFC2
:1030D0002CF02BC0F3FF2CC0F4FFD9CFE1FFDACFE7
:0E30E000E2FFE552E5CFDAFFE7CFD9FF12009D
:0230EE00D9CF38
:1030F000E6FFDACFE6FFE1CFD9FFE2CFDAFFFB0E42
:10310000DBCF2BF0FC0EDBCF2CF00001800E2C145B
:103110001AE1FB0EDBCFE9FFFC0EDBCFEAFFEECFBF
:10312000F3FFEDCFF4FFEE2A000EEF22F3CFE9FF1D
:10313000F4CFEAFFFD0EDBCFEFFFEF502C6AF36E0A
:103140002CC0F4FF10D0FB0EDB50FE0806E1FD0E94
:10315000DBCFE6FFB5EC1AF005D0FD0EDBCFE6FFC6
:1031600029EC16F0E552E552E5CFDAFFE7CFD9FFBB
:0231700012004B
:0E317200000000000000000001010101010149
:103180000202020203030303040405050506060701
:1031900007080809090A0A0B0B0C0D0D0E0E0F107B
:1031A0001111121314141516171819191A1B1C1DB6
:1031B0001E1F2021222324252627292A2B2C2D2EB1
:1031C00030313233353637383A3B3D3E3F41424469
:1031D0004547484A4B4D4E505153555658595B5DE3
:1031E0005F6062646667696B6D6F71727476787A1E
:0231F0007C7EE3
:0E31F2001B502002F3CF17F0F4CF18F021028B
:10320000F3501826000EF420196E1B502202F350C2
:103210001926000EF4201A6E1B502302F3501A26B2
:103220001C502002F3501826F4501922000E1A22C6
:103230001C502102F3501926F4501A221C5022026D
:10324000F3501A261D502002F3501926F4501A226A
:103250001D502102F3501A261E502002F3501A2648
:0232600012005A
:0E326200FE0EE3CFE9FFFF0EE3CFEAFFF36AB3
:10327000F46AEE5203E0F34AF42AFBD71200FF0E81
:10328000E3CFF8FFE552FF0EE3CFF7FFE552FF0E65
:10329000E3CFF6FFE552E66AE66AE66A0900F55210
:1032A00009E0FD0EE32A05E1FE0EE32A02E1FF0E2E
:1032B000E32AF4D7FD0EE3CF1CF0FE0EE3CF1DF0A2
:0832C000FF0EE3CF1EF0120027
:0832C800D9CFE6FFDACFE6FFE3
:1032D000E1CFD9FFE2CFDAFF3F0EC716C66AFD0E77
:1032E000DB50C612FB0EDB50C712FC0EDB50030A8C
:1032F00009E0010A04E0020A06E1C78C04D0C78C89
:10330000C68801D0C688FD0EDB50050A03E0010A1D
:1033100004E1928A9486C79E01D09496949A9488E8
:0E332000C68AE552E5CFDAFFE7CFD9FF1200EB
:02332E00D9CFF5
:10333000E6FFDACFE6FFE1CFD9FFE2CFDAFFAC6AF2
:10334000AB6AFD0EDBB0AC88DBA202D0AC8CAB8CE0
:10335000DBB4AC8EDBA602D0AB8801D0AB8ADBA895
:1033600002D0AC8401D0AC94DBAC02D09D8A01D0F9
:103370009D9ADBAE02D09D8801D09D98FC0EDB505B
:10338000AF6EAC8AAB8EE552E5CFDAFFE7CFD9FF5F
:02339000120029
:0E3392000D0A676F696E67206261636B776179
:1033A0007264732E2E2E0D0A000D0A73746F7070E6
:1033B00065642E2E0D0A000D0A676F696E67206620
:1033C0006F72776172642E2E2E0D0A0049464920D5
:1033D0003230303620557365722050726F636573DA
:1033E000736F7220496E697469616C697A656420D3
:0533F0002E2E2E0D0041
:0A33F600D9CFE6FFDACFE6FFE1CF02
:10340000D9FFE2CFDAFFC26AC16AC06AFC0EDB40B4
:103410007F0B3C0BC26EFD0EDB500F0B2B6EFC0EB8
:10342000DB38F00B300B2B10C16EFD0EDB380F0BB1
:10343000070B2B6EFD0EDB50800B2B10C06EFC0EAD
:10344000DBAE03D09E9C9D8CF28CC280E552E5CF12
:08345000DAFFE7CFD9FF1200FB
:083458001A6A196A186A176A62
:10346000200EE76ED8901B361C361D361E361736DA
:10347000183619361A362050175C21501858225029
:10348000195823501A5809E32050175E2150185A32
:103490002250195A23501A5A1B2AE72EE4D7120039
:1034A000D9CFE6FFDACFE6FFE1CFD9FFE2CFDAFFEF
:1034B000E652E652C350DF6E010EC4CFDBFFDECF13
:1034C0002BF0DDCF2CF02BC0F3FF2CC0F4FFE55226
:0E34D000E552E552E5CFDAFFE7CFD9FF120053
:0234DE0032ECCE
:1034E0000EF0B2EC0AF00701C0910701C0A107D0AD
:1034F0001AEC0BF00701A1AD02D087EC17F0DDEC60
:0635000017F0F3D71200E2
:0A350600F36AF46AFF0EE124E96E97
:10351000FF0EE220EA6EED6607D02F0EEF6404D0B6
:0A3520003A0EEF6001D0F32A12000A
:06352A0016EE00F026EE93
:1035300000F0F86A269CA68EA69C65EC11F0DEECE5
:0A35400017F06FEC1AF0F9D7120033
:06354A00FF0EE350376E96
:10355000480E01D04C0EE76EE72EFED7E76AE72E45
:0A356000FED7372EF7D70000120047
:06356A00FF0EE350ACBAB5
:1035700004D0AF6AAB8EAC8A949CACA2FED7AD6E81
:06358000F36EF46A120074
:0A358600FF0EE350E84E12000000B3
:0C35900000D000D000D0E82EFAD71200C6
:04359C003031323365
:0D35A0003435363738396162636465660082
:0235AE00C290C9
:0435B0009D9C1200CC
:0435B400C2821200BD
:0235B800FEFF14
:0635BA000000010000000A
:1035C00000000001000000000100000000000001F8
:0335D000000000F8
:0435D30000000000F4
:020000040030CA
:00000001FF
